:020000040000FA
:1000000070090020551E00005D1E00005F1E0000EC
:10001000611E0000631E0000651E0000000000005D
:10002000000000000000000000000000671E00004B
:10003000691E0000000000006B1E00006D1E000025
:100040006F1E0000711E0000731E0000751E000070
:10005000771E0000791E00007B1E00007D1E000040
:100060007F1E0000811E0000831E0000851E000010
:10007000871E0000891E00008B1E00008D1E0000E0
:100080008F1E0000911E0000931E00000D06000050
:10009000971E0000991E00009B1E00009D1E000080
:1000A0009F1E0000A11E0000A31E0000A51E000050
:1000B000A71E0000A91E0000AB1E0000AD1E000020
:1000C000AF1E0000B11E0000B31E0000B51E0000F0
:1000D000B71E0000B91E0000BB1E0000BD1E0000C0
:1000E000BF1E0000C11E000000000000C31E000073
:1000F000C51E0000C71E0000C91E0000CB1E000068
:10010000CD1E0000CF1E0000D11E0000D31E000037
:100110000000000000000000D51E0000D71E0000F7
:10012000D91E0000DB1E0000DD1E0000DF1E0000E7
:10013000E11E0000E31E0000E51E0000E71E0000B7
:1001400000000000000000000000000000000000AF
:10015000E91E0000EB1E00007F1A0000EF1E0000E9
:10016000000000000000000000000000000000008F
:10017000000000000000000000000000000000007F
:10018000000000000000000000000000000000006F
:10019000000000000000000000000000000000005F
:1001A000000000000000000000000000000000004F
:1001B000F11E0000F31E0000F51E0000F71E0000F7
:1001C000F91E0000FB1E0000FD1E0000FF1E0000C7
:1001D000011F0000031F0000051F0000071F000093
:1001E000091F00000B1F00000D1F00000000000091
:1001F000000000000F1F0000111F0000131F00006F
:10020000151F0000171F0000000000000000000084
:10021000191F00001B1F00001D1F00001F1F0000F2
:10022000211F0000231F0000251F0000271F0000C2
:10023000291F00002B1F00002D1F00002F1F000092
:10024000311F0000331F0000351F0000371F000062
:10025000391F00003B1F00003D1F00003F1F000032
:10026000411F0000431F0000451F0000DFF80CD0B5
:1002700002F09EF80048004781020000700900204B
:1002800008B500F05CF801F0DDFC154D154E164F79
:10029000DFF85880DFF858A010244FF0010903233D
:1002A0000094B5F900200021184600F095FD0323C5
:1002B0000094B6F900200421184600F08DFD00944A
:1002C0000423062103203A6800F086FD00F0C0F800
:1002D000D8F800000128E2D18AF80290DFE7000098
:1002E000AE030020B0030020C80300201C00002043
:1002F000BC0300207047254890ED011A80ED061AD6
:10030000D0ED000AD0ED031A70EEA10AC0ED050A87
:10031000D0ED041A30EEA12AC0EE821A30EE412A46
:10032000B0EE410AB0EE601AC0ED021A01EE820A88
:1003300001EEE01A80ED010A80ED001A704710B559
:100340004FF08074606CC16D11488847A06F0068E1
:100350008047A06F0069804700F042F800F0B2F8D3
:1003600000F0A2F900F044FA00F066FB00F0D0FDC6
:1003700000F0B0FC4FF4E134204601F04AF9204689
:1003800000F0FBF8BDE8104001F015BC00000020B3
:10039000400500C170B54FF080740546606C006E7A
:1003A000804740F6B831B0FBF1F0616C6843D1F89A
:1003B0008810BDE87040084770B54FF0807405465E
:1003C000606C006E80470549B0FBF1F0616C6843DA
:1003D000D1F88810BDE8704008470000C0C62D0065
:1003E00010B54FF08074606C816914488847206AAA
:1003F0000E21C26BBDE810401148104770B512487D
:1004000010490160011D0A6842F080020A60002163
:1004100001604FF08074606C81690848801E8847D5
:10042000206A0A4D8021C26B28469047206A8022AC
:10043000114603682846BDE870401847050800F0DB
:10044000005002404B434F4C20750040007000406C
:1004500070B54FF08074304E206A0121C26A304678
:1004600090472E4D90B90A20FFF794FF206A012192
:10047000C26A3046904748B9206A0121C26A3046B4
:1004800090470028F8D06868401C6860206A1021F6
:10049000C26A30469047001113D10A20FFF77AFF55
:1004A000206A1021C26A30469047001109D1206AA3
:1004B0001021C26A304690470011F8D02868401CCD
:1004C000286070BD70B5174915480860FF20091DE8
:1004D00008604FF08074606C816913488847206A17
:1004E0000D4E1021826B30469047206A0121826BAD
:1004F00030469047206A0A23012245691021304680
:10050000A847206A0A23012244693046A446BDE870
:100510007040114660470000005002401C0000205F
:100520004B434F4C20550240050800F010B50446DF
:10053000C1B24FF08070406902682F489047204652
:1005400010BD70B54FF080762B4C70690121C26CE4
:1005500020469047054670692946026D204690471F
:10056000E80604D470BD7069816B20468847204638
:1005700002F030F80028F6D170BD70B54FF08074ED
:100580000546606C81691D488847606C81691C481C
:100590008847206A816E4FF001108847206A816E7B
:1005A00018488847206A0321426D17489047606CBD
:1005B000006E8047014660692A460F4D46696023F8
:1005C0002846B0476069416E28468847A06C01689C
:1005D0001620884760691021426C28469047AFF288
:1005E0009D01284601F0FCFFA06CE0218269BDE876
:1005F000704016201047000000D00040011800F0A5
:10060000010800F001040100005000402348416847
:10061000491C4160C82903D30021416001210170B8
:100620004FF080700121C06B02681D48104770B503
:100630004FF08074606C81691A488847E06B184DF0
:100640002221C26828469047606C006E8047C8210E
:10065000B0FBF1F2E06BFF21836B28469847A06C5A
:10066000016823208847E06B0121C26C284690472F
:10067000AFF26702FF21284601F078FFA06C4068C6
:100680008047E06BFF21426828469047A06CF0212C
:100690008269BDE870405620104700002400002009
:1006A00000000340000400F02DE9F0414FF0807499
:1006B000606C416E4FF490108847606C81694148CE
:1006C0008847606C81693F48401C8847606C81693D
:1006D0003D488847606C81693B48401C8847206AD8
:1006E000816E41F605008847206A816E3748884749
:1006F000206A816E36488847206A4021426C4FF05C
:1007000040209047206A334D1021426C2846904784
:10071000206A2021426C28469047206B2E4D0222F1
:100720004368802128469847206B2C4E022243685C
:10073000802130469847206B4CF250373A46836808
:10074000802128469847206B3A46802183683046AE
:100750009847206B01220C21C36A28469847206BDA
:1007600001220421C36A30469847206B8021026928
:1007700028469047206B8021026930469047206BC5
:1007800046F67812822103683046BDE8F0411847EA
:1007900010EE100A1249884202DD9FED120A06E0AF
:1007A00010EE100A1049884201DA9FED100A4FF04E
:1007B00080708221006BBCEEC00A036810EE102A24
:1007C00006481847004000F0000800F0041001003F
:1007D00004140100005000400080024000900240DC
:1007E00000A00C4700A00C4700709446007094468F
:1007F00010B54FF08074606C81694F488847206A5B
:100800003021C26B4FF040209047606C81694A48AC
:10081000001D8847206A0C21C26BBDE81040474884
:10082000104770B54FF080744FF0402588B1012813
:1008300013D002281BD1206A0022036820212846F9
:100840009847206A002203682846BDE870401021BE
:100850001847206A20220368F0E7206A002220213E
:10086000036828469847206A10220368ECE770BDA9
:1008700070B5324D4FF0807488B1012819D002282C
:100880001BD1206A00220368042128469847206A69
:10089000002203682846BDE8704008211847206AF6
:1008A00000220421036828469847206A082203682A
:1008B000F0E7206A04220368E6E770BD70B50C46D5
:1008C000061E01DD002000E00120FFF7AAFF002C3A
:1008D00001DD002000E00120FFF7CAFF002E01DD4E
:1008E000324600E07242002C00DC644249F640458A
:1008F000AA4200DD2A46AC4200DD2C464FF080754E
:100900000F4E286B8221036830469847286B224699
:10091000832103683046BDE8704018474FF080706F
:100920008021006B4269064810474FF0807080219B
:10093000006B026902481047000800F000400240C6
:100940000080024000237249012802D0022803D00F
:1009500004E00A680B6001E04A684B60104670478B
:1009600070B56C4E01212DED028B304601F0A4FDD7
:100970000546674CC007B7EE008AFFEE008A0DD02F
:100980000121304601F061FD0221304601F09BFD5E
:10099000B0B1C4ED048A2068401E2060A8071ED5AF
:1009A0000221304601F051FD0121304601F08BFD5E
:1009B00001280AD00121304601F085FD50B10EE03A
:1009C00084ED048A2068401CE7E784ED048A2068EF
:1009D000401C03E0C4ED048A2068401E20606807C4
:1009E0000DD50421304601F030FD0821304601F0DC
:1009F0006AFDB8B1C4ED058A6068401E60602807D2
:100A00000DD50821304601F020FD0421304601F0CB
:100A10005AFD60B184ED058A6068401C6060BDECE1
:100A2000028B70BD84ED058A6068401CE6E7C4ED6A
:100A3000058A6068401EF1E770B54FF08074606C05
:100A4000816935488847206A324E0121826B3046E1
:100A50009047206A0221826B30469047206A042129
:100A6000826B30469047206A0821826B304690475F
:100A7000206A0C230122456911463046A847206AA6
:100A80000C230122456902213046A847206A0C2325
:100A90000122456904213046A847206A0C2301221F
:100AA000456908213046A847206A04220121C3680D
:100AB00030469847206A04220221C368304698478E
:100AC000206A04221146C36830469847206A0422EF
:100AD0000821C368304698470121304601F0B8FC30
:100AE0000221304601F0B4FC0421304601F0B0FC94
:100AF0000821304601F0ACFCAFF29B11304601F00A
:100B0000AFFCA06C00218269BDE870401320104743
:100B10006C06002000700040030800F010B54FF094
:100B20008074606C8169F6488847206A4FF04024E1
:100B30000C21C26B2046904704221146204601F04A
:100B4000C5FC20460822BDE81040114601F0BEBC9D
:100B500010B504224FF040241146204601F0B6FCA7
:100B600008221146204601F0B1FC0022082120464F
:100B700001F0ACFC20460022BDE81040042101F049
:100B8000A5BC70B504464FF0402600220421304633
:100B900001F09CFC5FF0000504F08000802815D077
:100BA00000220821304601F091FC6006040E042268
:100BB0001146304601F08AFC00220421304601F043
:100BC00085FC6D1CEDB2082DE6D370BD0822E8E768
:100BD00010B5C4B241B1FFF7BBFF7820FFF7D1FFDA
:100BE00000F01DFA402007E0FFF7B2FF7820FFF782
:100BF000C8FF00F014FA0020FFF7C3FF00F00FFA5F
:100C00002046FFF7BEFF00F00AFABDE8104000F0F2
:100C1000F2B970B506460024002104F1B000FFF7D8
:100C2000D7FF00210846FFF7D3FF00211020FFF770
:100C3000CFFF002501213046FFF7CAFF6D1CEDB242
:100C4000802DF7D3641CE4B2082CE5D370BD0028D6
:100C500006D041F663021146491EFDD1401EFAD16D
:100C6000704704E00021491CC9B27B29FBD3401E18
:100C7000F8D2704710B50A460446002102F1B000D0
:100C8000FFF7A6FF102040EA14100021FFF7A0FF95
:100C900004F00F00BDE81040002199E710B50021D5
:100CA0008D20FFF795FF00211420FFF791FF002111
:100CB000BDE81040AF208BE710B500218D20FFF775
:100CC00087FF00211020FFF783FF0021BDE81040BF
:100CD000AE207DE770B50024002104F1B000FFF7DD
:100CE00077FF00210846FFF773FF00211020FFF770
:100CF0006FFF002501210020FFF76AFF6D1CEDB298
:100D0000802DF7D3641CE4B2082CE5D370BD70B518
:100D10000024002104F1B000FFF75AFF002108462B
:100D2000FFF756FF00211020FFF752FF0025012199
:100D30000846FFF74DFF6D1CEDB2802DF7D3641C04
:100D4000E4B2082CE5D370BD2DE9F041203A00242F
:100D50000D468046D6B27F2803D900208D1C8046E0
:100D6000EDB2102B294610D0FFF784FF654906EB42
:100D7000460001EB40050121285DFFF729FF641CB7
:100D8000E4B2062CF7D3BDE8F081FFF773FF5E4FA6
:100D900004EB06100121385CFFF71AFF641CE4B273
:100DA000082CF5D36D1CE9B24046FFF763FF002421
:100DB00004EB061038440121007AFFF709FF641C98
:100DC000E4B2082CF4D3DEE70246012000E05043F1
:100DD000491EC9B2FBD270472DE9F05F0026DDF84D
:100DE00028901D4692468B46804634464FEA590766
:100DF00023E0281B401EC1B20A20FFF7E5FFBAFB23
:100E0000F0F00A21B0FBF1F201FB120026B9691ED5
:100E10008C4201DA38B101263030C2B207FB0480BF
:100E2000C0B24B4604E007FB0480C0B24B46202210
:100E30005946FFF789FF641CE4B2AC42D9D3BDE840
:100E4000F09F2DE9F041984617460E4604460025CE
:100E50000DE0434631462046FFF776FF0834E4B202
:100E6000782C02D90024B61CF6B26D1CEDB27A5D66
:100E7000002AEED187E72DE9F04115460E460746D8
:100E8000FFF7F8FE2148002400EB85150121285DBD
:100E9000FFF79EFE641CE4B2102CF7D3761CF1B26F
:100EA0003846FFF7E7FE00242819012190F82000BA
:100EB000FFF78EFE641CE4B2102CF5D363E72DE936
:100EC000F04798461746824600260C46DDF82090EB
:100ED00012E021465046FFF7CDFE554608E000BF20
:100EE00019F806000121761CFFF772FE6D1CEDB2A9
:100EF000BD42F5D3641CE4B24445EAD3BDE8F087B3
:100F0000000800F0562600007E2800002C0000207B
:100F100010B5FFF703FEC820FFF73CFA0021AE2012
:100F2000FFF756FE00210846FFF752FE0021102071
:100F3000FFF74EFE00214020FFF74AFE0021B020BF
:100F4000FFF746FE00218120FFF742FE0021FF202F
:100F5000FFF73EFE0021A120FFF73AFE0021A62068
:100F6000FFF736FE0021A820FFF732FE00213F20C8
:100F7000FFF72EFE0021C820FFF72AFE0021D32014
:100F8000FFF726FE00210846FFF722FE0021D520AC
:100F9000FFF71EFE00218020FFF71AFE0021D82057
:100FA000FFF716FE00210520FFF712FE0021D920D1
:100FB000FFF70EFE0021F120FFF70AFE0021DA20E4
:100FC000FFF706FE00211220FFF702FE0021DB20C2
:100FD000FFF7FEFD00213020FFF7FAFD00218D20F4
:100FE000FFF7F6FD00211420FFF7F2FD0021BDE818
:100FF0001040AF20ECE510B504224FF0402411461C
:10100000204601F063FA00220821204601F05EFA32
:1010100020460822BDE81040114601F057BA10B52D
:1010200004224FF040241146204601F04FFA20469A
:101030000022BDE81040042101F048BA2DE9F0413A
:101040004FF08074606C8169FE488847606C8169EC
:10105000FC48001F8847606C8169FA48801E8847F9
:10106000206AF94D0121826B28469047206A0221AF
:10107000826B28469047206A4FF040268021826B81
:1010800030469047206AF14F1021826B38469047D6
:10109000206A2021826B38469047206A0A23012269
:1010A000D0F814C011462846E047206A0A230122DE
:1010B000D0F814C002212846E047206A0A23012202
:1010C000456980213046A847206A0A2301224569E4
:1010D00010213846A847206A0A230122446938466D
:1010E000A446BDE8F04120216047D948B3EE040A88
:1010F00080ED040A9FEDD70A80ED050A80ED060A0F
:1011000080ED020A80ED030A80ED070A80ED080AEF
:10111000704710B5FFF792FFBDE81040E5E72DE9F5
:10112000F0414FF080742DED028B0121206AC64EF4
:10113000C26A30469047C54D4FF04027012817D16D
:10114000206A0221C26A3046904788B9206A80210D
:10115000C26A3846904758B9206A1021C26A2846A8
:10116000904728B9206A2021C26A2846904738B1A2
:10117000206A0121C26A30469047012806D01EE04D
:10118000B8EE080ABDEC028BBDE8F081206A0221AE
:10119000C26A30469047022811D1206A8021C26A73
:1011A0003846904758B9206A1021C26A28469047AD
:1011B00028B9206A2021C26A2846904730B1206AA7
:1011C0000121C26A3046904718B11BE0B8EE000A10
:1011D000D8E7206A0221C26A30469047022811D11E
:1011E000206A8021C26A3846904758B9206A102187
:1011F000C26A2846904728B9206A2021C26A284638
:10120000904730B1206A0121C26A3046904718B138
:101210001CE0BFEE080AB5E7206A0221C26A304628
:101220009047022812D1206A8021C26A384690472E
:1012300080280BD1206A1021C26A2846904728B91D
:10124000206A2021C26A2846904738B1206A0121CD
:10125000C26A30469047012803D01CE0BFEE000A66
:1012600090E7206A0221C26A30469047022812D1D4
:10127000206A8021C26A3846904780280BD1206AB4
:101280001021C26A2846904728B9206A2021C26AE4
:101290002846904740B1206A0121C26A30469047F3
:1012A0009FED6C8A18B11BE0B9EE000A6AE7206A6C
:1012B0000221C26A3046904790B9206A8021C26AF2
:1012C0003846904780280BD1206A1021C26A2846F0
:1012D000904728B9206A2021C26A2846904730B139
:1012E000206A0121C26A3046904718B11CE0B0EE76
:1012F000480A47E7206A0221C26A3046904798B9F7
:10130000206A8021C26A3846904780280CD1206A22
:101310001021C26A28469047102805D1206A202152
:10132000C26A2846904730B1206A0121C26A30461D
:10133000904718B11BE0B7EE000A23E7206A0221AC
:10134000C26A3046904790B9206A8021C26A384606
:10135000904760B9206A1021C26A28469047102839
:1013600005D1206A2021C26A2846904730B1206A00
:101370000121C26A3046904718B11CE0B7EE080A56
:1013800000E7206A0221C26A3046904798B9206A75
:101390008021C26A3846904768B9206A1021C26A23
:1013A00028469047102806D1206A2021C26A284684
:1013B0009047202806D0206A0121C26A3046904713
:1013C00018B11BE0B0EE000ADCE6206A0221C26A16
:1013D0003046904790B9206A8021C26A38469047CB
:1013E00060B9206A1021C26A2846904730B9206A45
:1013F0002021C26A28469047202808D0206A01216F
:10140000C26A30469047F1EE008A18B128E0B0EE8B
:10141000080AB7E6206A0221C26A30469047F8B946
:10142000206A8021C26A38469047802818D1206AF5
:101430001021C26A28469047102811D1206A202125
:10144000C26A09E0040800F0004002400060004069
:10145000840600200000000028469047202823D062
:10146000206A0121C26A3046904700287FF43FAFCE
:10147000206A0221C26A304690470028F6D1206ACD
:101480008021C26A384690478028EFD1206A102117
:10149000C26A284690470028E8D1206A2021C26A03
:1014A000284690472028E1D1B0EE680A6AE610B5D8
:1014B000FFF735FEF2EE040A0F4860EE200AC0ED99
:1014C000020A90ED070A30EE201A80ED071A90ED1F
:1014D000040AD0ED051A20EE200A01EE810A90EDF3
:1014E000031AD0ED061A30EEC11A01EE810A80ED22
:1014F000080AC0ED030A10BD840600206348644951
:1015000002894A8082898A80008AC880704760493F
:1015100010B40B785D4A002453B1012B0FD0022B7D
:101520001CD0032B1ED0042B20D0052B22D008E08A
:10153000B32806D101230B70106010BC7047B3288C
:1015400008D00C705FF0000042F82040401C0628D4
:10155000FADBF2E702230B705060EEE703230B7017
:101560009060EAE704230B70D060E6E705230B7078
:101570001061E2E75B280C7006D0002042F82040A2
:10158000401C0628FADBD8E7506110BCB6E72DE90D
:10159000F041404E074600244FF08075B321686942
:1015A000026830469047641CE4B2022CF6D3002453
:1015B0006869395D026830469047641CE4B2032CC8
:1015C000F6D368695B2102683046BDE8F0411047F8
:1015D00070B54FF080762F4C70690121C26C2046A7
:1015E0009047054670692946026D20469047E806F7
:1015F00009D470BD7069816B20468847C0B2FFF77F
:1016000086FFFFF77BFF204600F0E4FF0028F1D1C2
:1016100070BD70B54FF080740546606C81691E48DE
:101620008847606C81691D488847206A816E1C4824
:101630008847206A816E1B488847206AC021426D16
:1016400019489047606C006E8047014660692A46E1
:10165000104D466960232846B0476069416E2846B0
:101660008847A06C01684B20884760691021426C54
:1016700028469047AFF2A701284600F0B1FFA06CC2
:1016800060218269BDE870404B201047A806002009
:10169000AC03002000F00040031800F0020800F046
:1016A00001180200011C02000060004010B5FF4854
:1016B0002DED028BB0F900009FEDFD8AFD4C1E3828
:1016C000002804DA00F0A2FB38EE400A04E005DD51
:1016D00000F09CFB30EE080A84ED070AF649E06949
:1016E000884202DD9FEDF50A07E0F549884202DBFA
:1016F00094ED070A03E09FEDF30A84ED070A4FF02B
:101700008070BCEEC00A006B822110EE102A0368C4
:10171000ED48BDEC028BBDE8104018472DE9F05FA5
:10172000EA4CEB4FDFF8AC93E24DE74800262DED95
:10173000048B4FF0807146F67812B3EE0E9A49F2A0
:10174000880A9FEDE58ADFEDE58A2368092B7DD0C5
:1017500012DCDFF858C39FEDE20ADFF888B3BCF96A
:1017600000C003F101030A2B58D2DFE803F0365B17
:101770008898A5B0C6E5F3F14FF448780E2B76D0E3
:1017800015DC0A2B74D00B2B73D00C2B72D00D2BC5
:1017900044D1096B44F620620B6882219847606946
:1017A00040F26C71884276D90E20666165E00F2B9D
:1017B00072D0102B71D0112B70D0632B2ED1096BEE
:1017C0000B68822198476069B0F5967F24D8A96894
:1017D0000844606187ED009A89E0BCF1000F15D0E4
:1017E00087ED000A89ED000AFFF760FF00F0DAFAE2
:1017F000BDEEC00A85ED080A00F0E6FABDEEC00AAB
:1018000010EE101A6962286AFFF758F8BBF800005A
:101810003A2803D1632030E066612660BDEC048B7A
:10182000BDE8F09F096B52460B68822198476069BA
:1018300040F6921188421ED8A968BBEE0E0A0844F1
:10184000606187ED000ABBEE0A0AF7E09CE000BF8A
:1018500000F0A8FABDEEC00A85ED080A00F0B4FA5F
:10186000BDEEC00A10EE101A6962286AFBE0CAE0F9
:1018700098E0A5E0B5E0012066612060CEE7096B45
:101880000B6882219847606940F68C2188426ED9A6
:1018900002206661F1E792E0C0E0D5E0ECE00021D3
:1018A0000846FFF70BF86068B0F5C87F02D2401C0D
:1018B0006060B3E7032091E0096B0B6882219847D1
:1018C0006069B0F5C86F7AD904206661D5E7096B05
:1018D00048F6A0420B6882219847606940F6C4111F
:1018E000884207D8A96808446061C7ED008A89ED7D
:1018F000009AADE705206661BFE7BCF1000F15D087
:1019000087ED000A89ED000AFFF7D0FE00F04AFAE1
:10191000BDEEC00A85ED080A00F056FABDEEC00A19
:1019200010EE101A6962286AFEF7C8FFBBF80000C3
:101930003B28A3D10620A0E7096B0B6882219847BA
:10194000606940F25231884252D90720666194E7BB
:101950000EE0FFE7096B52460B68822198476069E9
:1019600040F2DC51884243D90820666185E73FE0B8
:10197000096B0B6882219847606940F6AC51884238
:1019800036D90920666178E7096B44F638220B687E
:1019900082219847606940F25231884228D90A2052
:1019A00066616AE7096B4FF4FA420B688221984737
:1019B0006069B0F57A7F4ED90B2066615DE74AE039
:1019C000096B0B688221984700210846FEF776FFD5
:1019D0006068B0F5C87FFFF46AAF0C20C4E9000668
:1019E0001CE7096B0B68822198476069404507D85E
:1019F000A9680844606187ED008A89ED008A27E7BD
:101A00000D20666139E7096B0B6882219847606990
:101A1000B0F52F7F1FD90F2066612EE7096B524664
:101A20000B68822198476069B0F5486F09D8A968AA
:101A30009FED2D0A08446061C7ED008A89ED000A18
:101A400006E71020666118E7096B0B68822198474A
:101A5000606940450DD8A96808446061C7ED008AF7
:101A6000C9ED008AF4E6BDEC048BBDE8F05FFEF73B
:101A700025BF1120666100E700210846F3E72DE944
:101A8000F0414FF080782DED048B08221146D8F8F4
:101A900020000368154898470120FEF753FF054CC6
:101AA00020600220FEF74EFF054621E0AE03002035
:101AB00000F0D246C006002000A00C4700A00C4752
:101AC000007094460070944600900240B4030020D9
:101AD000EC0600200C070020000020C2000020427D
:101AE0000000A042B003002000000C420050024061
:101AF00060602668002E01DD304600E07042002D57
:101B000001DD294600E069420844A060E0683044F5
:101B100000EE100AE0602169F8EEC00A4F199FED4F
:101B2000418A276180EE880A10EE100A00F06EFBF1
:101B30009FED3D9B53EC192B00F0F6FA00F079FB7A
:101B400000EE107A6061F8EEC00A80EE880A10EEAE
:101B5000100A00F05BFB53EC192B00F0E5FA00F0E3
:101B600068FB00EE106ADFED320A9FED321AB8EE24
:101B7000C00AA061304820EE200AC0EE011A00EE33
:101B8000105AB8EEC00A20EE200AC0EE010AC0EDDD
:101B9000031AC0ED040A08308078012801D1FFF74C
:101BA000BDFDD8F83C00012102682448BDEC048B3F
:101BB000BDE8F041104770B54FF08074606C8169EA
:101BC0001F488847E06B1D4D2221C2682846904778
:101BD000606C006E8047C821B0FBF1F2E06BFF2122
:101BE000836B28469847A06C016856208847E06BB5
:101BF0000121C26C28469047AFF27D12FF21284692
:101C000000F0B4FCA06C40688047E06BFF214268A4
:101C100028469047A06C40218269BDE8704056205C
:101C2000104700000000024416D9CEF753E32C40C1
:101C300000606A4700802245B40300200040034052
:101C4000040400F09FED790A794880ED000A80EDE8
:101C5000010A80ED020A80ED030A80ED070ADFED3C
:101C6000750AB2EE041AC0ED040A80ED051A80ED83
:101C7000060A203080ED000A80ED010A80ED020A9C
:101C800080ED030A80ED070AC0ED040A80ED051A15
:101C900080ED060A203080ED000A80ED010A80ED1B
:101CA000020A80ED030A80ED070ADFED630AB3EE56
:101CB0000E1AC0ED040A80ED050A80ED060A2030F8
:101CC00080ED001A80ED010A80ED020A80ED030A22
:101CD00080ED070AC0ED040A80ED050A9FED570A62
:101CE00080ED060A704790ED000A704790ED010AFA
:101CF0007047103080EC030A704780ED000A70478F
:101D0000D0ED000A30EEC00A10EE101A80ED020A83
:101D1000B1F17C5F08DA10EE101AB1F13F4F03D237
:101D20009FED420A80ED020A90ED070AD0ED020A0B
:101D300030EE201A80ED071A90ED040AD0ED051A56
:101D400020EE200A01EE810A90ED031AD0ED061A6A
:101D500030EEC11A01EE810A80ED010AC0ED030ADE
:101D60007047D0ED000A70EEC00AC0ED020A90ED97
:101D7000070A30EE201A80ED071A90ED040AD0ED24
:101D8000051A20EE200A01EE810A90ED031AD0ED2B
:101D9000061A30EEC11A01EE810A80ED010AC0ED8B
:101DA000030A70472648DFED270A9FED271A90EDBA
:101DB000000A2648B8EEC00A60EE200A80EE810ACA
:101DC00080ED000A1A489BE71D48DFED1E0A9FEDD3
:101DD0001E1A90ED010A1D48B8EEC00A60EE200AF6
:101DE00080EE810A80ED010A1148203088E710B5A5
:101DF000FFF795F9F2EE040A144820EE200A80ED70
:101E0000020A0B48BDE810404030AAE71048B0F97C
:101E1000000000EB8000400000EE100A0B48B8EE16
:101E2000C00A80ED020A024860309AE70000000014
:101E3000EC0600200000A042000048430000484299
:101E4000C006002000606A4700802245CC030020C5
:101E5000AE0300203C4880473C480047FEE7FEE7D1
:101E6000FEE7FEE7FEE7FEE7FEE7FEE7FEE7FEE74A
:101E7000FEE7FEE7FEE7FEE7FEE7FEE7FEE7FEE73A
:101E8000FEE7FEE7FEE7FEE7FEE7FEE7FEE7FEE72A
:101E9000FEE7FEE7FEE7FEE7FEE7FEE7FEE7FEE71A
:101EA000FEE7FEE7FEE7FEE7FEE7FEE7FEE7FEE70A
:101EB000FEE7FEE7FEE7FEE7FEE7FEE7FEE7FEE7FA
:101EC000FEE7FEE7FEE7FEE7FEE7FEE7FEE7FEE7EA
:101ED000FEE7FEE7FEE7FEE7FEE7FEE7FEE7FEE7DA
:101EE000FEE7FEE7FEE7FEE7FEE7FEE7FEE7FEE7CA
:101EF000FEE7FEE7FEE7FEE7FEE7FEE7FEE7FEE7BA
:101F0000FEE7FEE7FEE7FEE7FEE7FEE7FEE7FEE7A9
:101F1000FEE7FEE7FEE7FEE7FEE7FEE7FEE7FEE799
:101F2000FEE7FEE7FEE7FEE7FEE7FEE7FEE7FEE789
:101F3000FEE7FEE7FEE7FEE7FEE7FEE7FEE7FEE779
:101F4000FEE7FEE7FEE70000652000006D020000EE
:101F500003465B48821041B1012905D0022947D0D0
:101F6000032901D147F230507047172BFCD2DFE82C
:101F700003F00D0F121417193F1C1F222426282AC4
:101F80002D2F323436383A0C3C00EDE74D4870477F
:101F90004FF4E11070474C4870474FF416107047EB
:101FA0004A4870474FF4611070474FF47A107047F9
:101FB0004FF4960070474648704746487047464879
:101FC0007047464870474FF4E100704744487047F7
:101FD0004FF4FA00704743487047434870474348FE
:101FE000704743487047434870474FF47A00704742
:101FF0001046704770B54048056E066F3F48404C2C
:10200000002E17DA310505D5C6F30211C5F383108A
:10201000FFF79EFF206068020BD5300503D5C6F39D
:10202000C550216816E0C6F3C55017E0B1FBF0F0CB
:10203000206070BD290505D5C5F30111C5F38410D5
:10204000FFF786FF20606802F3D5280504D52168D4
:10205000C5F3C350401CE9E7C5F3C3504000801CE2
:102060002168E3E72748016841F4700101602248D4
:10207000254901672549016625490166254901670A
:1020800001214FF47A72491C9142FCD32249016626
:10209000224901670221491C9142FCD32049016673
:1020A000016D4906FCD51F4901664FF0C0710167FB
:1020B00042F210710220401C8842FCD3704700009D
:1020C0000024F40040420F0080841E00999E3600D8
:1020D000404B4C0000204E00808D5B0000C05D0036
:1020E00000127A0080969800001BB7000080BB00A9
:1020F000C0E8CE00647ADA0000E00F400084D71711
:10210000D803002088ED00E010288007D13A8E0720
:10211000422D9E0100288001420D9E010008800191
:10212000420DDE014205DE012DE9FE4F81EA030486
:1021300004F0004421F0004100944FF0000B23F024
:10214000004350EA01045ED052EA03045BD0C3F3BB
:102150000A54C1F30A552C44A4F2F3340194A0FBB1
:102160000254C1F3130141F48011C3F3130343F488
:10217000801301FB024400FB034E840A970A44EAE1
:10218000815447EA8357A4FB076802958D0A05FB33
:1021900007854FEA932C04FB0C542705029D4FEA58
:1021A000065847EA1637B5EB08056EEB070C870EA5
:1021B000920E47EA811742EA8312A7FB0201B6EBAF
:1021C0000B0164EB00042B0D43EA0C335E1844EB67
:1021D0001C50DA465146E7FB0201C5F313044FEAEF
:1021E0000B3343EA14534FEA0432019C43EA0603DB
:1021F000A4F10C040294009CCDE900B400F08AF82C
:1022000003B0BDE8F08F00200146F9E700F000427E
:1022100030F000400AD0C10D01F56071C0F3160026
:1022200042EA0151C20840071143704700200146AD
:10223000704701F0004330B421F0004150EA010240
:1022400006D00A0DA2F56072C1F31301002A02DC68
:1022500030BC00207047440F44EAC104C100E018BC
:1022600030BC00EBC25000F00FB8202A04DB203A4B
:1022700000FA02F1002070479140C2F1200320FAD9
:1022800003F31943904070470029A8BF7047401CD2
:10229000490008BF20F00100704710B4B0FA80FC7C
:1022A00000FA0CF050EA010404BF10BC704749B1B9
:1022B000CCF1200421FA04F411FA0CF118BF012129
:1022C00021430843A3EB0C01CB1D4FEA00614FEA09
:1022D000102042BF002010BC704700EBC3501044D8
:1022E0000029A4BF10BC7047401C490008BF20F063
:1022F000010010BC704710B5141E73F1000408DA19
:10230000401C41F1000192185B411A4301D120F0B9
:10231000010010BD2DE9F04D92469B4611B1B1FA76
:1023200081F202E0B0FA80F220329046FFF79DFF82
:1023300004460F4640EA0A0041EA0B0153465A465A
:10234000084313D0114653EA010019D0C8F14002E6
:10235000504600F03FF805460E4650465946424664
:10236000FFF783FF084305D0012004E020463946EB
:10237000BDE8F08D0020054346EAE0762C43374364
:102380000A986305E40AA0EB08000022FD0A44EA6B
:1023900047540A3002D500200146E9E7010510192B
:1023A0006941DDE9084500196941BDE8F04DA2E742
:1023B000064C074D06E0E06840F0010394E8070092
:1023C00098471034AC42F6D3FDF754FFAC3200000E
:1023D000CC320000202A04DB203A21FA02F000214E
:1023E000704721FA02F3D040C2F120029140084325
:1023F0001946704770B58C1810F8015B15F007038B
:1024000001D110F8013B2A1106D110F8012B03E08D
:1024100010F8016B01F8016B5B1EF9D12B0705D495
:102420000023521E0DD401F8013BFAE710F8013BDE
:10243000CB1A921C03E013F8015B01F8015B521EFA
:10244000F9D5A142D8D3002070BDC0F81C14704744
:1024500000F58262D0F81004084310607047000055
:10246000124A10B5104B12684FF0180C104C224055
:10247000A2F18054B4F5202408BF0E4B002253F87B
:102480003240844203D103EBC200446803E0521C93
:102490006245F4D30024204600F04EF82046BDE803
:1024A000104000F017B80000702E000000E00F4050
:1024B0000000FF70302F0000002914BFD0F818046E
:1024C000D0F81404704750F82100704740F82120DC
:1024D000704700001649042804BF086840F48030A3
:1024E00018D0052804BF086840F4003012D0062830
:1024F00012D00F2815D0102838BF7047103800F0C0
:102500001F01012202FA01F142090A4850F8220093
:102510000160704708607047086840F480200860D8
:1025200070474FF0E020016941F0020101617047FE
:1025300024ED00E05C32000030B40A4D2A680A4BFA
:102540009A421CBFD5F800C0002207D05CF8224098
:1025500043F82240521C9B2AF8D32B6043F82010EA
:1025600030BC704708ED00E00004002070B5164B49
:10257000DFF850C00C241B68144D2B40A3F180558C
:10258000B5F5202504BFDFF848C008240023002C3F
:102590000ED95CF83350854207D10CEBC300B1F57E
:1025A0007F4F446808BF641C03E05B1CA342F0D368
:1025B000002411462046FFF7BFFF2046BDE87040CB
:1025C000FFF788BF8030000000E00F400000FF7080
:1025D000E03000008069012121EA101070470000FE
:1025E000124A10B5104B12684FF0080C104C2240E4
:1025F000A2F18054B4F5202408BF0E4B002253F8FA
:102600003240844203D103EBC200446803E0521C11
:102610006245F4D300242046FFF78EFF2046BDE834
:102620001040FFF757BF00002031000000E00F40CE
:102630000000FF706031000002E008C8121F08C1EE
:10264000002AFAD170477047002001E001C1121F33
:10265000002AFBD170470000000000000000002F9E
:10266000000000000700070000147F147F140024FE
:102670002A7F2A120062640813230036495522502B
:1026800000000503000000001C2241000000412260
:102690001C000014083E08140008083E080800004A
:1026A00000A0600000080808080800006060000042
:1026B000002010080402003E5149453E0000427FC0
:1026C0004000004261514946002141454B3100180C
:1026D00014127F10002745454539003C4A494930CE
:1026E0000001710905030036494949360006494988
:1026F000291E000036360000000056360000000893
:10270000142241000014141414140000412214086F
:1027100000020151090600324959513E007C121154
:10272000127C007F49494936003E41414122007FE9
:102730004141221C007F49494941007F09090901A3
:10274000003E4149497A007F0808087F0000417F28
:102750004100002040413F01007F08142241007FDA
:1027600040404040007F020C027F007F0408107F41
:10277000003E4141413E007F09090906003E4151AA
:10278000215E007F09192946004649494931000167
:10279000017F0101003F4040403F001F2040201FBB
:1027A000003F4038403F006314081463000708707E
:1027B000080700615149454300007F414100005531
:1027C0002A552A55000041417F00000402010204FD
:1027D00000404040404000000102040000205454EA
:1027E0005478007F4844443800384444442000383A
:1027F0004444487F00385454541800087E090102AC
:102800000018A4A4A47C007F080404780000447D80
:102810004000004080847D00007F102844000000BC
:10282000417F4000007C04180478007C0804047890
:1028300000384444443800FC24242418001824247C
:1028400018FC007C08040408004854545420000478
:102850003F444020003C4040207C001C2040201C85
:10286000003C4030403C004428102844001CA0A0FC
:10287000A07C004464544C44141414141414000038
:102880000000000000000000000000000000000048
:1028900000F80000000000000033300000000010CD
:1028A0000C06100C0600000000000000000040C0F4
:1028B0007840C0784000043F04043F0404000070E6
:1028C00088FC08300000001820FF211E0000F008DE
:1028D000F000E018000000211C031E211E0000F083
:1028E0000888700000001E212324192721101016CB
:1028F0000E000000000000000000000000000000CA
:1029000000E0180402000000000718204000000248
:102910000418E000000000402018070000004040BC
:1029200080F0804040000202010F0102020000001E
:1029300000F0000000000101011F01010100000082
:1029400000000000000080B07000000000000000E7
:102950000000000000000001010101010101000070
:102960000000000000000030300000000000000007
:10297000000080601804006018060100000000E0FC
:1029800010080810E000000F102020100F000010A9
:1029900010F8000000000020203F20200000007000
:1029A00008080888700000302824222130000030F8
:1029B0000888884830000018202020110E000000F0
:1029C000C02010F8000000070424243F240000F871
:1029D0000888880808000019212020110E0000E056
:1029E000108888180000000F112020110E000038F8
:1029F0000808C83808000000003F00000000007010
:102A0000880808887000001C222121221C0000E098
:102A100010080810E0000000312222110F00000011
:102A200000C0C000000000000030300000000000C6
:102A30000080000000000000806000000000000036
:102A400080402010080000010204081020004040CF
:102A50004040404040000404040404040400000812
:102A600010204080000000201008040201000070C7
:102A700048080808F0000000003036010000C030AF
:102A8000C828E810E0000718272423140B000000D2
:102A9000C038E0000000203C23020227382008F85C
:102AA000888888700000203F202020110E00C03050
:102AB000080808083800071820202010080008F827
:102AC00008080810E000203F202020100F0008F820
:102AD0008888E8081000203F20202320180008F8EC
:102AE0008888E8081000203F200003000000C03064
:102AF00008080838000007182020221E020008F8E5
:102B000008000008F808203F210101213F200008AB
:102B100008F8080800000020203F202000000000E6
:102B20000808F8080800C08080807F00000008F8CE
:102B300088C028180800203F20012638200008F807
:102B4000080000000000203F20202020300008F86E
:102B5000F800F8F80800203F003F003F200008F888
:102B600030C00008F808203F200007183F00E010A0
:102B700008080810E0000F10202020100F0008F8AF
:102B800008080808F000203F210101010000E010C2
:102B900008080810E0000F18242438504F0008F8E7
:102BA000888888887000203F2000030C3020007047
:102BB0008808080838000038202121221C00180845
:102BC00008F8080818000000203F2000000008F85E
:102BD00008000008F808001F202020201F000878A7
:102BE000880000C83808000007380E010000F80807
:102BF00000F80008F800033C0700073C0300081831
:102C000068808068180820302C03032C3020083896
:102C1000C800C83808000000203F2000000010084D
:102C20000808C83808002038262120201800000095
:102C300000FE020202000000007F40404000000C45
:102C400030C000000000000000010638C000000293
:102C50000202FE000000004040407F000000000033
:102C60000402020204000000000000000000000056
:102C70000000000000008080808080808080000252
:102C8000020400000000000000000000000000003E
:102C90008080808000000019242222223F2008F832
:102CA000008080000000003F112020110E00000075
:102CB000008080800000000E112020201100000004
:102CC00000808088F800000E112020103F200000B6
:102CD000808080800000001F2222222213000080BA
:102CE00080F0888888180020203F20200000000005
:102CF000808080808000006B94949493600008F83A
:102D0000008080800000203F210000203F200080C4
:102D10009898000000000020203F202000000000C4
:102D200000809898000000C08080807F000008F834
:102D3000000080808000203F24022D302000000809
:102D400008F8000000000020203F202000008080C4
:102D5000808080808000203F20003F20003F8080D6
:102D6000008080800000203F210000203F200000E4
:102D7000808080800000001F202020201F00808095
:102D800000808000000080FFA12020110E000000C4
:102D9000008080808000000E112020A0FF808080B5
:102DA00080008080800020203F2120000100000062
:102DB0008080808080000033242424241900008037
:102DC00080E0808000000000001F20200000808044
:102DD000000000808000001F202020103F20808005
:102DE00080000080808000010E3008060100808095
:102DF0000080008080800F300C030C300F000080BA
:102E00008000808080000020312E0E3120008080E4
:102E100080000080808080818E7018060100008014
:102E20008080808080000021302C22213000000032
:102E30000000807C020200000000003F40400000D3
:102E40000000FF00000000000000FF000000000282
:102E5000027C800000000040403F000000000006AF
:102E60000101020204040000000000000000000054
:102E700000400040100000000080054010000000ED
:102E800000500040110000000090054011000000BB
:102E9000006000401200000000A005401200000089
:102EA000007000401300000000B005401300000057
:102EB000004002401400000000C005401400000063
:102EC000005002402E00000000D005402E000000FF
:102ED000006002402F00000000E005402F000000CD
:102EE000007002403000000000F00540300000009B
:102EF00000D00340460000000000064046000000ED
:102F00000010064047000000002006404800000076
:102F1000003006407F0000000040064080000000B6
:102F20000050064084000000006006408C00000055
:102F3000004000401000000000800540100000002C
:102F400000500040110000000090054011000000FA
:102F5000006000401200000000A0054012000000C8
:102F6000007000401300000000B005401300000096
:102F7000004002401400000000C0054014000000A2
:102F8000005002402E00000000D005402E0000003E
:102F9000006002402F00000000E005402F0000000C
:102FA000007002403000000000F0054030000000DA
:102FB00000D0034043000000000006404300000032
:102FC00000100640440000000020064045000000BC
:102FD0000030064058000000004006405900000044
:102FE000005006405C0000000060064064000000E5
:102FF0000040004000800540005000400090054027
:103000000060004000A005400070004000B0054096
:103010000040024000C005400050024000D0054082
:103020000060024000E005400070024000F00540F2
:1030300000D003400000064000100640001006408B
:1030400000200640002006400030064000300640C8
:103050000040064000400640005006400050064038
:1030600000600640006006400070064000700640A8
:103070000080064000800640009006400090064018
:103080000000034023000000001003402500000062
:103090000020034027000000003003403300000000
:1030A0000040034056000000005003406C00000048
:1030B000006003406E0000000070034070000000DC
:1030C00000C004407200000000D004407400000002
:1030D00000E004407600000000F0044078000000AA
:1030E0000000034023000000001003402500000002
:1030F00000200340270000000030034033000000A0
:10310000004003404F000000005003405100000009
:1031100000000E407200000000100E40740000001D
:1031200000C000401500000000D000401600000064
:1031300000E000403100000000F000404B000000C3
:10314000000001404C000000001001404D00000054
:10315000002001404E000000003001404F00000000
:1031600000C000401500000000D000401600000024
:1031700000E000403100000000F000404800000086
:103180000000014049000000001001404A0000001A
:10319000002001404B000000003001404C000000C6
:1031A0000007000000060000000500000004000009
:1031B0000003000000020000000100000000000009
:1031C0000000000018ED00E01CED00E020ED00E044
:1031D00000E400E004E400E008E400E00CE400E0C7
:1031E00010E400E014E400E018E400E01CE400E077
:1031F00020E400E024E400E028E400E02CE400E027
:1032000030E400E034E400E038E400E03CE400E0D6
:1032100040E400E044E400E048E400E04CE400E086
:1032200050E400E054E400E058E400E05CE400E036
:1032300060E400E064E400E068E400E06CE400E0E6
:1032400070E400E074E400E078E400E07CE400E096
:1032500080E400E084E400E088E400E000E100E0D5
:1032600004E100E008E100E00CE100E010E100E032
:1032700080E100E084E100E088E100E08CE100E032
:1032800090E100E000E200E004E200E008E200E09B
:103290000CE200E010E200E080E200E084E200E006
:1032A00088E200E08CE200E090E200E0CC32000036
:1032B000000000206C060000F423000054340000DD
:1032C0006C06002004030000482600002183803F94
:1032D00000091A0AD7233C3333B33E1BF010012AEE
:1032E000FF050215F01B0F04012AFF0502130F183A
:1032F000094040405F55555575041A5F0C0911216E
:10330000080C11200F094989790909090F201F119B
:103310002FFE02424ACA4A0304134202FE000E1460
:10332000FF40504C4340404F50505C40FF1BF888DA
:10333000012AFF050215F81B1F08012A7F200B1028
:103340009F80E23B808201000916E2A2928A868277
:103350008080041840807F172424A4FEA3221B220F
:10336000CCAA011415080601FF2B0104010511FF69
:103370000202025808101010FF109008C302110832
:10338000080F100444827F01808040432C1028469F
:1033900081A018094040484848C8784F060515489C
:1033A0004840400009150312122222528A063C109E
:1033B0006080BA19040B11C030FB1E404043407FAF
:1033C000061C7F424106094FC02941080B1110D04D
:1033D00030FF30D0121C10101F3D080402019E0D5A
:1033E0001101020408211116FE222222FE0712FEFC
:1033F000828292A29E100880601F0242827F0F117B
:10340000FF402F102C438011000B1490884C57A4C0
:103410002454548C84180801018042221A07441D48
:10342000423E01018AF9E1000D14E4242CB4252662
:1034300024B42C24E404180AFF02011E1212121EE6
:103440004186011A1AFF01012005FF80F0FA0201EE
:04345000FF019200E6
:0400000500001E5584
:00000001FF
