:020000040800F2
:10000000B0050020091E0008E1010008E301000816
:10001000E7010008EB010008EF0100080000000004
:10002000000000000000000000000000F3010008D4
:10003000F501000800000000F7010008F9010008C0
:10004000231E0008231E0008231E0008231E00088C
:10005000231E0008231E000899070008231E00081D
:10006000231E0008231E0008B9070008231E0008ED
:10007000231E0008231E0008231E0008231E00085C
:10008000231E0008231E0008231E0008231E00084C
:10009000231E0008231E0008231E0008B7060008C0
:1000A000231E0008231E0008231E0008231E00082C
:1000B000CF1D0008231E0008E51D0008231E0008B0
:1000C000231E0008231E0008231E0008231E00080C
:1000D000231E0008231E0008231E00081706000820
:1000E000DB070008231E0008231E0008DFF80CD0E1
:1000F00007F06AFB0048004701010008B005002036
:1001000000F06CF900F0D4F94FF4E13000F020FA7F
:1001100003F0A3FC00BF05F0EDFE0028FBD101F0C9
:10012000D3F901F0A1FD01F0E8FD01F0F5F941F688
:100130001F41002001F0AAFA40F2CF2140F2CF7017
:1001400001F076FB01F0F8FA01F01FFB10211A48CC
:1001500002F075F801F0B6FB0EE0184800210268C5
:10016000084600F04DFB00BF1548007E0028FBD07C
:100170000120144948710870124840790028ECD0D9
:100180000F48007E012804D0022806D003280CD195
:1001900007E00DA000F02CFA08E00EA000F028FA0D
:1001A00004E009A000F024FA00E000BF00BF01E075
:1001B00000F0C7FBFCE70000000801402C00002015
:1001C000400100201C0000207374617274636E741F
:1001D000310000007374617274636E743200000049
:1001E000704700BFFEE700BFFEE700BFFEE700BFAD
:1001F000FEE7704770477047704700000CB500205D
:10020000019000906C48006840F480306A490860B2
:1002100000BF6948006800F4003000900198401C5D
:100220000190009818B90198B0F5A06FF1D162481B
:10023000006800F4003010B10120009001E00020BF
:1002400000900098012843D15C48006840F01000FD
:100250005A4908600846006820F003000860084614
:10026000006840F002000860534840685249486006
:100270000846406848600846406840F4806048602E
:100280000846406820F47C1048600846406840F406
:10029000E81048600846006840F08070086000BFC1
:1002A0004548006800F000700028F9D042484068D6
:1002B00020F00300404948600846406840F00200D2
:1002C000486000BF3C48406800F00C000828F9D1A5
:1002D0000CBD10B5FFF792FF10BD10B53648006891
:1002E00040F001003449086008464068344908403D
:1002F0003149486008460068324908402E49086084
:100300000846006820F4802008600846406820F411
:10031000FE0048604FF41F008860FFF7DAFF4FF0DF
:1003200000602949086010BD10B50021002000229E
:10033000214B5B6803F00C0121B1042906D0082988
:1003400028D107E0214B224C236027E01F4B204C93
:10035000236023E0184B5B6803F47010164B5B6856
:1003600003F48032022303EB904022B9194B43433C
:10037000174C23600DE0104B5B6803F4003323B18E
:10038000144B4343124C236003E0104B4343104C87
:10039000236003E00D4B0E4C236000BF00BF064BF3
:1003A0005B68C3F303130C4CE15C094B1B68CB4047
:1003B000074C236010BD00000010024000200240E6
:1003C0000000FFF8FFFFF6FE08ED00E000127A00E3
:1003D0000000002000093D000400002010B56FF06F
:1003E000040001F072FD2E4800682E49B0FBF1F0C8
:1003F0002D4908700846007800EB4001C1EBC010A1
:100400004FF6FF7101EAC0002849088010BD01467F
:10041000254A12784A434FF0E0235A6100229A613C
:100420001A46126942F001021A6100BF4FF0E02241
:10043000106900F001021AB100F48032002AF5D0F0
:100440004FF0E022126922F001024FF0E0231A611E
:1004500000229A6170470146144A12884A434FF0BD
:10046000E0235A6100229A611A46126942F00102A1
:100470001A6100BF4FF0E022106900F001021AB1CA
:1004800000F48032002AF5D04FF0E022126922F009
:1004900001024FF0E0231A6100229A6170470000C8
:1004A0000000002000127A00140000201600002036
:1004B00008B54FF4A06001F0B9FC17208DF80000DA
:1004C00001208DF8030000208DF8010001208DF837
:1004D0000200684601F0AFFC06208DF80000012004
:1004E0008DF8030000208DF8010002208DF8020035
:1004F000684601F0A0FC0A208DF8000001208DF86C
:10050000030000208DF8010003208DF802006846EA
:1005100001F091FC28208DF8000001208DF80300E7
:100520008DF8010000208DF80200684601F083FC80
:1005300027208DF8000000208DF801008DF80200C2
:1005400001208DF80300684601F075FC08BD00002D
:1005500010B586B004460121082002F07FF8012181
:10056000880402F088F84FF48060ADF81400182079
:100570008DF8170003208DF8160005A93E4801F0FC
:10058000B1FD4FF40060ADF8140004208DF81700A1
:1005900005A9394801F0A6FD01940020ADF8080036
:1005A000ADF80A00ADF810000C20ADF80E000020E8
:1005B000ADF80C0001A9314803F005F8012240F222
:1005C00025512E4803F097F801212C4803F087F8B5
:1005D00006B010BD10B504462146284803F0ECF8DB
:1005E00000BF8021254803F055F90028F9D010BD3F
:1005F00010B504460BE000BF4021204803F04AF943
:100600000028F9D014F8011B1C4803F0D5F8207815
:100610000028F0D110BD10B540F22551174803F065
:100620004FF988B1154803F0CBF81549154A1278EF
:10063000885414480078401C124908700846007815
:10064000802801DD0020087010BD10B50EA10C48F7
:1006500006F0AFFC70B10DA1094806F0BCFC10B962
:1006600001200C49087500200649087080210448C3
:1006700006F094FC10BD0000000C01400048004052
:10068000C000002018000020656E640073746F7055
:10069000656E64004001002010B5FE49886801F0D5
:1006A00025F9FC4908600A461168506806F0AEFC5E
:1006B000F849486010BD10B5202001F099FC0028D1
:1006C00069D0F5480068002865D1202001F0A1FC20
:1006D000F2480078012803D0F0488078012804D13E
:1006E000EF4AF049F04805F052FC022001F04FFBC0
:1006F00000B2E8494883042001F049FB00B2E54913
:100700008883FFF7C9FF01F028FA044606F0EDFEE2
:10071000E049C86001F043FA044606F0E6FEDD4910
:1007200008610A1D0C31081D00F00AFFD94948680C
:1007300006F0F4FE84B2D74AD1681069224600F070
:1007400034FFDA480088401C80B2D84908800A2863
:1007500007D100200880D648C06880F40050D449F2
:10076000C860CE488079012815D1D2480088401C45
:1007700080B2D0490880C749C98A88420BD100207D
:10078000CC490880CA48C06880F40050C849C86095
:100790000120C249C87010BD10B50A20FFF75BFEEA
:1007A0000121C54801F031FD012801D1B949087680
:1007B000012001F02EFC10BD10B50A20FFF74BFE02
:1007C0001021BD4801F021FD012802D10220B149CC
:1007D0000876102001F01DFC10BD10B50A20FFF7AF
:1007E0003AFE4FF48051B54801F00FFD012802D1C7
:1007F0000320A84908764FF4805001F00AFC10BD90
:100800002DE9F04F8DB0044689469246AC495046DA
:1008100006F0D2FE02D8AA48824600E05046824640
:10082000A849504606F0BEFE02D8A648824600E01F
:100830005046824699480078012803D097480079AD
:10084000012804D0A0488461C0F8309065E0934846
:100850000079012861D1504606F074FECDE900010F
:1008600008F062F94FF00052984BCDE9020106F012
:100870003CFD054600224FF0804306F0A8FD4FF0F6
:100880006042934BCDE9040106F0A1FD0022914B9B
:10089000CDE9060106F026FDCDE90801204606F067
:1008A00051FE0746DDE9082306F01FFDCDE90A01E8
:1008B00006F05BFE84498861504606F043FE074619
:1008C00008F032F94FF00052804BCDE9000106F0FC
:1008D0000CFD054600224FF0804306F078FD4FF0F6
:1008E00060427B4BCDE9020106F071FD0022794B9D
:1008F000CDE9040106F052FCCDE90801204606F0DE
:1009000021FECDE90601DDE9082306F0EEFCCDE984
:100910000A0106F02AFE6C4908636F49504606F04A
:10092000CDFB834606F00EFE074600226B4B06F019
:1009300035FC054606F019FE564988600DB0BDE845
:10094000F08F10B55348007E01287DD1534840797F
:100950000A287AD2DFE800F079051D456289D8FEC1
:10096000FDFC4E480078012812D14D4854490268D8
:100970000846FFF745FFFFF768FE4648007D01285F
:1009800006D10020454908700120487002204871B6
:1009900027E142484078012811D14048807970B958
:1009A000002211461046FFF72BFF01203B498871BA
:1009B00064203849C8821021404801F042FC374881
:1009C000C07801280CD110213C4801F038FC0020EF
:1009D00032498871C870487001200871032048713D
:1009E000FFE02E48007901280DD12C48807950B9BC
:1009F0003B4A34490846FFF703FF01202749887125
:100A000048202449C8822548C078012805D1002003
:100A100022498871C87004204871E2E01F480079BB
:100A200001280AD11D48807938B92E4A2E492F480D
:100A3000FFF7E6FE0120194988701948006806F0A2
:100A400054FD041E04DB01E0CCE0C9E0204600E0D8
:100A50006042502808D10020104988708871C87001
:100A60000220087105204871BBE00C48007902287B
:100A70000DD10A48807950B900221B490846FFF77A
:100A8000BFFE01200549887196200249C8820348AB
:100A9000C0782DE040010020148121421C0000207C
:100AA0002C0000202800002024000020300000201E
:100AB0000010014032000020000C014000080140FD
:100AC00000007042000070C2600100205839C43F2D
:100AD000A7C6C33F0000F03F0000A04000405540C3
:100AE0000000AA420080C0430000C8C20000A0C1AC
:100AF000012808D10020F7498871C87008710120C9
:100B00004870062048716CE0F2484078012812D104
:100B1000F048807978B9002211461046FFF770FE40
:100B20000120EC4988714FF4FA70EB49C88210211A
:100B3000EA4801F086FBE748C07801280ED1102171
:100B4000E64801F07CFB0020E2498871C87002E0B1
:100B500039E01DE003E048700720487141E0DD48BE
:100B6000407850B90022DE490846FFF749FE0120CF
:100B7000D84988715520D849C882D648C0780128FC
:100B800005D10020D3498871C8700820487128E039
:100B9000D048807950B9D34AD349D148FFF730FEC5
:100BA0000120CC4988719620CB49C882C948C078B9
:100BB000012807D10020C7498871C87001204870FA
:100BC000092048710DE0C3484078012807D1C14889
:100BD000807920B9002211461046FFF711FE00E08F
:100BE00000BFF3E3BC48007E022870D1B9484079C9
:100BF0000D286DD2DFE800F06C071F476D8CAECC7E
:100C0000F8F6F5F4F300B3480078012812D1B7489C
:100C1000B34902680846FFF7F3FDFFF716FDAE483B
:100C2000007D012806D10020AA49087001204870E3
:100C30000220487174E1A7484078012811D1A548E5
:100C4000807970B9002211461046FFF7D9FD0120C6
:100C5000A04988716420A049C88210219F4801F0F2
:100C6000F0FA9C48C07801280CD110219B4801F073
:100C7000E6FA002097498871C87048700120087111
:100C8000032048714CE19348007901280AD191482A
:100C9000807938B9934A96490020FFF7B1FD0120C9
:100CA0008C4988709148006806F01FFC041E01DB27
:100CB000204600E06042282808D10020854988703D
:100CC0008871C870022008710420487128E128E169
:100CD00025E18048007902280DD17E48807950B9FD
:100CE000844A85490846FFF78BFD012079498871C0
:100CF00064207949C8827748C078012807D100204C
:100D000074498871C870032008710520487107E193
:100D10007048007903280AD16E48807938B9774A3B
:100D200075497748FFF76CFD01206A4988706F4864
:100D3000006806F0DAFB041E01DB204600E060429A
:100D400038B90020634988708871C870087106201E
:100D50004871E5E05F48007968B95E48807950B92C
:100D6000644A5F490846FFF74BFD012059498871E5
:100D700064205949C8825748C078012807D100200B
:100D800054498871C8700120487007204871C7E035
:100D900050484078012812D14E48807978B9002215
:100DA00011461046FFF72CFD01204A4988714FF487
:100DB000FA704949C8821021484801F042FA454872
:100DC000C07801280AD11021444801F038FA0020E7
:100DD00040498871C870487008204871A0E091E0CF
:100DE00059E03CE01DE0FFE73A48C07868B939486F
:100DF000807950B93F4A40490846FFF701FD01207C
:100E0000344988713C203449C8823248C07801286E
:100E100006D100202F498871C87048700920487198
:100E20007EE02C48407838B9344A00212E48FFF73C
:100E3000E7FC0120274988702C48006806F055FB24
:100E4000041E01DB204600E06042282806D1002075
:100E5000204988708871C8700A20487160E01D4878
:100E6000C07868B91B48807950B900221C490846EF
:100E7000FFF7C6FC01201749887150201649C88227
:100E80001448C078012805D1002012498871C87023
:100E90000B20487144E00F48807938B9114A124953
:100EA0000F48FFF7ADFC01200A4988700F48006821
:100EB00006F01BFB041E01DB204600E0604240B947
:100EC0000020044988708871C870012048700C2087
:100ED000487125E01C00002040010020000801406E
:100EE0000000C8420080C043000048432C0000209E
:100EF000000048C30000AA420000C8C2000057C357
:100F0000000066C3FE484078012807D1FC4880797C
:100F100020B9002211461046FFF772FC00E000BF26
:100F2000BDE2F848007E0328FAD1F548407915283B
:100F30007ED2DFE800F07D0B234B688EAED5FBF947
:100F4000F8F7F6F5F4F3F2F1F0EFEE00EC48007884
:100F5000012812D1EC48ED4902680846FFF750FC21
:100F6000FFF773FBE748007D012806D10020E44924
:100F7000087001204870022048718FE2E0484078F4
:100F8000012811D1DE48807970B90022114610463F
:100F9000FFF736FC0120DA4988716420D949C882FC
:100FA0001021DB4801F04DF9D548C07801280CD15B
:100FB0001021D74801F043F90020D1498871C87049
:100FC0004870012008710320487167E2CC4800791D
:100FD00001280DD1CA48807950B9CE4ACE49084679
:100FE000FFF70EFC0120C64988714820C549C88218
:100FF000C348C078012805D10020C1498871C87054
:10100000042048714AE2BE48007901280AD1BC4850
:10101000807938B9C14AC249C248FFF7F1FB0120C3
:10102000B7498870B848006806F05FFA041E00E00F
:1010300033E201DB204600E06042502808D1002066
:10104000AF4988708871C870022008710520487106
:1010500024E2AB48007902280DD1A948807950B923
:101060000022AD490846FFF7CBFB0120A449887157
:101070009620A449C882A248C078012808D100203F
:101080009F498871C8700871012048700620487116
:1010900004E29B484078012812D19948807978B9B8
:1010A000002211461046FFF7ABFB012094498871DE
:1010B0004FF4FA709349C8821021954801F0C1F8A5
:1010C0008F48C07801280AD11021914801F0B7F863
:1010D00000208B498871C870487007204871DDE195
:1010E0008748407850B9002288490846FFF788FBB6
:1010F0000120834988714B208249C8828048C0788A
:10110000012805D100207E498871C87008204871E7
:10111000C4E1B5E195E178E159E13AE112E1D2E0CB
:10112000AFE08FE06AE041E028E0FFE774488079B3
:1011300038B97A4A7C490020FFF762FB01207049E8
:1011400088707148006806F0D0F9041E01DB204663
:1011500000E06042052810D100206949887088713C
:10116000C8704870012008700020664908756FA09B
:10117000FFF73EFA0920624948718FE16048007824
:10118000012812D16048614902680846FFF738FB20
:10119000FFF75BFA5B48007D012806D10020584923
:1011A0000870012048700A20487177E1544840785F
:1011B000012811D15248807970B900221146104699
:1011C000FFF71EFB01204E49887164204D49C882FB
:1011D00010214F4801F035F84948C07801280CD15A
:1011E00010214B4801F02BF8002045498871C87048
:1011F0004870012008710B2048714FE14048007988
:1012000001280AD13E48807938B9444A444900202F
:10121000FFF7F6FA01203A4988703B48006806F06B
:1012200064F9041E01DB204600E06042282808D152
:101230000020334988708871C870022008710C2022
:1012400048712BE12E48007902280DD12C48807975
:1012500050B9304A30490846FFF7D2FA01202849F0
:10126000887164202749C8822548C078012807D1A1
:10127000002023498871C870032008710D2048712F
:101280000CE11F48007903280AD11D48807938B93C
:10129000294A21492948FFF7B3FA012018498870E3
:1012A0001948006806F021F9041E01DB204600E021
:1012B000604238B90020124988708871C87008717E
:1012C0000E204871EAE00E48007968B90C48807930
:1012D00050B9104A0D490846FFF792FA0120084913
:1012E000887164200749C8820548C078012828D140
:1012F000002003498871C870012048700F201FE04A
:101300001C000020400100202C0000200000C842EA
:10131000000801400000AA420000C8C20080C0438B
:10132000000016C3000048C2000048437374617295
:1013300074636E7431000000000057C3000048C39E
:101340004871ABE056484078012812D15448807962
:1013500078B9002211461046FFF752FA0120504991
:1013600088714FF4FA704F49C88210214E4800F03E
:1013700068FF4B48C07801280AD110214A4800F084
:101380005EFF002046498871C8704870102048717F
:1013900084E04348C07868B94148807950B9434AED
:1013A00043490846FFF72CFA01203D4988713C204B
:1013B0003C49C8823A48C078012806D10020384903
:1013C0008871C87048701120487167E067E0344840
:1013D000407838B9374A00213748FFF711FA012021
:1013E0002F4988703548006806F07FF8041E01DB3D
:1013F000204600E06042282806D100202849887055
:101400008871C8701220487148E02548C07868B9D2
:101410002348807950B9002229490846FFF7F0F99E
:1014200001201F49887150201E49C8821C48C0787D
:10143000012805D100201A498871C870132048710D
:101440002CE01748807938B91E4A1B491C48FFF721
:10145000D7F90120124988701848006806F045F84D
:10146000041E01DB204600E0604240B900200C4928
:1014700088708871C87001204870142048710DE090
:1014800007484078012807D10548807920B9002213
:1014900011461046FFF7B4F900E000BF00BF10BDD1
:1014A0001C00002040010020000801400000AA426A
:1014B0000000C8C2000057C3000016432C000020E3
:1014C0000000C8420080C0430EB50121092001F090
:1014D000C5F848208DF803002020ADF80000032057
:1014E0008DF8020069460B4800F0FCFD0521012043
:1014F00000F00EFF2020019001208DF80A0000204E
:101500008DF808000C208DF8090001A800F00AFDF4
:101510000EBD0000000C014008B50121082001F0BB
:101520009DF810208DF803004FF47040ADF80000D6
:1015300003208DF8020069464C4800F0D3FD08BD39
:1015400070B504460D46164641F66411206888427F
:1015500001DB0846206046492068884201DC0846D5
:10156000206041F664112868884201DB0846286043
:101570003F492868884201DC084628603D493068B8
:1015800006F01AF801D83B4830603B49306806F055
:1015900009F801D83848306070BD0146002901DDE6
:1015A0000A4600E04A42104670472DE9F0410446E1
:1015B0000D461646002D07DD012030490860002049
:1015C0002F49C1F8BC0106E000202C490860012029
:1015D0002B49C1F8BC01002C08DD01202749091F57
:1015E000086000202649C1F8B00107E00020234927
:1015F000091F086001202249C1F8B0012F1E01DB3C
:10160000384600E0784281B21E4801F053FF271EA1
:1016100001DB384600E0784281B21A4801F050FF01
:101620003146194801F046FFBDE8F08110B50121AF
:10163000144801F0A7FC01220021124801F0A7FE86
:1016400001220C210F4801F0A2FE10BD10B50021AF
:101650000C4801F097FC002211460A4801F097FE61
:1016600000220C21074801F092FE10BD000C014041
:101670009CE6FFFF0080ED440000E144B881214278
:1016800000802142002C01400004004030B589B0A8
:1016900004460D46012140F6050000F0DFFF18204A
:1016A0008DF823004FF41060ADF8200003208DF872
:1016B000220008A91E4800F015FD05A801F032FC23
:1016C0000020ADF81A00ADF81600ADF81850ADF8CE
:1016D000144005A9174801F0F9F86020ADF804009E
:1016E0000020ADF80C000120ADF806000020ADF898
:1016F0000A0001A90F4801F026F901A90D4801F0DF
:10170000FCF901210B4801F049FC0821094801F0CE
:1017100069FD0821074801F084FD0121054801F019
:1017200031FD0121034801F02DFC09B030BD00005E
:1017300000080140002C014008B50121142000F0F0
:101740008DFF1020ADF8000003208DF8020010205E
:101750008DF803006946334800F0C4FC102131487D
:1017600000F06DFD4FF40050ADF8000003208DF83F
:10177000020010208DF8030069462B4800F0B2FCEF
:101780004FF400502849086108BD0EB501210C2016
:1017900000F064FF0121084600F060FF4FF4805024
:1017A000ADF8000028208DF8030069461D4800F0C0
:1017B00099FC1120ADF8000028208DF8030069463F
:1017C0001A4800F08FFC0021012000F0A1FD01204B
:1017D000019000208DF8080008208DF8090001A86C
:1017E00000F0A0FB0421012000F092FD10200190E8
:1017F00000208DF8080008208DF8090001A800F0ED
:1018000091FB0C21002000F083FD4FF480500190EB
:1018100000208DF8080008208DF8090001A800F0CC
:1018200081FB0EBD0008014000100140000C01408A
:1018300030B589B005460C460121022000F01BFF9F
:101840000121052000F00AFF4020ADF820001820FB
:101850008DF8230003208DF8220008A9174800F016
:1018600041FC0020ADF81A00ADF81600ADF8185094
:10187000ADF8144005A9124801F028F87020ADF821
:1018800004000020ADF80C000120ADF8060001A90D
:101890000B4801F058F80821094801F0A3FC012188
:1018A000074801F06FFC0121054801F06BFB40F295
:1018B0003D71034801F0FEFD09B030BD0008014054
:1018C00000040040CB48CC49086000204860CB4869
:1018D0008860CB48C860CB48086100204861C84890
:1018E0004862C84888620020C86270472DE9F14FFD
:1018F000C54801F0F1FD044605F0E1FDC34908606B
:101900000846006805F01EFE82460022C04B05F026
:10191000E9FC80460022BF4B05F0E7FC06460022AA
:10192000BD4B05F054FD044605F01FFEBB490860A1
:1019300008460168009805F0BBFBB94908600846F5
:101940000168B848006805F061FBB6490860B64810
:101950000168B348006805F0ABFB0746A6488168FC
:10196000384605F0ABFB0646B04905F0D9FB044606
:10197000A1494868AB49096805F0A0FB8046AB491E
:1019800005F0CEFB06469C490868A549096805F0A4
:1019900095FB8046A54905F0C3FB0746314605F097
:1019A00035FB0546214605F031FBA14908609C48FE
:1019B00000689D4908609E480068BDE8F88F2DE9E1
:1019C000F04104468C488169204605F074FB994932
:1019D00008604FF07C519748006805F0E3FD09D29C
:1019E0004FF03F419348006805F0E6FD02D2002029
:1019F000904908608F4801688F48006805F006FB31
:101A00008D4908608D498C48006805F0D5FD03D2EA
:101A10008A48894908600BE089498748006805F0D1
:101A2000C1FD03D286488449086001E0824800680D
:101A300081490860834801687E48006805F038FBEA
:101A400007466D484169384605F038FB05466A4946
:101A500008697949096805F031FB07466649C86895
:101A60007449096805F02AFB8046394605F0CEFA2C
:101A70000646294605F0CAFA734908606D480068B1
:101A80007049086070480068BDE8F0812DE9F041B8
:101A900004465948016B204605F00DFB6B49086070
:101AA0004FF07C516948006805F07CFD09D24FF089
:101AB0003F416648006805F07FFD02D2002063497F
:101AC0000860624801686248006805F09FFA604952
:101AD00008605A495E48006805F06EFD03D2574819
:101AE0005B4908600BE056495948006805F05AFD0B
:101AF00003D253485649086001E0554800685449EC
:101B00000860544801685148006805F0D1FA07465A
:101B10003948C16A384605F0D1FA05463649886A1F
:101B20004B49096805F0CAFA07463349486A4749EC
:101B3000096805F0C3FA8046394605F067FA06469B
:101B4000294605F063FA4449086040480068414965
:101B5000086041480068BDE8F0812DE9F05F4FF072
:101B6000000A3E49B1F91A0005F0A0FC834605F0D1
:101B7000E9FC804600223A4B05F0B7FB06460022FE
:101B8000384B05F024FC044605F0EFFC1A49C86107
:101B9000C869FFF714FF82465046BDE8F09F2DE963
:101BA000F05F4FF0000A2D49B1F91C0005F07EFCF2
:101BB000834605F0C7FC80460022294B05F095FBC3
:101BC00006460022274B05F002FC044605F0CDFC3A
:101BD00009494863486BFFF759FF82465046BDE804
:101BE000F09FC1600261436170470348806970479C
:101BF00081617047000010C160010020000080C0BA
:101C000000008C420000E04000040040480000203A
:101C100000789E4000002240000024404400002044
:101C2000340000203C000020400000200000C8429A
:101C3000380000204C0000205400002000802C447C
:101C400000802CC450000020580000205C000020C0
:101C50006400002060000020680000204001002097
:101C6000004CED400078CE4000B587B00121042043
:101C700000F0F4FC0121084600F0FDFC04208DF882
:101C80001B000320ADF8180006A95C4800F02AFAF2
:101C900003A801F047F90020ADF81200ADF80E00DE
:101CA0004FF6FF70ADF810000020ADF80C0003A94E
:101CB0004FF0804000F00AFE00231A4603214FF047
:101CC000804001F012FA684601F03FF90A20ADF8B1
:101CD00008006946400701F08CF801221146900780
:101CE00001F06BF900214FF0804001F0DFFB012192
:101CF000880701F047F907B000BD00B587B00121A2
:101D0000082000F0ABFC0121042000F0B4FC04200A
:101D10008DF81B00C020ADF8180006A9384800F067
:101D2000E1F903A801F0FEF80020ADF81200ADF8CB
:101D30000E004FF6FF70ADF810000020ADF80C005B
:101D400003A9304800F0C2FD00231A4603212D48A4
:101D500001F0CBF9684601F0F8F80A20ADF8080068
:101D60006946284801F045F80121264801F0D0FBDA
:101D700001221146234801F020F90021214801F0F9
:101D800095FB01211F4801F0FDF807B000BD70B5BB
:101D90000546022D02D0042D14D10AE04FF08040F8
:101DA00001F0A7FB04B200214FF0804001F07EFB60
:101DB0000AE0144801F09DFB04B20021114801F033
:101DC00075FB01E0002400BF00BF204670BD10B5C8
:101DD0000121880701F09FFB18B10121880701F05C
:101DE000ABFB10BD10B50121064801F094FB18B102
:101DF0000121044801F0A0FB10BD000000080140D3
:101E0000000C014000080040064880470648004793
:101E1000FEE7FEE7FEE7FEE7FEE7FEE7FEE7FEE79A
:101E2000FEE7FEE7DB020008ED0000083149014350
:101E3000314A1160704770B5002100230F22C47829
:101E400004B32D4C246804F4E064C4F5E064210A72
:101E5000C1F10403CA40447804FA03F184781440C1
:101E600021430901254C0678A155047804F01F058B
:101E70000124AC4005786D11AD0005F1E025C5F8F1
:101E8000004109E0047804F01F050124AC401C4D1A
:101E90000678761145F8264070BD1A4A0A4002437A
:101EA000154B1B1F1A60704739B1134A121D126877
:101EB0000243114B1B1D1A6006E00F4A121D1268E7
:101EC00082430D4B1B1D1A607047042808D14FF048
:101ED000E021096941F004014FF0E022116107E0BF
:101EE0004FF0E021096921F004014FF0E022116177
:101EF000704700000000FA050CED00E000E400E08F
:101F000080E100E080FFFF1F002044490860091DB8
:101F10000860091D0860091D086041483F491431E7
:101F20000860704700213D498279002A3AD00A466C
:101F3000126803689A430B461A600A1D1268036808
:101F40009A430B1D1A60027911440A6803681A4308
:101F50000A60324A0832126803689A432F4B0833EA
:101F60001A601A1D126803689A432C4B0C331A60CE
:101F70004279102A0ED11A1F126803681A43274BA0
:101F800008331A601A1D126803681A43234B0C3376
:101F90001A600DE02149427911440A6803681A4326
:101FA0000A6005E0027911440A6803689A430A60EE
:101FB00070470021016001710C2141710021817184
:101FC00070471649103109680143144A10321160F4
:101FD000704701460020114A143212680A400AB1C3
:101FE000012000E0002070470C4914310860704760
:101FF000014600200022094B1B6803EA0102074B3F
:1020000014331B680B4013B10AB1012000E000201B
:102010007047024914310860704700000004014015
:10202000FFFF0F0010B50446CC48844208D10121BF
:10203000042000F02DFB0021042000F029FB46E0E5
:10204000C748844208D10121082000F021FB00216B
:10205000082000F01DFB3AE0C248844208D101216B
:10206000102000F015FB0021102000F011FB2EE0E5
:10207000BD48844208D10121202000F009FB002145
:10208000202000F005FB22E0B848844208D101215D
:10209000402000F0FDFA0021402000F0F9FA16E09F
:1020A000B348844208D10121802000F0F1FA0021D8
:1020B000802000F0EDFA0AE0AE48844207D1012109
:1020C000801500F0E5FA0021A01500F0E1FA10BD3E
:1020D00010B50121084600F0DBFA0021012000F0D4
:1020E000D7FA10BD2DE9F041024600250026002058
:1020F00000230024002791F803C00CF00F0591F88D
:1021000003C00CF0100CBCF1000F03D091F802C01A
:102110004CEA050591F800C0BCF1000F31D01468FD
:1021200000202BE04FF0010C0CFA00F3B1F800C0D6
:102130000CEA03069E4220D183004FF00F0C0CFAEC
:1021400003F7BC4305FA03FC4CEA040491F803C00E
:10215000BCF1280F06D14FF0010C0CFA00FCC2F8BC
:1021600014C00AE091F803C0BCF1480F05D14FF04C
:10217000010C0CFA00FCC2F810C0401C0828D1D396
:102180001460B1F800C0BCF1FF0F34DD54680020CA
:102190002EE000F1080C4FF0010808FA0CF3B1F83A
:1021A00000C00CEA03069E4221D183004FF00F0CC1
:1021B0000CFA03F7BC4305FA03FC4CEA040491F85B
:1021C00003C0BCF1280F05D100F1080C08FA0CF887
:1021D000C2F8148091F803C0BCF1480F07D100F198
:1021E000080C4FF0010808FA0CF8C2F81080401CE7
:1021F0000828CED35460BDE8F0814FF6FF7101800E
:10220000022181700421C17070470246002093684A
:102210000B400BB1012000E00020704701468868A8
:1022200080B2704702460020D3680B400BB10120FA
:1022300000E0002070470146C86880B27047016125
:102240007047416170470AB1016100E04161704728
:10225000C16070474FF480320A43826181618261BC
:1022600082698269704702460020434B18684FF626
:102270008073184040EA021008433F4B18607047D3
:102280003E49C8617047F0B50A460023002400218A
:10229000002500F00046B6F1004F02D1364EF1693C
:1022A00001E0354E7168C0F3034583B200F4401677
:1022B000B6F5401F08D121F070612F4E766826F0E8
:1022C00070662D4F7E6012E000F48016B6F5801F18
:1022D00006D1032606FA05F4A14341F0706106E039
:1022E000460D360103FA06F6B14341F0706122B1A2
:1022F000460D360103FA06F6314300F00046B6F10A
:10230000004F02D11C4EF16101E01B4E7160F0BD27
:1023100030B500228B071C0F0F2303FA04F2164B73
:1023200008338C1053F824309343134C08348D1029
:1023300044F8253023468C1053F824308C07240FA2
:1023400000FA04F423430C4C08348D1044F8253073
:1023500030BD0A49DC3108607047000000080140C8
:10236000000C014000100140001401400018014021
:10237000001C0140002001400000014000002042FC
:10238000DF48006840F00100DD4908600846406809
:10239000DC490840DA49486008460068DA490840E4
:1023A000D74908600846006820F480200860084685
:1023B000406820F4FE0048604FF41F0088607047BA
:1023C000CF49096821F48031CD4A1160114609686E
:1023D00021F480211160B0F5803F03D0B0F5802F4B
:1023E0000ED106E0C649096841F48031C44A116043
:1023F00007E0C349096841F4A021C14A116000E027
:1024000000BF00BF704710B5014600220023002026
:102410004A11012A02D1BA4C236806E0022A02D1ED
:10242000B74C236A01E0B64C636A01F01F02012435
:1024300094401C400CB1012000E0002010BD38B5D4
:10244000002000900024002500BF3120FFF7DBFFB3
:1024500005460098401C00900098B0F5A06F01D090
:10246000002DF2D03120FFF7CEFF08B1012400E0AB
:102470000024204638BD01460020A14A106820F003
:10248000F80040EAC10010607047A049086070473A
:10249000024600209A4B586820F47C1042EA01035F
:1024A0001843974B58607047984908667047014633
:1024B0000020934A506820F00300084350607047A2
:1024C0008F48406800F00C007047014600208C4A9D
:1024D000506820F0F000084350607047014600202B
:1024E000874A506820F4E060084350607047014616
:1024F0000020834A506820F4605040EAC1005060D8
:10250000704729B17E4A527A02437D4B5A7204E0E9
:102510007B4A527A82437A4B5A7270477B49D83150
:102520000860704701460020754A506820F440401A
:102530000843506070470021714A20321170704A80
:1025400082F82010012802D004280AD104E00121D9
:102550006B4A2032117005E00521694A2032117062
:1025600000E000BF00BF70476949086070476449D8
:10257000096A0143624A116270476549443908603B
:10258000704730B500210022002400235C4D6D68A7
:1025900005F00C0121B1042905D0082923D105E05B
:1025A0005C4D056022E05B4D05601FE0544D6D6899
:1025B00005F47012524D6D6805F48034022505EB68
:1025C00092421CB9544D554305600BE04C4D6D686B
:1025D00005F400351DB1504D5543056002E04D4DE9
:1025E0005543056002E04B4D056000BF00BF444D00
:1025F0006D6805F0F0010909484D6B5C0568DD4028
:1026000045603F4D6D6805F4E061090A434D6B5C20
:102610004568DD4085603A4D6D6805F46051C90A32
:102620003E4D6B5C4568DD40C560354D6D6805F419
:102630004041890B3A4D6B5CC568B5FBF3F505610C
:1026400030BD29B12E4A526902432D4B5A6104E034
:102650002B4A526982432A4B5A61704729B1284A52
:1026600092690243264B9A6104E0254A92698243AB
:10267000234B9A61704729B1214AD2690243204B0A
:10268000DA6104E01E4AD26982431D4BDA61704769
:1026900029B11B4AD2680243194BDA6004E0184A98
:1026A000D2688243164BDA60704729B1144A126926
:1026B0000243134B1A6104E0114A12698243104B22
:1026C0001A61704712494039086070470F49C86461
:1026D00070470B49C87170470948406A40F08070E4
:1026E00007494862704701460020054A92680A403F
:1026F0000AB1012000E0002070470149887270474C
:10270000001002400000FFF8FFFFF6FE000042420A
:102710008004424200127A0000093D006C00002053
:102720007C00002010B50446FE48844208D10121F7
:10273000C014FFF7ADFF0021E014FFF7A9FFC4E0CC
:10274000B4F1804F08D101210846FFF7AEFF002108
:102750000120FFF7AAFFB8E0F348844208D1012125
:102760000220FFF7A2FF00210220FFF79EFFACE04E
:10277000EE48844208D101210420FFF796FF002192
:102780000420FFF792FFA0E0E948844208D101212C
:102790000820FFF78AFF00210820FFF786FF94E05A
:1027A000E448844208D101211020FFF77EFF002178
:1027B0001020FFF77AFF88E0DF48844208D101212A
:1027C0002020FFF772FF00212020FFF76EFF7CE042
:1027D000DA48844208D101214014FFF759FF002153
:1027E0006014FFF755FF70E0D548844209D10121FC
:1027F000C804FFF74DFF00214FF40020FFF748FF0A
:1028000063E0D048844209D101210805FFF740FF69
:1028100000214FF48010FFF73BFF56E0CA48844286
:1028200009D101214805FFF733FF00214FF40010C3
:10283000FFF72EFF49E0C548844208D1012140201E
:10284000FFF733FF00214020FFF72FFF3DE0C04896
:10285000844208D101218020FFF727FF002180203A
:10286000FFF723FF31E0BB48844208D101218015E6
:10287000FFF71BFF0021A015FFF717FF25E0B64863
:10288000844209D101210804FFF702FF00214FF41F
:102890008030FFF7FDFE18E0B048844209D10121E5
:1028A0004804FFF7F5FE00214FF40030FFF7F0FE7B
:1028B0000BE0AB48844208D101218804FFF7E8FE11
:1028C00000214FF48020FFF7E3FE10BD00220288B4
:1028D000944B98420ED0994B98420BD0B0F1804F58
:1028E00008D0914B984205D0904B984202D0904B23
:1028F000984204D14FF68F731A404B881A438D4B80
:10290000984207D08C4B984204D04FF6FF431A40B0
:10291000CB881A4302808B8883850B880385814B83
:1029200098420BD0854B984208D08B4B984205D0EB
:102930008A4B984202D08A4B984201D10B7A038687
:1029400001238382704770B5002400220023058C88
:102950004FF6FE7635400584028C8388048B4FF653
:102960008F752C40B51E2C400D882C43751E2A40B7
:102970000D892A434D882A436A4DA8420BD06F4DDA
:10298000A84208D0744DA84205D0744DA84202D088
:10299000734DA84213D14FF6F7752A404D892A434B
:1029A0004FF6FB752A408D882A434FF6FF652B4072
:1029B0004FF6FF552B408D892B43CD892B438380C8
:1029C0000483CD888586028470BD70B50024002202
:1029D0000023058C4FF6EF7635400584028C838802
:1029E000048B48F6FF752C404FF6FF452C400D88B0
:1029F0004FF6FF7606EA05252C434FF6DF752A4091
:102A00000D8906EA05152A434D8806EA05152A436D
:102A1000444DA84202D0494DA8421DD14FF67F75C2
:102A20002A404D894FF6FF7606EA05152A434FF6F0
:102A3000BF752A408D8806EA05152A434FF6FF35F3
:102A40002B404FF2FF752B408D8906EA85052B43FD
:102A5000CD8906EA85052B4383800483CD880587CD
:102A6000028470BD70B5002400220023058C4FF64F
:102A7000FF6635400584028C8388848B4FF68F7502
:102A80002C404FF6FC752C400D882C434FF6FF551B
:102A90002A400D894FF6FF7606EA05252A434D8820
:102AA00006EA05252A431F4DA84202D0234DA8421D
:102AB0001DD14FF2FF752A404D894FF6FF7606EA89
:102AC00005252A434FF6FF352A408D8806EA05255D
:102AD0002A434EF6FF752B404DF6FF752B408D892E
:102AE00006EA05152B43CD8906EA05152B4383809D
:102AF0008483CD888587028470BD70B50022002351
:102B00000024058C4EF6FF7635400584038C8488BE
:102B1000828B48F6FF752A404FF6FF452A400D8804
:102B200020E00000002C01400004004000080040AC
:102B3000000C004000100040001400400034014030
:102B4000004C01400050014000540140001800407A
:102B5000001C0040002000400040014000440140B3
:102B6000004801404FF6FF7606EA05252A434DF658
:102B7000FF752B400D8906EA05352B434D8806EA83
:102B800005352B43FA4DA84202D0FA4DA84208D190
:102B90004BF6FF752C408D894FF6FF7606EA8515BA
:102BA0002C4384808283CD88A0F84050038470BD7C
:102BB000828B4FF2FF331A408283828B4FF6FF7372
:102BC00003EA01231A4382837047F0B50C46154689
:102BD000002200210026078C4EF6FF7C07EA0C0736
:102BE0000784828B018C4FF6FF7707EA043640F6A4
:102BF000FF473A404FF6FF7707EA05273A434FF67B
:102C0000FF7707EA03373A43D94FB8420ED0D94F7E
:102C1000B8420BD0B0F1804F08D0D74FB84205D0A2
:102C2000D64FB84202D0D64FB84206D14DF6FF7704
:102C3000394046F48057394305E047F6FF5739409D
:102C400044F48057394382830184F0BD828B4FF670
:102C5000F3731A408283828B0A4382837047F0B5F4
:102C60000C461546002200210026078C4FF6FF6C0B
:102C700007EA0C070784828B018C4FF6FF7707EA7F
:102C800004264FF60C773A404FF6FF7707EA031712
:102C90002F433A43B64FB8420ED0B64FB8420BD08E
:102CA000B0F1804F08D0B44FB84205D0B34FB8420E
:102CB00002D0B34FB84206D14FF6FF57394046F421
:102CC0008077394305E04FF2FF57394044F480776D
:102CD000394382830184F0BD028B4FF2FF331A40E7
:102CE0000283028B4FF6FF7303EA01231A43028328
:102CF0007047F0B50C461546002200210026078CCF
:102D00004FF6EF7C07EA0C070784028B018C4FF625
:102D1000FF7707EA041640F6FF473A404FF6FF7781
:102D200007EA03373A434FF6FF7707EA05273A43A6
:102D30008F4FB8420ED08F4FB8420BD0B0F1804FBA
:102D400008D08D4FB84205D08C4FB84202D08C4F7E
:102D5000B84206D14FF6DF77394046F010073943C5
:102D600005E04FF65F77394044F01007394302839E
:102D70000184F0BD028B4FF6F3731A400283028B7D
:102D80000A4302837047F0B50C4615460022002125
:102D9000068C4FF6FE773E400684028B018C4FF680
:102DA0000C7632407E1C06EA03162E433243704EE8
:102DB000B0420ED06F4EB0420BD0B0F1804F08D071
:102DC0006D4EB04205D06D4EB04202D06C4EB04256
:102DD00006D14FF6FD76314044F00106314305E05F
:102DE0004FF6F576314044F0010631430283018409
:102DF000F0BD70B505460C465D4885420ED05D4875
:102E000085420BD0B5F1804F08D05B48854205D094
:102E10005A48854202D05A48854200D100E000BF9E
:102E2000208850B92389A28861882846FFF7ABFF24
:102E3000E1882846FFF79EFF25E0208804280AD174
:102E40002389A28861882846FFF753FFE188284636
:102E5000FFF742FF17E0208808280AD12389A288BB
:102E600061882846FFF7FBFEE1882846FFF7EEFE63
:102E700009E02389A28861882846FFF7A6FEE18839
:102E80002846FFF795FE70BD2DE9F04105460C463A
:102E900000260127608808B9022600E00026A088E5
:102EA000012801D1022700E001272088A0B9238949
:102EB000A28861882846FFF766FFE1882846FFF769
:102EC00059FF23893A4631462846FFF712FFE18829
:102ED0002846FFF701FF13E02389A288618828466E
:102EE000FFF707FFE1882846FFF7F6FE23893A46F9
:102EF00031462846FFF747FFE1882846FFF73AFFAB
:102F0000BDE8F0810A884B881A438B881A43CB8826
:102F10001A430B891A434B891A438B891A43A0F829
:102F2000442070474FF6FF71818000210180C180ED
:102F30004180017270470021018041808180C18001
:102F4000018141818181C1817047002101804180DF
:102F5000012181800021C180018170470021018011
:102F600041808180C1800181418181817047000061
:102F7000002C0140003401400004004000080040E3
:102F8000000C004021B1028842F00102028004E0FE
:102F900002884FF6FE731A400280704731B1B0F8D4
:102FA000442042F40042A0F8442005E0B0F8442058
:102FB000C2F30E02A0F8442070471AB183890B4374
:102FC000838102E083898B438381704781827047CC
:102FD00041EA0203A0F8483070471AB183890B43D5
:102FE000838102E083898B438381704701894FF697
:102FF000F8721140018170470A46002101894FF69D
:103000008F73194011430181704730B504460D4656
:1030100029462046FFF7F0FF208940F00700208175
:1030200030BD2DE9F04104460D4616461F46602D81
:1030300006D13B46012231462046FFF75AFE05E005
:103040003B46012231462046FFF79DFE2946204699
:10305000FFF7D2FF208940F007002081BDE8F08112
:1030600030B50C4600210189C9B24FF6FF7505EA5B
:103070000325154325432943018130BD2DE9F04146
:1030800005460E4617469846002443463A463146C2
:103090002846FFF7E5FF2C894FF6F870044044F00E
:1030A00007044FF68F70044044F070042C81BDE893
:1030B000F081F0B504460D4616461F463B463246A3
:1030C00029462046FFF7CCFF208940F4804020812C
:1030D000F0BD0185828270470A46002101884FF6C3
:1030E0008F731940114301807047F0B50C461546A7
:1030F0001E460021002200230189028B038C4FF61B
:10310000F877394021434FF6FC473A4040F2011727
:103110003A434FF6DD773B404FF6FF7707EA061755
:103120002F433B43018102830384F0BD0A46002103
:10313000018B4FF68F7319401143018370470A4684
:103140000021018B48F6FF7319404FF6FF7303EA25
:1031500002231943018370470A460021818B4FF6F1
:103160008F7319401143818370470A460021818B78
:1031700048F6FF7319404FF6FF7303EA0223194321
:103180008183704721B1028842F08002028004E00E
:1031900002884FF67F731A400280704721B18288FF
:1031A00042F00402828004E082884FF6FB731A40EA
:1031B0008280704721B1828842F00802828004E058
:1031C00082884FF6F7731A408280704721B1828857
:1031D00042F00102828004E082884FF6FE731A40BA
:1031E000828070470A460021018B4FF6F773194021
:1031F0001143018370470A460021018B4FF2FF7390
:1032000019404FF6FF7303EA022319430183704705
:103210000A460021818B4FF6F773194011438183D1
:1032200070470A460021818B4FF2FF7319404FF619
:10323000FF7303EA02231943818370470A46002182
:10324000018B4FF6FB7319401143018370470A4607
:103250000021018B4FF6FF3319404FF6FF7303EA4D
:1032600002231943018370470A460021818B4FF6E0
:10327000FB7319401143818370470A460021818BFB
:103280004FF6FF3319404FF6FF7303EA0223194349
:10329000818370470A460021018B4FF67F731940E6
:1032A0001143018370470A460021018BC1F30E01CF
:1032B0004FF6FF7303EA02231943018370470A465E
:1032C0000021818B4FF67F73194011438183704732
:1032D0000A460021818BC1F30E014FF6FF7303EA0A
:1032E00002231943818370470A460021018C4FF65F
:1032F000FD7319401143018470470A460021018C77
:103300004FF6F77319401143018470470A460021B4
:10331000018C4FF6DF7319404FF6FF7303EA021377
:103320001943018470470A460021018C4FF67F73D0
:1033300019404FF6FF7303EA0213194301847047E3
:103340000A460021018C4FF6FF5319404FF6FF73D8
:1033500003EA02231943018470470A460021018CC5
:103360004FF2FF7319404FF6FF7303EA022319432C
:10337000018470470A460021018C4DF6FF73194005
:103380004FF6FF7303EA023319430184704730B5E7
:10339000002301248C40A3B2048C9C430484048C3D
:1033A00002FA01F5ADB22C43048430BD30B50023E0
:1033B00004248C40A3B2048C9C430484048C02FA41
:1033C00001F5ADB22C43048430BD70B50346002036
:1033D00000241846183001258D40ACB21D8CA54341
:1033E0001D8409B1082909D100EB6100056825F0A9
:1033F000700505600568154305600EE00D1FC5F3F7
:103400004E052844056825F4E045056005684FF63B
:10341000FF7606EA02263543056070BD21B10288B9
:1034200042F00202028004E002884FF6FD731A4067
:103430000280704721B1028842F00402028004E059
:1034400002884FF6FB731A400280704721B18288D0
:1034500042F08002828004E082884FF67F731A4037
:103460008280704702884FF6F7731A400280028804
:103470000A430280704782884FF68F731A40828019
:1034800082880A438280704702894FF6F8731A4097
:10349000028102890A430281704702894FF67F73D5
:1034A0001A40028102890A43028170478184704771
:1034B0008185704781867047018770478187704793
:1034C000A0F84010704702884FF6FF431A40028070
:1034D00002880A43028070470146888E7047014681
:1034E000088F70470146888F70470146B1F8400049
:1034F00070470146888C70470146088D7047024628
:103500000020138A0B400BB1012000E0002070471F
:10351000CA430282704730B50246002000230024CF
:10352000158A05EA0103958905EA010413B10CB176
:10353000012000E0002030BDCA4302827047000035
:1035400010B50446FB48844209D101218803FFF7E6
:103550009FF800214FF48040FFF79AF832E0F648D8
:10356000844209D101214804FFF79FF800214FF45C
:103570000030FFF79AF825E0F048844209D1012194
:103580008804FFF792F800214FF48020FFF78DF8B0
:1035900018E0EB48844209D10121C804FFF785F8FF
:1035A00000214FF40020FFF780F80BE0E54884424B
:1035B00008D101210805FFF778F800214FF48010A9
:1035C000FFF773F810BD2DE9F04786B005460E46AB
:1035D0000024A24600BFA1460027B08900B100BF69
:1035E0002F462C8A4CF6FF700440F08804432C824E
:1035F000AC894EF6F3100440B088318908437189D4
:1036000008430443AC81AC8A4FF6FF400440B089C4
:103610000443AC8201A8FEF7B4FFC648874202D13A
:10362000DDF810A001E0DDF80CA0A88900F400404E
:1036300040B10AEBCA0000EB0A1031684900B0FB48
:10364000F1F807E00AEBCA0000EB0A1031688900C4
:10365000B0FBF1F86420B8FBF0F00401200964210C
:1036600001FB1089A88900F4004040B1322000EB32
:10367000C900B0FBF1F000F00700044308E032207D
:1036800000EB09106421B0FBF1F000F00F000443DF
:103690002C8106B0BDE8F0874FF41651016000217F
:1036A0008180C18001810C2141810021818170478D
:1036B00010B502460020108A4FF2FF0318400B8815
:1036C0004C8823438C882343CC882343184310829F
:1036D00010BD0021018041808180C180704721B1EF
:1036E000828942F40052828104E082894DF6FF73A0
:1036F0001A4082817047F0B5034600240026002559
:10370000002040F66A17B94200D100BF1846C1F345
:10371000421401F01F06012707FA06F5012C01D11A
:103720000C3004E0022C01D1103000E014301AB14A
:1037300007682F43076002E00768AF430760F0BDEA
:103740001AB1838A0B43838202E0838A8B4383828C
:103750007047028A4FF6F0731A400282028A0A43C7
:103760000282704782894FF2FF731A4082818289F8
:103770000A438281704721B1828942F0020282812C
:1037800004E082894FF6FD731A4082817047028AF5
:103790004FF6DF731A400282028A0A4302827047A0
:1037A00021B1028A42F48042028204E0028A4BF68E
:1037B000FF731A4002827047C1F30802828070478B
:1037C00001468888C0F308007047818941F00101F3
:1037D00081817047028BD2B20283028B42EA0122BE
:1037E00002837047028B02F47F420283028B0A43FA
:1037F0000283704721B1828A42F02002828204E073
:10380000828A4FF6DF731A408282704721B1828A22
:1038100042F01002828204E0828A4FF6EF731A406F
:103820008282704721B1828A42F00802828204E0DB
:10383000828A4FF6F7731A408282704721B18289DB
:1038400042F40042828103E08289C2F30E02828147
:10385000704721B1828A42F40062828204E0828A47
:103860004FF2FF731A4082827047828A4FF6FB73D1
:103870001A408282828A0A438282704721B1828AF8
:1038800042F00202828204E0828A4FF6FD731A40FF
:103890008282704702460020B1F5007F00D100BF50
:1038A00013880B400BB1012000E00020704701F4A9
:1038B0000072B2F5007F00D100BFCA43028070479A
:1038C00070B50246002400230025002040F66A1649
:1038D000B14200D100BFC1F3421501F01F03012620
:1038E00006FA03F3012D02D19689334006E0022D3A
:1038F00002D1168A334001E0968A33400C12012629
:1039000006FA04F41688344013B10CB1012000E02B
:10391000002070BD10B50022002340F66A14A142B9
:1039200000D100BF0A1201249440A3B2DC430480FA
:1039300010BD000000380140004400400048004035
:10394000004C00400050004070B505460C4600F0A9
:10395000D7F9D02000F088FA00F013FA18B100F07F
:10396000EFF9012070BD284600F07EFA00F009FA58
:10397000204600F079FA00F004FA18B100F0E0F9FE
:103980000120EFE700F0DCF90020EBE770B504461A
:103990000025BC2C01DB012510E0622C01DB022597
:1039A0000CE02A2C01DB032508E0142C01DB0425A4
:1039B00004E00A2C01DB052500E0062529461A2033
:1039C000FFF7C2FF70BD70B50446B4F57A7F01DD24
:1039D0004FF47A74042C00DA04244FF47A7090FBCC
:1039E000F4F0401EC5B229461920FFF7ADFF054689
:1039F000264604EBD671C1F34F00FFF7C7FF70BD39
:103A000070B5044600F07CF9D02000F02DFA00F0EB
:103A1000B8F9204600F028FA00F0B3F900F070F988
:103A2000D12000F021FA00F0ACF9002000F047FAB4
:103A3000054600F085F9284670BD10B50446E0063D
:103A4000010E1C20FFF780FF10BD10B50446E006F4
:103A5000010E1B20FFF778FF10BD10B50121934820
:103A6000FEF711FC00209249086000F030F9802137
:103A70006B20FFF769FF6420FCF7EDFC00216B2051
:103A8000FFF762FF0320FFF7E0FF0020FFF7D5FFFD
:103A90003220FFF798FF00213820FFF755FF002163
:103AA0006A20FFF751FF00212320FFF74DFF8021FF
:103AB0003720FFF749FF7520FFF7A2FF0446682C67
:103AC0000BD101216B20FFF73FFF00216C20FFF796
:103AD0003BFF3220FFF777FF01E0012010BD0020FF
:103AE000FCE72DE9F04106460F4614461D4600F05E
:103AF00007F9002141EA4601C8B200F0B5F900F02B
:103B000040F920B100F01CF90120BDE8F0813846F1
:103B100000F0AAF900F035F900F0F2F8012101EB0C
:103B20004601C8B200F0A0F900F02BF90DE0012C1D
:103B300004D1002000F0C3F9287003E0012000F058
:103B4000BEF92870601EC4B26D1C002CEFD100F0CD
:103B5000F7F80020D9E72DE9F84F6B460222412102
:103B60006820FFF7BEFF9DF801009DF8001040EAB5
:103B700001200FFA80FA504603F0A6FC804600228E
:103B80004C4B03F024FC06464B4A4C4B03F006FB1F
:103B9000044603F0EAFC83464949584603F08EFA8E
:103BA000044603F0A2FC00B2BDE8F88F2DE9FC4109
:103BB00004460D4616466B46062243216820FFF751
:103BC00090FF0746BFB99DF801009DF8001040EA3C
:103BD000012000B220809DF803009DF8021040EA09
:103BE000012000B228809DF805009DF8041040EAED
:103BF000012000B230803846BDE8FC812DE9FC414F
:103C000004460D4616466B4606223B216820FFF708
:103C100068FF0746BFB99DF801009DF8001040EA13
:103C2000012000B220809DF803009DF8021040EAB8
:103C3000012000B228809DF805009DF8041040EA9C
:103C4000012000B230803846BDE8FC812DE9F0410A
:103C500005460E461746984600F052F8002141EA04
:103C60004501C8B200F000F900F08BF820B100F077
:103C700067F80120BDE8F081304600F0F5F800F06B
:103C800080F800240CE018F8040000F0EDF800F0D3
:103C900078F818B100F054F80120EBE7601CC4B2CA
:103CA000BC42F0DB00F04CF80020E3E700023000FB
:103CB000BC01214200407540A4703D0AD7434240F8
:103CC0000000C84210B50220FCF7A1FB10BD08B5EA
:103CD00001210820FEF7C2FC4FF44070ADF800004F
:103CE00010208DF8030003208DF8020069468D48EE
:103CF000FEF7F8F94FF440718A48FEF7A0FA08BDC4
:103D000010B58848001D006820F0F0008549091DA5
:103D100008600846006840F03000086001208249D1
:103D200008608249C1F8A001FFF7CCFF00207E495E
:103D30000860FFF7C7FF00207C49C1F8A00110BD53
:103D400010B57848001D006820F0F0007549091D85
:103D500008600846006840F03000086000207249A2
:103D6000091F08607149C1F8A401FFF7ABFF0120EA
:103D70006D49091F08606D49C1F8A401FFF7A2FF52
:103D800010BD10B500246748001D006820F0F00049
:103D90006449091D08600846006840F0800008601A
:103DA000012061490860FFF78DFF01205F49C1F8DC
:103DB000A001FFF787FF07E0601CC4B2FA2C03DD07
:103DC000FFF7BEFF012010BD57488038006800286B
:103DD000F2D15549091F086000BFF4E710B5002073
:103DE0005149091F08604F48001D006820F0F0008D
:103DF0004C49091D08600846006840F03000086022
:103E000000204A49C1F8A401FFF75CFF01204649A0
:103E1000091F0860FFF756FF00204449C1F8A001C0
:103E200010BD10B500204049091F08603D48001D25
:103E3000006820F0F0003B49091D08600846006852
:103E400040F03000086001203849C1F8A401FFF7B4
:103E500039FF01203449091F0860FFF733FF0020B4
:103E60003249C1F8A00110BD70B504462D48001DAF
:103E7000006820F0F0002B49091D08600846006822
:103E800040F03000086000202749091F0860002525
:103E900012E0E009244908606006040E012023496D
:103EA000C1F8A001FFF70EFF00201F49091F08609D
:103EB000FFF708FF681CC5B2082DEADB70BD70B5BE
:103EC000054600241748001D006820F0F000154941
:103ED000091D08600846006840F080000860002660
:103EE00015E000201049091F0860FFF7EBFE0120D4
:103EF0000E49C1F8A0016006040E0B488038006826
:103F000008B1601CC4B2FFF7DDFE701CC6B2082EFB
:103F1000E7DB15B9FFF785FF01E0FFF75FFF2046FC
:103F200070BD0000000C0140A481214200802142AC
:103F300038B50446F74890F82400C0B114B1022007
:103F4000009001E000200090F24A1268D17BF14A13
:103F5000526810786B460122FFF778FE10B14FF0DF
:103F6000FF3038BD9DF80010EA48417423E0E9486D
:103F7000807A10B94FF0FF30F3E724B1E548407C78
:103F800008B10020EDE714B10120009001E000200D
:103F90000090E04A1268D17BDE4A526810786B4686
:103FA0000122FFF753FE10B14FF0FF30D9E79DF823
:103FB0000010D84841740020D3E738B500241FE032
:103FC000D4480068C07AA04204D0D2480068407D3E
:103FD000A04200D112E0CF49496808786B4601221F
:103FE0002146FFF77EFD10B14FF0FF3038BD9DF840
:103FF00000202146C8A003F087FC00BF601CC4B2AB
:10400000C44840680079A042DADC0020EEE770B5D1
:1040100004460D46BF480068C07AA04204D0BD489F
:104020000068407DA04202D14FF0FF3070BDB9481A
:1040300040680079A04202DC4FF0FF30F6E7B54956
:10404000496808782B4601222146FFF74AFDEDE733
:1040500038B50446AF4890F82300A04201D10020B3
:1040600038BD14B13020009001E000200090A94834
:10407000807C20B19DF8000040F002000090A5482F
:1040800090F8220020B19DF8000040F080000090E0
:10409000A04A1268117D9F4A526810786B4601222F
:1040A000FFF7D4FD10B14FF0FF30D9E7994880F801
:1040B00023400020D4E738B5044604F0700010B166
:1040C0000120009005E014B10020009001E04020A4
:1040D0000090904A1268917C8E4A526810786B4624
:1040E0000122FFF7B3FD20B100218A488172481EEA
:1040F00038BD9DF8000020F0400186480173002083
:10410000009004F0400020B99DF8000040F0040049
:10411000009004F0200020B99DF8000040F002005B
:10412000009004F0100020B99DF8000040F001005C
:10413000009004F0080020B99DF8000040F038001D
:104140000090744A1268D17C724A526810786B46AB
:104150000122FFF77BFD20B100216E488172481ECD
:10416000C6E724B1082C02D00020FFF771FF694890
:104170008472002101753220FCF76DF90020B7E749
:1041800038B504466348807CA04201D1002038BD88
:10419000002C46D05F4A126811795E4A5268107846
:1041A0006B460122FFF79DFC10B14FF0FF30EEE7A8
:1041B0009DF8000020F020000090564A1268117906
:1041C000544A526810786B460122FFF73FFD10B148
:1041D0004FF0FF30DBE70320FCF73DF902200090B1
:1041E0004C4890F8220020B19DF8000040F080007B
:1041F0000090484890F8230020B19DF8000040F05E
:1042000030000090434A1268117D424A526810788B
:104210006B460122FFF71AFD002851D04FF0FF3006
:10422000B5E73C4A126811793A4A526810786B46F1
:104230000122FFF756FC10B14FF0FF30A7E73548D9
:10424000807A00F0010028B19DF8000040F02000C5
:10425000009004E09DF8000020F0200000902D4A1E
:10426000126811792B4A526810786B460122FFF7C9
:10427000EDFC10B14FF0FF3089E70320FCF7EBF8BD
:10428000244890F8220010B18020009001E0002026
:104290000090204890F8230020B19DF8000040F0E5
:1042A000300000901B4A1268117D1A4A526810783B
:1042B0006B460122FFF7CAFC10B14FF0FF3066E7F2
:1042C00014488474002062E708B51248807A10B957
:1042D0004FF0FF3008BD002000900E4A1268D17BDD
:1042E0000C4A526810786B460122FFF7AFFC10B100
:1042F0004FF0FF30EEE7074A12685179054A5268DD
:1043000010786B460122FFF7A1FC68B14FF0FF3037
:10431000E0E7000080000020252335783A2025239F
:1043200035780D0A00000000F84A12681179F74A42
:10433000526810786B460122FFF788FC10B14FF0ED
:10434000FF30C7E7F14890F82400002853D00C2034
:104350000090EE4A12681179EC4A526810786B4668
:104360000122FFF773FC10B14FF0FF30B2E73220AB
:10437000FCF771F8C0200090E448807A00F001005A
:1043800020B19DF8000040F020000090DF4A126844
:104390001179DE4A526810786B460122FFF756FC0D
:1043A00010B14FF0FF3095E7D848407C10B10220A3
:1043B000009001E000200090D44A1268D17BD34ADB
:1043C000526810786B460122FFF740FC10B14FF0A5
:1043D000FF307FE700200090CC4A12685179CB4A29
:1043E000526810786B460122FFF730FC002855D048
:1043F0004FF0FF306EE704200090C44A1268117934
:10440000C24A526810786B460122FFF71FFC10B1B8
:104410004FF0FF305EE7BD48807C20B9BB48807A12
:1044200000F0010010B94020009001E060200090F1
:10443000B64A12681179B54A526810786B46012263
:10444000FFF704FC10B14FF0FF3043E73220FCF7D8
:1044500002F8AE48407C10B10120009001E000203D
:104460000090AA4A1268D17BA84A526810786B461D
:104470000122FFF7EBFB10B14FF0FF302AE7A34A10
:1044800012685179A14A52681078A04B103301226A
:10449000FFF7DCFB10B14FF0FF301BE7002019E7FE
:1044A00070B50446002624F00104984890F82400D2
:1044B00008B1002070BD9548807A10B94FF0FF30E8
:1044C000F8E79248057C807A2040904908740846B5
:1044D000007CA04202D04FF0FF3600E0002614B965
:1044E0008A48007D18B10120FFF722FD02E000207C
:1044F000FFF71EFD3CB1FFF7E7FE20B183480574CE
:104500004FF0FF30D6E73046D4E738B504467F4851
:10451000807A10B94FF0FF3038BDBC2C02DB01208F
:10452000009015E0622C02DB0220009010E02A2CA3
:1045300002DB032000900BE0142C02DB042000902F
:1045400006E00A2C02DB0520009001E00620009026
:104550006E48C07A9DF80010884201D10020DBE748
:104560006A4A12689178694A526810786B4601224B
:10457000FFF76CFB10B14FF0FF30CDE79DF8001056
:104580006248C1720020C7E738B50446282C02DD16
:104590004FF0FF3038BDDCB90020FFF759FD002097
:1045A0008DF8000007208DF80100584A1268917CB0
:1045B000564A526810786B460222FFF747FB10B14B
:1045C0004FF0FF30E6E70021504801750020E1E799
:1045D0000120FFF73DFD20208DF80000012C06D1C1
:1045E00000208DF801000520FFF78FFF17E0052C54
:1045F00006DC01208DF801000520FFF786FF0EE0A4
:10460000142C06DC02208DF801000A20FFF77DFF44
:1046100005E003208DF801001420FFF776FF9DF8D8
:104620000100072101EB8010C0B28DF80100374A6C
:104630001268917C354A526810786B460222FFF767
:1046400005FB10B14FF0FF30A4E708212F4881721D
:1046500000210173012101750020FFF721FF0020D7
:1046600098E738B504462948807A10B94FF0FF30F2
:1046700038BD264890F8240010B14FF0FF30F7E71E
:104680002248007D50B134B1282C04DCE0B2FFF7A1
:104690007BFF0020ECE70020FFF776FF042C01DA17
:1046A000042404E0B4F57A7F01DD4FF47A744FF40A
:1046B0007A7090FBF4F0401EC0B20090134A12686A
:1046C0005178124A526810786B460122FFF7BEFA01
:1046D00010B14FF0FF30CBE79DF80000401C4FF4C5
:1046E0007A7191FBF0F081B20848C1810146C98915
:1046F0004810FFF70AFF0020BAE738B50446034820
:10470000807A28B94FF0FF3038BD000080000020CB
:10471000022C06D0042C07D0082C08D0102C0CD169
:1047200008E0002000900BE00820009008E0102036
:10473000009005E01820009002E04FF0FF30E3E722
:1047400000BFF948407A9DF80010B0EBE10F01D1AD
:104750000020D9E7F44A1268D179F34A52681078F8
:104760006B460122FFF772FA10B14FF0FF30CBE732
:104770009DF80000C110EC4841720020C4E738B534
:104780000446E948807A10B94FF0FF3038BDFA2C62
:1047900009D0B4F5FA7F09D0B4F57A7F09D0B4F521
:1047A000FA6F0CD108E0002000900BE00820009088
:1047B00008E01020009005E01820009002E04FF083
:1047C000FF30E3E700BFD848007A9DF80010B0EB57
:1047D000E10F01D10020D9E7D34A12689179D24A7A
:1047E000526810786B460122FFF730FA10B14FF093
:1047F000FF30CBE79DF80000C010CB4908720020C5
:10480000C4E71CB580208DF80000C74A1268917C6F
:10481000C54A526810786B460122FFF717FA10B1AB
:104820004FF0FF301CBD6420FBF715FE00208DF813
:104830000000BD4A1268917CBB4A526810786B46F2
:104840000122FFF703FA10B14FF0FF30EAE7B64A52
:104850001268917DB44A526810786B460622FFF7C1
:1048600040F910B14FF0FF30DCE79DF80500C007BC
:10487000400F9DF8031001F0010140EA41009DF84E
:10488000011001F0010140EA010494B1012C03D1AF
:104890000121A548C17431E0022C03D10021A248B6
:1048A000C1742BE02146A1A003F02EF84FF0FF3099
:1048B000B8E79D4A1268D1789B4A526810786B46D7
:1048C0000122FFF70EF910B14FF0FF30AAE79DF873
:1048D000000000F00F042CB99E4803F015F84FF0CB
:1048E000FF309FE7042C06D19BA003F00DF80121B7
:1048F0008D48C17402E000218B48C174FF218A48B1
:104900008172FF2088490872FF2187484172C17275
:104910004FF6FF71C181FF21017481740121017380
:1049200080F82210002180F823104175017516309F
:10493000016041608160163880F8241080F82510ED
:10494000C1844FF4FA60FFF71AFF10B14FF0FF3047
:1049500068E70220FFF7D1FE10B14FF0FF3061E7AA
:104960002A20FFF7D2FD10B14FF0FF305AE7322076
:10497000FFF777FE10B14FF0FF3053E70020FFF74D
:104980008FFD10B14FF0FF304CE70020FFF7F8FB30
:1049900010B14FF0FF3045E70020FFF78CFB0020FF
:1049A00040E770477CB504460D465F48807A00F0CA
:1049B000700010B94FF0FF307CBD5B4A1268117B6C
:1049C000594A526810786B460622FFF78AF810B1F0
:1049D0004FF0FF30F0E79DF801009DF8001040EA2D
:1049E000012000B220809DF803009DF8021040EAEB
:1049F000012000B260809DF805009DF8041040EA97
:104A0000012000B2A08015B12846FFF7CAFF0020A0
:104A1000D2E77CB504460D464348807A00F0080092
:104A200010B94FF0FF307CBD3F4A1268517B3E4ABF
:104A3000526810786B460622FFF753F810B14FF01A
:104A4000FF30F0E79DF801009DF8001040EA0120DA
:104A500000B220809DF803009DF8021040EA01207A
:104A600000B260809DF805009DF8041040EA012026
:104A700000B2A08015B12846FFF793FF0020D2E7CF
:104A80002DE9FE4F05460C462748807A18B94FF0AD
:104A9000FF30BDE8FE8F244A1268917B224A52689B
:104AA000107802AB0222FFF71CF810B14FF0FF3074
:104AB000EFE79DF809009DF8081040EA012006B2D2
:104AC00014B12046FFF76DFF17494968C88802F006
:104AD000F6FC154901904968B1F9080002F0E6FCBE
:104AE0008346304602F0E2FC5946009002F0E0FABC
:104AF0008246019902F014FB81461F4902F086FAB2
:104B000080464FF08F4102F0D9FA074602F0EDFCE3
:104B100028600020BDE710B588B004461CB94FF0EE
:104B2000FF3008B010BD29E080000020556E73757D
:104B300070706F7274656420736F667477617265EC
:104B40002070726F64756374207265762025642E00
:104B50000A000000F099000848616C662073656ED9
:104B60007369746976697479207061727420666FF4
:104B7000756E642E0A00000000000C42206830B9F7
:104B8000606820B9A06810B9002008B010BDFA49CB
:104B90004968087806AB03221146FEF7A2FF10B160
:104BA0004FF0FF30F1E79DF81800082101EB2010CD
:104BB00000F00F00ADF800009DF8190001EB201087
:104BC00000F00F00ADF802009DF81A0001EB201074
:104BD00000F00F00ADF8040020684100BDF90000AE
:104BE000403091FBF0F000B2ADF810006068410079
:104BF000BDF90200403091FBF0F000B2ADF81200B8
:104C0000A0684100BDF90400403091FBF0F000B213
:104C1000ADF81400D8494968087806AB0622114659
:104C2000FEF75FFF10B14FF0FF30AEE79DF81900BF
:104C30009DF8181040EA012000B2ADF808009DF878
:104C40001B009DF81A1040EA012000B2ADF80A00DE
:104C50009DF81D009DF81C1040EA012000B2ADF83F
:104C60000C00BDF81000BDF80810084400B2ADF803
:104C70001000BDF81200BDF80A10084400B2ADF8EB
:104C80001200BDF81400BDF80C10084400B2ADF8D5
:104C90001400BDF81000000A8DF81800BDF81000CF
:104CA000C0B28DF81900BDF81200000A8DF81A0084
:104CB000BDF81200C0B28DF81B00BDF81400000A48
:104CC0008DF81C00BDF81400C0B28DF81D00AA4973
:104CD0004968087806AB06221146FEF7B7FF10B107
:104CE0004FF0FF3051E700204FE70146A248007A1D
:104CF00030B1012807D0022809D003280FD10AE0DB
:104D0000FA2008800EE04FF4FA7008800AE04FF4B1
:104D10007A70088006E04FF4FA60088002E0002014
:104D2000088000BF00BF0020704701469248407ACB
:104D300030B1012807D0022808D003280CD108E0A0
:104D4000022008700BE00420087008E008200870BA
:104D500005E01020087002E04FF0FF30704700BF00
:104D60008548C07C18B108784006000E0870002005
:104D7000F4E701468048C07A082817D2DFE800F03F
:104D80001704070A0D101318BC20088013E06220D6
:104D9000088010E02A2008800DE0142008800AE036
:104DA0000A20088007E00520088004E000BF00BF5B
:104DB0000020088000BF00BF0020704701466E48F9
:104DC00090F8240010B14FF0FF3070476A48C08956
:104DD00008800020F9E7014600200880401E704747
:104DE00001464FF0FF30704701466348007A30B10A
:104DF000012807D0022808D003280CD108E05F481A
:104E000008600BE05E48086008E05E48086005E066
:104E10005D48086002E04FF0FF30704700BF00209F
:104E2000FBE701465448407A30B1012808D00228F7
:104E30000AD0032810D10BE04FF4804008800EE028
:104E400041F69C7008800AE04FF48050088006E02C
:104E50004FF40060088002E04FF0FF30704700BF61
:104E60004548C07C10B10888401008800020F5E754
:104E700001464148007C08700020704701463E48CA
:104E8000807A10B10120087001E000200870002035
:104E9000704738B504463848807A10B94FF0FF3073
:104EA00038BD354A1268117C334A526810786B4617
:104EB0000222FEF716FE10B14FF0FF30F0E79DF82A
:104EC00001009DF8001040EA012000B2208000207F
:104ED000E6E72DE9FE4F0746884692461D46DDF877
:104EE00030B000260024244890F8240010B1601E41
:104EF000BDE8FE8F002028701F48807A10B94FF05F
:104F0000FF30F5E71C48007C10B94FF0FF30EFE7A9
:104F10001948007C00F0400008B1B01CC6B2164829
:104F2000007C00F0200008B1B01CC6B21248007C22
:104F300000F0100008B1B01CC6B20F48007C00F0B1
:104F4000080008B1B01DC6B20B4A1268917A0A4A2D
:104F5000526810786B460222FEF7C3FD10B14FF085
:104F6000FF30C5E79DF801009DF8001040EA0129D7
:104F7000B1450BDA0020BBE78000002000000343AE
:104F8000000083423333034233338341FC4840689B
:104F90004088B9EB600F17DDF94A1268517CF84A76
:104FA000526810786B460122FEF79BFD10B14FF05E
:104FB000FF309DE79DF8000000F0100020B1FFF7E2
:104FC00083F96FF0010093E75046FFF7EAFCEC4AE3
:104FD0001268D17AEA4A526810786B463246FEF778
:104FE00080FD10B14FF0FF3082E799FBF6F0401ED4
:104FF0008BF8000000202870B4422AD0E048007CE2
:1050000000F0080028B3601C1DF800001DF8041013
:1050100040EA012000B2A8F80000E01C1DF80010D2
:10502000A01C1DF8000041EA002000B2A8F8020010
:10503000601D1DF80010201D1DF8000041EA002031
:1050400000B2A8F80400287840F008002870A01DDD
:1050500084B2B44213D0CA48007C00F0400070B162
:10506000601C1DF800001DF8041040EA012000B289
:105070003880287840F040002870A01C84B2B442E8
:1050800013D0BF48007C00F0200070B1601C1DF8F8
:1050900000001DF8041040EA012000B27880287852
:1050A00040F020002870A01C84B2B44213D0B44851
:1050B000007C00F0100070B1601C1DF800001DF8AD
:1050C000041040EA012000B2B880287840F01000B7
:1050D0002870A01C84B200200AE7F8B504460F46E9
:1050E0001646A74890F8240010B94FF0FF30F8BDDD
:1050F000A348807A10B94FF0FF30F8E7A04A126851
:10510000917A9F4A526810786B460222FEF7E9FCBA
:1051100010B14FF0FF30EAE79DF801009DF8001054
:1051200040EA0125A54203DA00203070401EDEE788
:10513000934840684088B5EB600F17DD904A1268CD
:10514000517C8F4A526810786B460122FEF7C9FCE9
:1051500010B14FF0FF30CAE79DF8000000F01000DA
:1051600020B1FFF7B1F86FF00100C0E7E2B2844B65
:105170001B68D97A824B5B6818783B46FEF7B1FC16
:1051800010B14FF0FF30B2E795FBF4F0401E3070E5
:105190000020ACE701467A4880F8221000207047D2
:1051A0007CB5054676494968087801AB04220D2193
:1051B000FEF797FC08B107207CBD9DF80700C0F3FF
:1051C00001109DF8041001F0E00140EAE1008DF8C3
:1051D00000009DF80700C0F381009DF8051001F064
:1051E000E00140EAE1008DF801009DF8070000F0C1
:1051F00003009DF8061001F0E00140EAE1008DF89F
:10520000020000241CE01DF8040018B9002045F835
:10521000240013E05B4845F8240006E055F824001C
:10522000594901F04BFF45F824001DF80400401EC9
:10523000C0B20DF804000028F0D100BF601CC4B259
:10524000032CE0DB0020B7E72DE9FE4F06460F46B2
:1052500000256846FFF7A4FF002442E056F824002A
:1052600057F82410A0EB010ABAF1000F01DB5146F8
:1052700001E0CAF10001084602F018F983464FF038
:105280008F4101F04DFF80465DF82400002102F0BF
:1052900089F916D05DF82410404601F041FF82469E
:1052A0004FF07E5101F004FF814629F0004A374853
:1052B000416A504602F080F912D20120A040054315
:1052C0000EE03248C169404602F06CF905D32F4820
:1052D000016A404602F070F902D20120A040054365
:1052E000641C032CBADB2846BDE8FE8F2DE9FC5F69
:1052F00006460F46002522494968087801AB03227B
:105300000D21FEF7EEFB10B10720BDE8FC9F9DF8D4
:10531000040000F01F008DF804009DF8050000F067
:105320001F008DF805009DF8060000F01F008DF8A5
:105330000600002462E056F8240057F82410A0EB81
:10534000010BBBF1000F01DB594601E0CBF100017D
:10535000084602F0ABF84FF08F41009001F0E0FEFC
:10536000814601A8005DC0B30849086802F0A7F8AB
:1053700083465946064801F0D3FE80460FE0000000
:10538000800000207B14AE3E1D5A843FB48B000881
:1053900000B04C45FE49404601F090FE804601A811
:1053A000005D401EC0B201A908550028F2D1414657
:1053B000484601F0B5FE83464FF07E5101F078FE7D
:1053C00082462AF0004BF3488169584602F0F4F80F
:1053D00013D20120A04005430FE0FFE7ED4801692B
:1053E000484602F0DFF805D3EA484169484602F032
:1053F000E3F802D20120A0400543641C032C9ADB91
:10540000284682E72DE9F04F87B005460C469146C5
:1054100001208DF8100000208DF81100DE4A12687E
:10542000917CDD4A5268107804AB0222FEF70EFC34
:1054300020B14FF0FF3007B0BDE8F08FC820FBF778
:105440000AF800208DF81000D34A1268D17BD24AA6
:105450005268107804AB0122FEF7F8FB10B14FF050
:10546000FF30E8E7CC4A12685179CB4A526810788D
:1054700004AB0122FEF7EAFB10B14FF0FF30DAE790
:10548000C54A1268917CC44A5268107804AB012264
:10549000FEF7DCFB10B14FF0FF30CCE7BE4A1268DC
:1054A000D17DBD4A5268107804AB0122FEF7CEFBD5
:1054B00010B14FF0FF30BEE7B74A12681179B64A13
:1054C0005268107804AB0122FEF7C0FB10B14FF018
:1054D000FF30B0E70C208DF81000AF4A1268117948
:1054E000AD4A5268107804AB0122FEF7AFFB10B151
:1054F0004FF0FF309FE70F20FAF7ADFFA648806A14
:10550000407A8DF81000A44A12689178A24A526835
:10551000107804AB0122FEF799FB10B14FF0FF3079
:1055200089E79D48806A007A8DF810009A4A1268CF
:105530005178994A5268107804AB0122FEF786FB35
:1055400010B14FF0FF3076E7B9F1000F07D0924865
:10555000806A807A40F0E0008DF8100004E08E4808
:10556000806A807A8DF810008B4A126891798A4A95
:105570005268107804AB0122FEF768FB10B14FF0BF
:10558000FF3058E7B9F1000F07D08348806AC07A2E
:1055900040F0E0008DF8100003E07E48C07A8DF8FE
:1055A00010007D4A1268D1797B4A5268107804ABAA
:1055B0000122FEF74BFB10B14FF0FF303BE7B9F192
:1055C000000F02D0C820FAF746FF40208DF81000E7
:1055D000714A12681179704A5268107804AB01223E
:1055E000FEF734FB10B14FF0FF3024E778208DF840
:1055F0001000694A12685179674A5268107804AB02
:105600000122FEF723FB10B14FF0FF3013E7614991
:105610008889FAF720FF00208DF810005E4A126892
:1056200051795D4A5268107804AB0122FEF70EFBF7
:1056300010B14FF0FF30FEE6574A1268917A564A91
:105640005268107804AB0222FEF74BFA10B14FF00B
:10565000FF30F0E69DF811009DF8101040EA012B94
:105660000C209BFBF0F0C6B20020A86068602860A8
:10567000A06060602060824665E0474A1268D17A87
:10568000454A5268107804AB0C22FEF72AFA10B192
:105690004FF0FF30CFE69DF811009DF8101040EA62
:1056A000012000B2ADF808009DF813009DF812101B
:1056B00040EA012000B2ADF80A009DF815009DF8FF
:1056C000141040EA012000B2ADF80C00BDF908103A
:1056D000206808442060BDF90A10606808446060D2
:1056E000BDF90C10A0680844A0609DF817009DF853
:1056F000161040EA012000B2ADF800009DF8190034
:105700009DF8181040EA012000B2ADF802009DF8A3
:105710001B009DF81A1040EA012000B2ADF8040009
:10572000BDF90010286808442860BDF902106868B7
:1057300008446860BDF90410A8680844A8600AF12C
:10574000010000F0FF0AB24597DB1248D0F800C014
:105750002868C117090441EA104107046246002382
:10576000384601F0E3FB32460023CDE9020101F0A7
:10577000DDFB28600748D0F800C06868C11709043D
:1057800041EA1041070462460023384606E0000063
:1057900054E3853FB48B00088000002001F0C6FB75
:1057A00032460023CDE9020101F0C0FB6860FE48EB
:1057B000D0F800C0A868C117090441EA10410704E5
:1057C00062460023384601F0B1FB32460023CDE9A2
:1057D000020101F0ABFBA860F348D0F804C02168D7
:1057E000C817000440EA11480F04624600233846F7
:1057F000414601F09BFB32460023CDE9020101F056
:1058000095FB2060E848D0F804C06068C11709041F
:1058100041EA1041070462460023384601F086FB46
:1058200032460023CDE9020101F080FB6060DE48D2
:10583000D0F804C0A068C117090441EA1041070468
:1058400062460023384601F071FB32460023CDE961
:10585000020101F06BFBA060A068002804DDA068D5
:10586000A0F58030A06003E0A06800F58030A06063
:105870000020E0E538B50446CC4890F82400A0426A
:1058800001D1002038BD24B3C84890F8250010B9D4
:105890004FF0FF30F6E70020FEF74AFB0020FEF74E
:1058A0006FFCC249C88CFEF7DCFE00200090BF49A7
:1058B000496808786B4601222321FEF7C7F90121C8
:1058C000BA4880F824100120FEF732FBFEF7FCFCFA
:1058D00013E00020FEF72CFBB448007C0090B34995
:1058E000496808786B4601222321FEF7AFF90021B1
:1058F000AE4880F82410FEF7E7FC0020C2E72DE94F
:10590000F04F8DB083460F4602200C90A74890F8C8
:10591000240020B10020FFF7ADFF012600E00026A3
:1059200003A8FFF7E2F905A8FFF7FFF901A8FFF7C1
:1059300020FA02A8FFF742FA9C4890F80AA004A8AF
:10594000FFF796FA002407E0002239465846FFF791
:1059500059FD00B902E0641C022CF5DB00BF022CEB
:1059600001D1002528E0002407E0012206A909A8AA
:10597000FFF748FD00B902E0641C022CF5DB00BF14
:10598000022C01D1002517E006A93846FFF75CFC80
:1059900000F0FF0809A95846FFF7A8FC00F0FF092E
:1059A0000025B9F1000F01D145F00105B8F1000F54
:1059B00001D145F0020500BFFF207C490872FF219C
:1059C0007A484172C1724FF6FF71C181FF21817225
:1059D000017401210173BDF80C00FEF7D0FE9DF8A3
:1059E0001400FEF78AFEBDF80400FEF78EFDBDF838
:1059F0000800FEF736FE5046FEF75DFB9DF81000EE
:105A0000FEF74EFD16B10120FFF734FF28460DB01A
:105A1000BDE8F08FF8B504460D46164616B94FF0AE
:105A2000FF30F8BD6148807A10B94FF0FF30F8E7D9
:105A300020128DF80000E0B28DF801009DF8010001
:105A400028445A4949684989884202DD4FF0FF30AD
:105A5000E7E7564A1268117E544A526810786B463E
:105A60000222FEF7F3F810B14FF0FF30D9E7EAB2A7
:105A70004E4B1B68597D4D4B5B6818783346FEF7DB
:105A8000E5F810B14FF0FF30CBE70020C9E7F8B5DB
:105A900004460D46164616B94FF0FF30F8BD434890
:105AA000807A10B94FF0FF30F8E720128DF800002F
:105AB000E0B28DF801009DF8010028443B49496897
:105AC0004989884202DD4FF0FF30E7E7374A126824
:105AD000117E364A526810786B460222FEF7B6F8FD
:105AE00010B14FF0FF30D9E7EAB2304B1B68597D57
:105AF0002E4B5B6818783346FDF7F3FF10B14FF07B
:105B0000FF30CBE70020C9E72DE9F04385B005461B
:105B10000E4690469946254890F8250020B14FF052
:105B2000FF3005B0BDE8F08316B94FF0FF30F8E75D
:105B3000002423E0281B102801DD102000E0281B92
:105B400087B2321939462046FFF764FF10B14FF093
:105B5000FF30E6E701AA39462046FFF798FF10B16B
:105B60004FF0FF30DDE730193A4601A901F041FA64
:105B700010B16FF00100D4E7E01984B2AC42D9DB78
:105B80004FEA28208DF8000008F0FF008DF8010092
:105B9000064A1268917E054A526810786B460222C6
:105BA000FEF754F838B103E0B48B00088000002001
:105BB0004FF0FF30B5E70121FE4880F82510A0F82E
:105BC00026900020ADE70146FA4890F824000870BE
:105BD000002070474FF0FF30704702464FF0FF3013
:105BE000704701464FF0FF307047F8B505460F4645
:105BF0001446002C70D0B5F5FF5F01DDFF2605E0EF
:105C0000202D01DA012601E0C5F3471607B9012767
:105C1000282C02DD4FF0FF30F8BDE648407D28BB60
:105C2000E44890F8240038B10020FFF723FE01215A
:105C3000E04880F8201003E00021DE4880F82010C2
:105C4000DC481630FFF751F8DA481830FFF76DF8E6
:105C5000D8481A30FFF78DF8D6481C30FFF7AEF859
:105C6000D448817A81771F30FFF702F90020FEF7D0
:105C70005FF90020FEF788FC00208DF80000CD4A77
:105C800012689178CB4A526810786B460122FDF772
:105C9000DDFF10B14FF0FF30BEE740208DF800006F
:105CA000C44A1268D17BC34A526810786B460122FD
:105CB000FDF7CCFF00B165E08DF800608DF8017054
:105CC000BC4A1268117ABB4A526810786B460222AD
:105CD000FDF7BCFF08B155E047E00520FAF7BBFB34
:105CE000B448407A072101EBC000C0B28DF8000033
:105CF000B04A1268D179AF4A526810786B460122D7
:105D0000FDF7A4FF00B13DE020208DF80000012C3C
:105D100003D100208DF801000EE0052C03DC0120EA
:105D20008DF8010008E0142C03DC02208DF801003E
:105D300002E003208DF801009DF80100072101EB2E
:105D40008010C0B28DF801009A4A1268917C994A7D
:105D5000526810786B460222FDF778FF00B111E01F
:105D6000012194484175002056E7924A16320021DD
:105D700003E0505C00B105E0491C0C29F9D34FF059
:105D8000FF3049E7FF208B490872FF2189484172A3
:105D9000C1724FF6FF71C181FF218172017401212F
:105DA00001730146887FFEF786F98249C88AFEF7AB
:105DB000E6FC8049087EFEF7A0FC7E49488BFEF792
:105DC000A4FB7C49888BFEF74CFC7A49C87FFEF720
:105DD00067FB784890F8200010B10120FFF74AFDDA
:105DE000002174484175002016E770B588B002A9FB
:105DF00005A8FFF784FD0446032C3ED101A8FEF759
:105E0000F3FF059801F052FB0646019901F056F99F
:105E1000054601F06AFB0590069801F047FB06462F
:105E2000019901F04BF9054601F05FFB06900798D8
:105E300001F03CFB0646019901F040F9054601F0EE
:105E400054FB079005A800F054FA6846FEF7E9FFF6
:105E5000BDF80010029848430290BDF80010039866
:105E600048430390BDF8001004984843049002A8EA
:105E700000F0D2FA002008B070BD0120FBE7014617
:105E800091F90020002A01DD00201EE091F9002098
:105E9000002A01DA042018E091F90120002A01DD2E
:105EA000012012E091F90120002A01DA05200CE01E
:105EB00091F90220002A01DD022006E091F902207A
:105EC000002A01DA062000E00720704710B50446DA
:105ED0002046FFF7D4FF0346E01CFFF7D0FF43EA5C
:105EE000C00083B2A01DFFF7CAFF43EA801083B24F
:105EF000184610BD70B50024FDF7E9FEFEF781FCE1
:105F0000002840D17820FEF7D6F8C4B20CB10120A9
:105F100070BD7820FEF7C4FAC4B20CB10220F7E7D6
:105F20006420FEF79EFBC4B20CB10320F0E700F042
:105F300045F9C4B20CB10420EAE71F48FFF7C6FFD9
:105F4000054600F045F9C4B20CB10520E0E740F287
:105F5000731000F07EFDC4B20CB10620D8E76420B7
:105F600000F0F0FAC4B20CB10720D1E7FFF73DFF13
:105F700004460CB10820CBE70120FFF77BFCC4B23C
:105F80001CB10920C4E70A20C2E70020C0E72DE9C0
:105F9000F04F99B004460D4616464FF07E574FF02D
:105FA00000084FF000094FF0000A12A813A918AB1F
:105FB0000EAA03E080000020AC000020CDE9001014
:105FC00014A916A800F0A4FE18B1012019B0BDE86C
:105FD000F08FBDF84C0000F4807000287ED00E9841
:105FE00001F064FA83464FF09D4101F099F80746AD
:105FF0000F9801F05BFA83464FF09D4101F090F855
:106000008046109801F052FA83464FF09D4101F00E
:1060100087F88146119801F049FA83464FF09D4177
:1060200001F07EF8824639464FF0804001F046F894
:106030004946059001F042F8414607904FF0404034
:1060400001F03CF85146059001F038F806900799A8
:1060500000F0DCFF834601F075FACDE9080102F09B
:106060002BFA4FF06632544BCDE90A0101F03DF9AD
:10607000CDE90C0101F079FA206049464FF08040EB
:1060800001F01CF84946029001F018F841460490CE
:106090004FF0404001F012F84146029001F00EF836
:1060A0000390049901F004F883464FF07E5100F00C
:1060B000ADFF059001F046FACDE9080139464FF0F1
:1060C000804000F0FBFF4146039000F0F7FF494697
:1060D00004904FF0804000F0F1FF00E068E051468E
:1060E000039000F0EBFF8346049900F08FFF0590CA
:1060F00001F028FACDE90601DDE9082302F024FCCD
:106100004FF066322C4BCDE90A0101F0EEF8CDE9F3
:106110000C0101F02AFA28605146504600F0CEFFEB
:1061200049460490484600F0C9FF41460390404666
:1061300000F0C4FF39460190384600F0BFFF0090E0
:10614000019900F063FF0290039900F0B1FF8346CC
:10615000049900F0ADFF059001F0F4F9CDE90801D4
:106160005146384600F0AAFF49460490404600F0E8
:10617000A5FF0390049900F049FF4FF0804105907E
:1061800000F09CFF834601F0DDF9CDE90601DDE971
:10619000082302F0D9FB4FF06632074BCDE90A0124
:1061A00001F0A3F8CDE90C0101F0DFF9306001E066
:1061B00002200BE7002009E766A64C4010B5C82373
:1061C0004FF48062F74940F6F630FFF79DFC10BDB2
:1061D00010B586B00446F4A000680390F3A00068F0
:1061E0000290F3A000680190F2A00068009004F013
:1061F000030003A9085C8DF8140003A8C4F3C101CF
:10620000405C8DF8150003A8C4F38111405C8DF843
:10621000160004F0030002A9085C8DF8100002A823
:10622000C4F3C101405C8DF8110002A8C4F38111D0
:10623000405C8DF8120005AA032140F22640FFF7CA
:10624000E9FB18B14FF0FF3006B010BD04AA0321DE
:1062500040F22A40FFF7DEFB10B14FF0FF30F3E7CA
:10626000019805900098049004F0040058B19DF83E
:10627000140040F001008DF814009DF8100040F06B
:1062800001008DF8100004F0200058B19DF81500B1
:1062900040F001008DF815009DF8110040F001005C
:1062A0008DF8110004F4807058B19DF8160040F08C
:1062B00001008DF816009DF8120040F001008DF8E5
:1062C000120005AA03214FF48860FFF7A3FB10B169
:1062D0004FF0FF30B8E704AA032140F23140FFF746
:1062E00099FB10B14FF0FF30AEE7B34804810020B6
:1062F000AAE71FB50446B048007A00F0030054F83E
:1063000020000190AC48007A00F0040010B1019820
:1063100040420190A848007AC0F3C10054F8200020
:106320000290A548007A00F0200010B10298404287
:106330000290A148007AC0F3811054F82000039025
:106340009D48008900F4807010B10398404203908A
:106350009A49019880FB0101800F40EA8100019079
:106360009649029880FB0110820042EA91700290E7
:106370009249039880FB0110820042EA91700390D9
:106380000198000E8DF800000198000C8DF80100B6
:106390000198000A8DF802000198C0B28DF8030040
:1063A0006A4604214FF47470FFF734FB18B14FF0C4
:1063B000FF3004B010BD0298000E8DF80000029866
:1063C000000C8DF801000298000A8DF80200029876
:1063D000C0B28DF803006A4604214FF47570FFF7D0
:1063E00019FB10B14FF0FF30E3E70398000E8DF872
:1063F00000000398000C8DF801000398000A8DF846
:1064000002000398C0B28DF803006A4604214FF4DD
:106410007670FFF7FFFACCE770B588B0064601A8A2
:10642000FEF7FFFCBDF804000021C90341EA504516
:10643000C4036148007A00F0030056F8200005907C
:106440005D48007A00F0040010B1059840420590C4
:106450005948007AC0F3C10056F82000069056480B
:10646000007A00F0200010B1069840420690524891
:10647000007AC0F3811056F8200007904E4800893A
:1064800000F4807010B10798404207900598C1173A
:10649000A0FB042301FB043100FB0510810041EA4D
:1064A000927005900698C117A0FB042301FB0431EC
:1064B00000FB0510810041EA927006900798C11711
:1064C000A0FB042301FB043100FB0510810041EA1D
:1064D000927007900598000E8DF808000598000C42
:1064E0008DF809000598000A8DF80A000598C0B2D9
:1064F0008DF80B000698000E8DF80C000698000C25
:106500008DF80D000698000A8DF80E000698C0B2AE
:106510008DF80F000798000E8DF810000798000CFA
:106520008DF811000798000A8DF812000798C0B284
:106530008DF8130002AA0C214FF42570FFF76AFAB8
:1065400008B070BD30B585B004461DA207CA02ABC5
:1065500007C3C82C03DD4FF0FF3005B030BDC820A5
:1065600090FBF4F0401E85B2280A8DF80000E8B2D6
:106570008DF801006A46022140F21620FFF74AFA20
:1065800010B14FF0FF30E8E702AA0C2140F6C1201D
:10659000FFF740FA10B14FF0FF30DEE70648848184
:1065A0000020DAE7DC8B00084CCD6C000CC92C0015
:1065B00036567600264666009C01002009E3CA0292
:1065C000FEF2ABC4AAF1DFDFBBAFDFDF0146FC4860
:1065D00080890880002070472DE9FC4706460F4659
:1065E00006F0070010B1B7F5C86F03DD4FF0FF30BC
:1065F000BDE8FC87384600F062FF8146F14900F0B3
:106600008FFD80466846FEF790FB9DF8000002284B
:1066100006D0042816D0082826D0102848D135E006
:106620004FF08D41404600F049FD814600F076FF75
:1066300084B2E549404600F041FD814600F06EFF1E
:1066400085B238E04FF08C41404600F037FD81467E
:1066500000F064FF84B2DD49404600F02FFD814622
:1066600000F05CFF85B226E04FF08B41404600F021
:1066700025FD814600F052FF84B2D549404600F026
:106680001DFD814600F04AFF85B214E04FF08A41BB
:10669000404600F013FD814600F040FF84B2CD4932
:1066A000404600F00BFD814600F038FF85B202E065
:1066B0004FF0FF309CE700BF20128DF80400E0B2DD
:1066C0008DF8050028128DF80600E8B28DF8070055
:1066D00006F00100A0B101AA02214FF4EA70FFF711
:1066E00099F910B14FF0FF3082E70DF10602022157
:1066F0004FF49270FFF78EF910B14FF0FF3077E74B
:1067000006F00200A0B101AA02214FF4EC70FFF7DD
:1067100081F910B14FF0FF306AE70DF10602022156
:106720004FF49470FFF776F910B14FF0FF305FE748
:1067300006F00400A0B101AA02214FF4EE70FFF7A9
:1067400069F910B14FF0FF3052E70DF10602022156
:106750004FF49670FFF75EF910B14FF0FF3047E746
:10676000002045E738B504460020009004F0010001
:1067700020B19DF8000040F03000009004F00200CD
:1067800020B19DF8000040F00C00009004F00400DF
:1067900020B19DF8000040F0030000906A460121FE
:1067A0004FF4A470FFF736F938BD38B50446012C14
:1067B00001DA012402E0042C00DD0424601EC0B2D2
:1067C00000906A46012140F24F10FFF723F938BDCF
:1067D00038B50446052094FBF0F085B228128DF8F8
:1067E0000000E8B28DF801006A4602214FF4EF7014
:1067F000FFF710F938BD38B50446052094FBF0F0DA
:1068000085B228128DF80000E8B28DF801006A46C2
:1068100002214FF4ED70FFF7FDF838BDF8B50546DD
:106820000E464FF47A7095FBF0F000FB06F4200E54
:106830008DF80000200C8DF80100200A8DF8020070
:10684000E0B28DF803006A4604214FF4AE70FFF702
:10685000E1F8F8BD38B50446052094FBF0F084B2A9
:1068600020128DF80000E0B28DF801006A46022186
:106870004FF4AD70FFF7CEF838BD38B504460520AB
:1068800094FBF0F084B220128DF80000E0B28DF895
:1068900001006A4602214FF4AC70FFF7BBF838BD27
:1068A00038B5044614B94FF0FF3038BD6A460421AC
:1068B0004FF45870FFF7EBF810B14FF0FF30F4E7EA
:1068C0009DF8000000069DF8011040EA01409DF887
:1068D000021040EA01209DF80310084320600020C8
:1068E000E3E738B50446200E8DF80000200C8DF843
:1068F0000100200A8DF80200E0B28DF803006A461C
:1069000004214FF45870FFF785F838BD38B50446B8
:1069100014B94FF0FF3038BD6A4604214FF471704E
:10692000FFF7B5F810B14FF0FF30F4E79DF8000025
:1069300000069DF8011040EA01409DF8021040EA6F
:1069400001209DF80310084300EB800080002060C8
:106950000020E0E738B504461420B4FBF0F4200E24
:106960008DF80000200C8DF80100200A8DF802003F
:10697000E0B28DF803006A4604214FF47170FFF70E
:1069800049F838BD38B5044664B120208DF80000C0
:1069900028208DF8010030208DF8020038208DF875
:1069A000030004E0A3220421684600F0F0FA6A46DE
:1069B000042140F69E20FFF72DF8FDF785FC38BD39
:1069C0009C01002000004843000040460000C045F4
:1069D000000040450000C04438B5044664B1C02002
:1069E0008DF80000C2208DF80100C4208DF802004F
:1069F000C6208DF8030004E08B220421684600F0D5
:106A0000C6FA6A46042140F69820FFF703F8FDF71E
:106A10005BFC38BD3EB504466CB1FDA1D1E9002058
:106A20008968CDE9002002916A4609214FF49760F8
:106A3000FEF7F0FF3EBDF9A2D2E900109268CDE961
:106A4000010200916A4609214FF49760FEF7E2FFC8
:106A5000F0E73EB5044602208DF80000CA208DF80C
:106A60000100E3208DF8020009208DF803006A463A
:106A700004216820FEF7CEFFA3208DF8000004F06B
:106A8000400048B1C0208DF80100C8208DF80200F8
:106A9000C2208DF8030006E0A3208DF801008DF8D8
:106AA00002008DF8030004F4C07048B1C4208DF8D2
:106AB0000400CC208DF80500C6208DF8060006E005
:106AC000A3208DF804008DF805008DF80600A320A2
:106AD0008DF807008DF808008DF809006A460A2134
:106AE00040F6A720FEF796FF04F0030018B120201F
:106AF0008DF8000002E0D8208DF800006A460121E0
:106B000040F6B620FEF786FF04F0200018B1012001
:106B1000FFF780FF02E00020FFF77CFF04F4C07065
:106B200008B304F4807060B1B2208DF800008B20AF
:106B30008DF80100B6208DF802009B208DF803002F
:106B40000BE0B0208DF8000080208DF80100B4200B
:106B50008DF8020090208DF803006A46042140F66B
:106B6000A220FEF757FF04F0010020B3F8208DF8B3
:106B700000006A4601214FF40B60FEF74BFFFA213B
:106B80000720FFF729FD0720FFF7ECFD0120FFF7A5
:106B90000CFE6420FFF71CFE4FF4FA70FFF72BFE8B
:106BA000C821A148FFF73AFE2820FFF753FE0A202C
:106BB000FFF763FE08E0D8208DF800006A46012147
:106BC0004FF40B60FEF726FF04F0020018B1D92045
:106BD0008DF8000002E0D8208DF800006A460121FF
:106BE00040F23D70FEF716FF04F0040018B10120DA
:106BF000FFF7F2FE02E00020FFF7EEFE04F01000C7
:106C000018B10120FFF7BEFE02E00020FFF7BAFE38
:106C100044F0080085494881FDF756FB0020834970
:106C2000887304F0400018B10846807B801D88738B
:106C300004F4C07020B17D48807B801D7B4988733F
:106C400004F0140020B17948807B103077498873B4
:106C500004F0030020B17548807B001D73498873E0
:106C600000203EBD014671484089088000207047E1
:106C70002DE9F0410446E07800F0C006E07800F02D
:106C80003F05607800F0010098B1EF102846E91741
:106C900005EB5171C910A5EBC101491C01F0FF08BA
:106CA0006248006820B16148414602683846904712
:106CB00000BF607800F0080030B15C48406818B14F
:106CC000B0115A4A516888470020BDE8F08110B5DC
:106CD00086B0044656A207CA03AB07C357A207CA29
:106CE0008DE80700012C09D0022C0ED103AA0B213C
:106CF00040F68220FEF78EFE06B010BD6A460B21DC
:106D000040F68220FEF786FEF6E74FF0FF30F3E70D
:106D10002DE9F04F8DB00746884615469946DDE9C6
:106D2000166B0024002030804049887B5A4605A914
:106D3000FEF7D3F918B1601E0DB0BDE8F08F3B48E7
:106D4000807A00F01400002861D09DF8140000063D
:106D50009DF8151040EA01409DF8161040EA012008
:106D60009DF81710084328609DF8180000069DF84C
:106D7000191040EA01409DF81A1040EA01209DF8E0
:106D80001B10084368609DF81C0000069DF81D104C
:106D900040EA01409DF81E1040EA01209DF81F10B6
:106DA0000843A8609DF8200000069DF8211040EAE5
:106DB00001409DF8221040EA01209DF8231008436D
:106DC000E86004F11000C4B22868001401906868FB
:106DD00000140290A86800140390E868001404905E
:106DE00001984043029901FB0100039901FB010056
:106DF000049901FB010ABAF1706F02DBBAF1885FF6
:106E000022DDFDF761FA00203080401E94E721E08A
:106E1000B8AAB38DB4980D355D000000B8AAAAAA2F
:106E2000B088C3C5C700000009E3CA029C01002066
:106E3000D8B1B9F38BA391B609B4D900DAB1B9F3DB
:106E40008BA391B6DAB4DA00B6F9000040F4807092
:106E5000308000BF3448807A00F0400020B305A99C
:106E6000601C085C095D40EA012000B2A8F800003F
:106E700005A9E01C095C05AAA01C105C41EA0020E1
:106E800000B2A8F8020005A9601D095C201D105C75
:106E900041EA002000B2A8F80400A01DC4B2B6F96F
:106EA000000040F0080030801F48408900F4C070A6
:106EB00008B305A9601C085C095D40EA012000B226
:106EC000388005A9E01C095C05AAA01C105C41EAF9
:106ED000002000B2788005A9601D095C201D105CAF
:106EE00041EA002000B2B880A01DC4B2B6F900008B
:106EF00040F0700030800C48807A00F0030018B138
:106F000005A90819FFF7B4FE4846FDF74AFD002021
:106F100012E701460448016000207047014602481C
:106F200041600020704700009C0100202DE9F041E5
:106F30000024061B254671F1000605DA012400270E
:106F4000D0EB070067EB0101161E73F1000605DAAE
:106F50000027D2EB0702012567EB030300F036FBA5
:106F600086460E4617469C46AC4204D00025D0EB20
:106F7000050E65EB010624B10020D2EB000760EBA3
:106F8000030C704631463A466346BDE8F081D2B202
:106F900001E000F8012B491EFBD270470022F6E702
:106FA00010B513460A4604461946FFF7F0FF20467F
:106FB00010BD30B505462A460B4612F8010B13F8F2
:106FC000014B08B1A042F8D01CB1002802D06D1CC2
:106FD000F1E7284630BD10B5002200E0521C835C6A
:106FE0008C5CA34201D1002BF8D1D8B2E1B2401A97
:106FF00010BD30B504460020034600E05B1C934200
:1070000003D2E05CCD5C401BF8D030BDF0B480EA28
:107010000102D40F4200B2EB410F02D202460846F1
:1070200011464A0042D0C30DDDB2C1F3C752AD1ABA
:10703000202D35DAC1F3160141F4000204B15242A9
:10704000C5F1200602FA06F12A411044B3EBD05FE5
:1070500023D0C4B1012DA0EBC35009DCF0BC4FF02C
:10706000004202EAC352DBB200F5000000F009BBA7
:10707000400000F1807000EBC350A0F1807040EA46
:10708000D170490009E0490841EAC071A0EBC35042
:1070900000F50000400800EBC350F0BC00F0E8BA77
:1070A0006142012202EB4101001BF6E7F0BC704790
:1070B00081F00041AAE780F00040A7E780EA0102E2
:1070C00010B502F00043400022D04A001FD0010E4C
:1070D00001EB1261C0F35600C2F3560240F4000007
:1070E00042F40002A0FB022000047F39140400D007
:1070F000401C50EA124001D44000491EC2B20C06A6
:1071000004EBD010401C4008802A02D003E000208D
:1071100010BD20F00100002900DA0020184310BD46
:1071200030B480EA010202F0004530F0004221F064
:10713000004013D090B1C30DD40DC2F31601C0F3BB
:107140001600E41A41F4000140F400027D3491423B
:1071500001D3641C00E04900002C02DA30BC00209E
:1071600070474FF400000023914201D3891A034372
:1071700040084FEA4101F7D151B1914202D14FF09D
:10718000004105E002D24FF0010101E06FF0010182
:1071900003EBC450284430BC00F06ABA2DE9FE4F1E
:1071A000804681EA0300C00F0C46009021F00041A8
:1071B00023F00045B8EB0200A94105D24046214624
:1071C00090461C460B46024623F00040104347D031
:1071D000270DC7F30A00C3F30A510290401A019029
:1071E00040286BDAC3F3130040F4801B00989246EA
:1071F00020B10023D2EB030A63EB0B0B0198594635
:10720000C0F14002504600F012FA06460D465046C4
:107210005946019A00F01AFA10EB08006141002467
:1072200087EA115284EAE7731A4340D0009A62B3A6
:10723000019A012A4FEA075215DC001B61EB02019B
:107240004FF0004202EA0752CDE90042001C41F52E
:10725000801132462B4600F051FA03B0BDE8F08FA2
:1072600040462146F9E7001B61EB0201001C41F595
:10727000801300185B412018A2F5001747EB0301AB
:1072800040EAD570B6196D4111E06D084FEA360637
:1072900045EAC0754FEA0752001B61EB0201001C72
:1072A00041F5801149084FEA30000019514132463A
:1072B0002B4603B0BDE8F04F00F011BA0098012250
:1072C00040000023D0EB020263EBE07300982146FC
:1072D0004FEAE074B8EB000061EB0401E9E783F0EA
:1072E00000435BE781F0004158E72DE9FE4F81EA5A
:1072F000030404F0004421F0004100944FF0000B1F
:1073000023F0004350EA01045ED052EA03045BD04C
:10731000C3F30A54C1F30A552C44A4F2F334019484
:10732000A0FB0254C1F3130141F48011C3F3130312
:1073300043F4801301FB024400FB034E840A970AC6
:1073400044EA815447EA8357A4FB076802958D0AF3
:1073500005FB07854FEA932C04FB0C542705029D7F
:107360004FEA065847EA1637B5EB08056EEB070CEF
:10737000870E920E47EA811742EA8312A7FB0201A9
:10738000B6EB0B0164EB00042B0D43EA0C335E18E3
:1073900044EB1C50DA465146E7FB0201C5F31304E7
:1073A0004FEA0B3343EA14534FEA0432019C43EA99
:1073B0000603A4F10C040294009CCDE900B400F093
:1073C0009DF903B0BDE8F08F00200146F9E72DE9F3
:1073D000F04D81EA030404F0004B21F0004514460F
:1073E0004FF0000A23F0004150EA050220D054EA91
:1073F00001021DD0C5F30A570246C5F31303C1F3BA
:107400001300C1F30A5640F4801543F48013A7EB30
:107410000608101BD64608F2FD3873EB050002D3B0
:1074200008F1010801E092185B41B8F1000F03DA9E
:1074300000200146BDE8F08D00204FF48011064683
:1074400084460EE0171B73EB050705D3121B63EB95
:10745000050306434CEA010C49084FEA3000921834
:107460005B4150EA0107EDD152EA030012D082EAF3
:10747000040083EA0501084305D0101BAB4106D286
:107480000122002306E000224FF0004302E06FF0EB
:10749000010253101AEB06004CEB085110EB0A00E6
:1074A00041EB0B01BDE8F04D00F019B9C10F80EAC6
:1074B000E0700844CA079623002100F0E2B8962342
:1074C0000022114600F0DDB80EB5C10F80EAE07071
:1074D0000844CA07002140F233438DE80E000A46F3
:1074E0000B4600F00BF903B000BD00F0004220F0A5
:1074F0000040C10DC0F3160040F400007F2901DAFE
:1075000000207047962903DCC1F19601C84001E0D4
:1075100096398840002AF4D04042704720F000405D
:10752000C10DC0F3160040F400007F2901DA0020ED
:107530007047962903DCC1F19601C840704796391F
:107540008840704700F0004230F000400AD0C10D82
:1075500001F56071C0F3160042EA0151C20840070C
:107560001143704700200146704701F0004330B4DA
:1075700021F0004150EA010206D00A0DA2F5607226
:10758000C1F31301002A02DC30BC00207047440F15
:1075900044EAC104C100E01830BC00EBC25000F066
:1075A00067B80000002801DBC0F10040002901DBC2
:1075B000C1F1004181427047002801DBC0F1004069
:1075C000002901DBC1F10041884270472DE9F05FDD
:1075D0000546002092469B46884606468146402442
:1075E0001BE0284641464746224600F0FFF8534636
:1075F0005A46C01A914110D311461846224600F04F
:1076000016F82D1A67EB01084F462246012000218B
:1076100000F00DF817EB00094E41201EA4F1010403
:10762000DFDC484631462A464346BDE8F09F202A23
:1076300004DB203A00FA02F1002070479140C2F1C9
:10764000200320FA03F3194390407047202A06DBF9
:10765000CB17203A41FA02F043EAE07306E041FA20
:1076600002F3D040C2F1200291400843194670470E
:107670000029A8BF7047401C490008BF20F0010046
:10768000704710B4B0FA80FC00FA0CF050EA010424
:1076900004BF10BC704749B1CCF1200421FA04F4B6
:1076A00011FA0CF118BF012121430843A3EB0C018F
:1076B000CB1D4FEA00614FEA102042BF002010BCF2
:1076C000704700EBC35010440029A4BF10BC7047A2
:1076D000401C490008BF20F0010010BC704710B5E5
:1076E000141E73F1000408DA401C41F100019218E5
:1076F0005B411A4301D120F0010010BD2DE9F04D8E
:1077000092469B4611B1B1FA81F202E0B0FA80F2E2
:1077100020329046FFF78BFF04460F4640EA0A00EE
:1077200041EA0B0153465A46084313D0114653EA27
:10773000010019D0C8F14002504600F057F8054644
:107740000E46504659464246FFF771FF084305D0A2
:10775000012004E020463946BDE8F08D00200543B5
:1077600046EAE0762C4337430A986305E40AA0EB27
:1077700008000022FD0A44EA47540A3002D50020DE
:107780000146E9E7010510196941DDE908450019DD
:107790006941BDE8F04DA2E770B521F00043034315
:1077A0000CD0C1F30A550024D5EB040564EB0403A7
:1077B000D617AD1AB34102DB0020014670BD201878
:1077C00041EB025170BD0000064C074D06E0E06839
:1077D00040F0010394E8070098471034AC42F6D318
:1077E000F8F788FC409A0008609A0008202A04DB19
:1077F000203A21FA02F00021704721FA02F3D0402A
:10780000C2F1200291400843194670472DE9F04D1E
:1078100000231A461B1A8A4103DB00200146BDE8FB
:10782000F08DC1F30A52C1F3130141F480154FF0FA
:10783000000BD10702D100186D41521E00270446EB
:1078400040F2FF11384601EB620A3E46804602468E
:1078500000204FF48011FFF7C9FFC2197141BB1816
:1078600046EB0100B4EB030C75EB000C04D3E41AF7
:1078700065EB000517460E46241908F101006D411D
:1078800080463428E3DDF91946EB0600091BA841C0
:1078900003D24FF0FF32134601E0002213461BEBE8
:1078A000070046EB0A51BDE8F04DFFF718BF0EB5D3
:1078B00040F2334102910021CDE900110A460B4606
:1078C000FFF71CFF03B000BD70B5C1F30A5201F011
:1078D00000450024C1F3130140F2FF3341F480114D
:1078E0009A4201DA002070BD40F233439A42A2F27C
:1078F000334203DC5242FFF779FF00E090402C4313
:10790000F1D0404270BD00000FB4054B10B503A983
:10791000044A029800F09EFB10BC5DF814FB0000C6
:10792000C98A0008B8000020490050EAC12018BFE9
:1079300004204A0D18BF40F0010040F2FF72B2EB84
:10794000515F08BF40F00200012808BF05207047C2
:107950002DE9F74F144694B00021C4E9021115999E
:10796000079121F00045C9498D4206DC1599C4E90B
:10797000000117B00020BDE8F08FC549DFF814A35F
:10798000A9423CDD0799C44E0029C44FC44A159949
:10799000534619DDFFF7A3FC554506D0C14AC24B3B
:1079A000FFF79DFCC4E900010AE04FF0D352BE4B43
:1079B000FFF795FC32463B46FFF791FCC4E9000116
:1079C00017B00120BDE8F08FFFF7E8FB554506D062
:1079D000B44AB54BFFF7E2FBC4E900010AE04FF0FF
:1079E000D352B14BFFF7DAFB32463B46FFF7D6FBEB
:1079F000C4E9000117B04FF0FF30BDE8F08FAB498C
:107A0000A942159978DB21F0004183468846A84AAF
:107A1000A84BFFF76AFC0022A74BFFF7BFFBFFF75D
:107A200053FF0990FFF750FD06460F469C4A534608
:107A3000FFF75BFC43465A46FFF754FC80468A46F4
:107A4000984A994B30463946FFF74FFC2A0D0125DD
:107A50000B9242465346FFF745FC032DC4E9000153
:107A600039D00B98C1F30A51401A05EB4511113971
:107A7000814230DA9148C346784400EB0510CDF8D6
:107A80000CA00C90D0E9002330463946FFF72DFCBE
:107A900002460B460491069058460399FFF71FFCD7
:107AA00080468A4602460B4658460399FFF717FC64
:107AB000049B069AFFF713FC83460C980391394602
:107AC000D0E902233046FFF710FC5A46039BFFF72C
:107AD00006FC6D1CBDE707980028A2BF099817B0E7
:107AE000BDE8F08F616881F000416160099817B0CE
:107AF0004042BDE8F08FFFE784461598C1F31301BB
:107B0000C0F30A50A0F2F5304FEA601800F01F06EB
:107B1000C6F12000139000200690079041F4801ECB
:107B200005206D4676B1664A08EB00017A4452F8AA
:107B3000213002EB8101B3404A68139922FA01F126
:107B4000194305E05F4908EB0002794451F822101F
:107B5000A1FB0E27A1FB0C131A449A4234BF012348
:107B6000002303EB070A05EB8003D3E901B70F44B9
:107B70008F4234BF0121002193448B4411B19345BE
:107B800002D903E0934501D2012100E00021C3E9BD
:107B900001B7514445F82010011EA0F10100C1DCDD
:107BA0000298059F00F10050800F12900298DDE9C5
:107BB00003568000FFF788FC834628460D91FFF7A7
:107BC00076FE6FF01D02FFF7E7FDCDE90E013046AE
:107BD000FFF76DFE6FF03D02FFF7DEFD80468A463F
:107BE0003846FFF764FE6FF05D02FFF7D5FD0746EC
:107BF000424653461191FFF7D1FADDE90E23FFF714
:107C0000CDFA5A460D9BFFF7C9FA00250E465A4693
:107C100028460D9BFFF763FBDDE90E23FFF75FFBB3
:107C200042465346FFF75BFB3A46119BFFF75AFB70
:107C3000DFF898A0244A5346FFF757FB07468846CB
:107C4000234A244B31462846FFF74FFB3A4643462A
:107C5000FFF7A4FA074688464FF0A842534631463C
:107C60002846FFF742FB3A464346FFF797FA159A34
:107C700012F0004F04D0129A81F000415242129249
:107C8000C4E90001129817B0BDE8F08FFB21E93F6D
:107C90007CD90240FB21F93F7370032E8A19A33B64
:107CA000000040543163621A61B4D03DFB21394178
:107CB00083C8C96D305FE43F0000E03F4C1E000008
:107CC000C81D0000AA1D0000182D4454FB21F93DD9
:107CD0003326A611460B113C2DE9F0414F1E00EB57
:107CE000C7010446D1E9000115461E4637F00602D9
:107CF0000DD02A463346FFF7F8FA7F1E04EBC70380
:107D0000D3E90023FFF74AFA37F00602F1D1022F38
:107D100025D0042F13D0062F18BFBDE8F0812A46C6
:107D20003346FFF7E2FAD4E90A23FFF737FA2A4687
:107D30003346FFF7DAFAD4E90823FFF72FFA2A4689
:107D40003346FFF7D2FAD4E90623FFF727FA2A468B
:107D50003346FFF7CAFAD4E90423FFF71FFA2A468D
:107D60003346FFF7C2FAD4E90223FFF717FA2A468F
:107D70003346FFF7BAFAD4E90023BDE8F041FFF734
:107D80000DBA00002DE9F04D04468CB0904821F06A
:107D90000047164698460D460991874206DA204666
:107DA0002946FFF791FD002800F0AE808948B842CF
:107DB0001CDC09980028BCBF85F0004588F000480D
:107DC000854A864B20462946FFF78CFA04460D4625
:107DD0003246434682488349FFF781FA22462B46C2
:107DE000FFF7DCF9002604460D46B04622462B4636
:107DF00010461946FFF779FA8B46824602460B4633
:107E0000FFF773FA0246089077480B460091062167
:107E10007844FFF761FFCDE90310744806217844E8
:107E2000009B089AFFF758FF52465B46FFF75DFA42
:107E3000CDE9051052465B4620462946FFF755FA24
:107E400007910090DDE90310DDE90532FFF7A6F99F
:107E5000079B009AFFF749FA32464346FFF79EF91F
:107E600052465B46FFF741FA32464346FFF796F922
:107E700080460E465E4A5F4B07990098FFF735FA39
:107E800042463346FFF78AF982468B4622462B4606
:107E9000FFF784F980464F480E46B84214985BDCE1
:107EA000FFF712FB0746424633460591FFF776F986
:107EB000CDE901104246334610461946FFF715FA40
:107EC000DDE90132FFF783FA52465B46FFF707FA16
:107ED00022462B46FFF706FA0122FFF75DFC3A46E1
:107EE000059BFFF7FFF904460D460998022101EAB8
:107EF000A070C0F10100FFF7E7FA0CB022462B4654
:107F0000BDE8F04DFFF7F1B91498401C3843204309
:107F10000BD01498012812D00CB022462B46BDE895
:107F2000F04D00203449FFF752BA0CB025F0004361
:107F30002246BDE8F04D00203049FFF748BA204600
:107F40002946FFF7F1FC042808BF00F065F8204639
:107F50000CB02946BDE8F08D012802BF40460CB0A8
:107F6000BDE8F08D00270B463A4620462946FFF72C
:107F7000B9F952465B46FFF7B5F904460D4642464D
:107F8000334600201C49FFF722FA83463A468846CA
:107F900033461046FFF7A9F90022184BFFF7FEF809
:107FA00006468A4622462B4638464146FFF79DF94B
:107FB00032465346FFF7F2F85A464346FFF795F923
:107FC0000CB03A464346BDE8F04DFFF7E7B8000075
:107FD0000000303E2894E53F182D4454FB21E93F32
:107FE000075C143326A6813C7C1B00009E1B00000E
:107FF000635555555555D53F0000F0BF0000F03F83
:108000000122FFF7C9BBFFF7C9B80022134610468B
:108010001146FFF7DCB90000024A00201107FFF704
:10802000BBBB000001FDFFFF02E008C8121F08C132
:10803000002AFAD170477047002001E001C1121FE9
:10804000002AFBD17047000001490860704700001A
:10805000BC0000202DE9FF4F8DB00F4605460026DD
:1080600006E025280BD0DDE90F1290476D1C761C29
:1080700028780028F5D111B03046BDE8F08F0024F3
:10808000A246A1460122EC4900E0044315F8013F55
:10809000203B02FA03F00842F7D128782A2810D0B2
:1080A0006FF02F022878A0F13001092914D80AEBCB
:1080B0008A0102EB410144F0020400EB010A6D1C4D
:1080C000F0E701CF5FEA000A03D544F40054CAF197
:1080D000000A44F002046D1C28782E2817D115F8E8
:1080E000010F44F004042A280ED06FF02F022878E4
:1080F000A0F1300109290AD809EB890102EB4101FD
:1081000000EB01096D1CF2E757F8049B6D1C287801
:108110006C280FD006DC4C2817D068280DD06A28B0
:1081200014D104E0742810D07A280FD10DE044F463
:1081300000140AE044F4801401E044F44014697827
:10814000814202D104F580146D1C6D1C2A786E2AC0
:108150001FD00CDC632A31D004DC002A8BD0582AD3
:1081600011D1A3E0642A68D0692A0CD165E0732A92
:108170002ED004DC6F2A73D0702A04D19BE0752ABC
:108180006FD0782A6ED01046DDE90F129047761C2A
:1081900050E1C4F30250022806D0032809D0042875
:1081A00001CF09D0066045E101CFF117C0E90061B8
:1081B00040E101CF06803DE106703BE117F8040B7A
:1081C0008DF8000000208DF80100EB46012003E04F
:1081D00057F804BB4FF0FF3061074FF0000102D4A5
:1081E0000DE008F10101884649450FDA8045F8DBCA
:1081F0001BF808100029F4D108E008F101018846B5
:108200008142FADB1BF808100029F6D1DDE90F23C3
:10821000AAEB08008146214600F036F9304400EB15
:10822000080604E0DDE90F121BF8010B9047B8F1D6
:108230000108F7D221464846F7E00A21C4F3025369
:108240004FF0000B0891022B04D001CFC117032B74
:1082500009D00AE0FF1D27F00707F7E8020108E050
:1082600032E01FE020E000B2C117042B01D140B280
:10827000C117031E71F1000307DA4FF0000CD0EBB9
:108280000C006CEB01012D2302E0230504D52B2308
:108290008DF82430012303E0E30701D02023F7E722
:1082A000984658E00A2110E010210EE010204FF00F
:1082B000000B08900CE010214FF0000B44F0040478
:1082C0004FF00809089103E008214FF0000B0891D6
:1082D000C4F30253022B04D001CF0021032B06D09C
:1082E00006E0FF1D27F00707F7E8020103E080B270
:1082F000042B00D1C0B24FF0000823072BD5702A01
:1083000007D0DDF820C08CF0100C5CEA0B0C05D017
:108310000EE040238DF82430012308E050EA0103E9
:1083200006D030238DF824308DF82520022398467E
:10833000DDF820C08CF0080C5CEA0B0C0BD150EA85
:10834000010301D1630706D530238DF824304FF0A7
:108350000108A9F10109582A04D038A20B9208AAF1
:108360000A920BE03AA2F9E75B46089AFFF72EF96A
:108370000B9B9B5C0A9A521E0A92137050EA0102F0
:10838000F2D10A98ADEB000000F1200B600702D596
:1083900024F4803401E04FF00109D94502DDA9EB56
:1083A0000B0000E0002000EB0B0141440890AAEB19
:1083B000010AE00306D4DDE90F232146504600F010
:1083C00063F806444FF0000908E009A911F8090014
:1083D000DDE90F12904709F10109761CC145F4DB74
:1083E000E0030CD5DDE90F232146504600F04CF8A0
:1083F000064404E0DDE90F1230209047761C08990E
:10840000481E08900029F5DC08E00A980A990078CF
:10841000491C0A91DDE90F129047761CBBF100015F
:10842000ABF1010BF1DC21465046DDE90F2300F0F2
:1084300019F806446D1C1BE609280100303132335F
:108440003435363738396162636465660000000090
:10845000303132333435363738394142434445467A
:10846000000000002DE9F041044600251E46174695
:10847000880404D405E039462020B0476D1C641EF2
:10848000F9D52846BDE8F0812DE9F04104460025E4
:108490001E469046C80301D5302700E020278804F7
:1084A00004D505E041463846B0476D1C641EF9D539
:1084B0002846BDE8F08100002DE9F04D8D4F21F0F8
:1084C000004A86B005460C46BA452ADBAAEB0700EF
:1084D00028430AD08848824501DC1AD1CDB106B0C4
:1084E0002846BDE8F04DFFF78BBD844A844B2846F3
:1084F000FEF7FBFE07460E46824A834B284621467E
:10850000FEF7F3FE06B03A463346BDE8F04DFEF7FF
:1085100045BE0120FFF798FD06B0BDE8F04DFFF71E
:1085200074BD7A48824542DABAF1795F0BDA28469F
:10853000FFF7FAF9042808BFFFF76EFD284606B0DA
:108540002146BDE8F08D2A460B461046FEF7CDFECB
:10855000834602466E480E460B4606217844FFF7D6
:10856000BBFB5A463346FEF7C0FE804669488A4642
:108570005A46334604217844FFF7AEFB5A46334649
:10858000FEF7B3FE00223B46FEF708FE02460B460E
:1085900040465146FEF71BFF2A462346FEF7A5FE3E
:1085A00006B02A462346BDE8F04DFEF7F7BD284643
:1085B00024F0004100223D463B46FEF793FE4FF07B
:1085C000FF32FFF7E9F80646024653480F460B46CE
:1085D00006217844FFF780FB32463B46FEF785FED6
:1085E000CDE900014D4832463B4604217844FFF76F
:1085F00073FB32463B46FEF778FE00222B46FEF721
:10860000CDFD834602913046394600F066FA804639
:1086100043480D46504517DCDDE900015A46029BF0
:10862000FEF7D5FE42462B46FEF75FFE42462B463E
:10863000FEF7B4FD0122FFF7AFF8304A304BFEF7EA
:108640004EFE304A304B4CE04FF0000A52460B468B
:108650004046FEF7A3FDCDE9031052462B461046D7
:108660001946FEF742FE32463B46FEF73BFEDDE989
:108670000332FEF7ACFE06460F46DDE900015A461E
:10868000029BFEF7A4FE8346009101223046394644
:10869000FFF782F8194A1A4BFEF724FE06460F46EA
:1086A000012240462946FFF777F85A46009BFEF71D
:1086B0001CFE32463B46FEF712FE06460F460122DE
:1086C00050462946FFF768F80E4DDFF858802A46D5
:1086D0004346FEF707FE32463B46FEF703FE2A46B8
:1086E0004346FEF7FFFD002CD8BF81F0004106B0E5
:1086F000BDE8F08D0000F03F0000F07F075C143310
:1087000026A6913C182D4454FB21F93F0000E03F80
:10871000781200008E1200000212000018120000F1
:108720003333EF3FFB21E93F2DE9F84F04460D4677
:1087300021F0004000917349814211DC7249884266
:1087400001DC06D12CB120462946BDE8F84FFFF7E1
:1087500057BC6E48002DCCBF6D496E49BDE8F88FFF
:108760006D49814211DD6D498142D8BF4FF0FF361E
:108770006DDD20462946FFF7D7F8042808BFFFF72C
:108780004BFC20462946BDE8F88F6549654F25F02A
:108790000045814233DD6449814219DD00263246BD
:1087A0004FF0804320462946FEF7F8FC80468A4673
:1087B000012220462946FEF7EFFF00223B46FEF746
:1087C0008EFD42465346FEF702FE04460D463EE04D
:1087D00001260022BA463B4620462946FEF7DEFC2B
:1087E00080460F460022534620462946FEF777FD75
:1087F00042463B46FEF7EBFD04460D4627E04B495B
:1088000081421BDDDFF828A10226002253462046C4
:108810002946FEF76AFD00223B46FEF7BFFC804674
:108820000F460022534620462946FEF758FD424691
:108830003B46FEF7CCFD04460D4608E003262246E3
:108840002B4600203B49FEF7C2FD04460D4622465A
:108850002B4610461946FEF748FD8B4682460246D7
:108860000B46FEF742FD07460246334888460B4654
:1088700006217844FFF730FA52465B46FEF735FD95
:1088800082462E488B463A46434605217844FFF7F8
:1088900023FA3A464346FEF728FD02460B46002ED1
:1088A000504659460CDAFEF779FC22462B46FEF775
:1088B0001CFD01B022462B46BDE8F04FFEF712BD6D
:1088C000FEF76CFC22462B46FEF70FFD1C4A7A444D
:1088D00002EBC603D3E90023FEF701FD22462B4637
:1088E000FEF7FDFC174A7A4402EBC603D3E90023E6
:1088F000FEF7F8FC009A002AB8BF81F00041BDE8FD
:10890000F88F0000000010440000F07F182D445440
:10891000FB21F93FFB21F9BF0000DC3F0000203EB6
:108920000000F33F0000F03F0000E63F00800340FE
:108930000000F83F0000F0BF1A100000D80F000040
:10894000760F00003E0F00002DE9F04D9446CCF16B
:10895000000423F000464CEA0404524F46EAD47463
:108960009A46884621F00042BC4206D8454240EA79
:10897000050442EAD474BC4204D9BDE8F04D624615
:10898000FFF741BBAAF14055A5F17F6555EA0C04FC
:108990000BD0022404EAAA74434DDFF810E144EA44
:1089A000D87452EA000B04D00CE0BDE8F04DFFF79C
:1089B000BBBE002C14BF012CBDE8F08D022C30D0C2
:1089C000032C32D056EA0C0B0AD0BE4220D1BA4258
:1089D00009D126F0804622F080423346114617E046
:1089E00000291ADB25E0DFF8C8B0FB44002C04BFE7
:1089F000DBE90001BDE8F08D012C02BFDBE90001DD
:108A000081F00041BDE8F08D022C0AD0032C0CD07F
:108A1000BA4212D1B8F1000F0BDA23482549BDE85C
:108A2000F08D28462449BDE8F08D28467146BDE802
:108A3000F08D1D482149BDE8F08D921B12153C2A8E
:108A4000C4BF19481D490EDCBAF1000FBEBF12F1B8
:108A50003C0F0020014606DB6246FEF7B8FC21F021
:108A60000041FFF761FE002C08BFBDE8F08D012C2E
:108A700004BF81F00041BDE8F08D114A114B022C7A
:108A800007D0FEF72CFC2A46BDE8F04D0A4BFEF756
:108A900026BCFEF724FC2A46BDE8F04D064BFEF747
:108AA00021BC00000000F07F182D4454FB2109C0B8
:108AB000D20E0000FB21F9BFFB210940FB21F93F49
:108AC000075C143326A6A13C38B504468DF8000097
:108AD00069460320ABBE204638BD2DE9F04106466D
:108AE0000F46FEF793FE041E0D4618BF01202843D3
:108AF00020F00040C0F17F6000F1E040C00F0ED0D8
:108B0000301C18BF0120384320F00040C0F17F60C6
:108B100000F1E040C00F04BF0120FFF795FA2046A6
:108B20002946BDE8F081000010B5164B21F0004247
:108B3000012486B09A4203DC0022134600941CE014
:108B4000114B9A4208D140B94FF00100FFF77CFA6F
:108B5000FFF75BFA06B010BD03DBFFF751FA06B072
:108B600010BD02AAFEF7F4FE00F00100A4EB4000E5
:108B70000DF1080C00909CE80F00FFF703F906B018
:108B800010BD0000FB21E93F0000F07F75191A0CB1
:108B90006A231B1C1F207274433B4138393A6B6CAB
:108BA000376F06246D6E7000680000047600540173
:108BB000F7FD00018300000000080000000100181C
:108BC00032000500000020410000D242295C0F3E27
:108BD0009A99993E3333733F295C0F3E0000700031
:108BE00000000024000000020003000000650054A3
:108BF000FFEF0000FA80000B12820001030C30C36B
:108C00000E8C8CE914D5400213710F8E3883F883D3
:108C10003000F883258EF8833000F883FFFFFFFFD4
:108C20000FFEA9D6240004001A8279A10000003C9E
:108C3000FFFF00000010000038836FA2003E0330E9
:108C40004000000002CAE3093E800000200000004E
:108C5000000000004000000060000000000C000068
:108C6000000C186E000006920A16C0DFFFFF0256C5
:108C7000FD8CD377FFE1C496E0C5BEAA00000000DA
:108C8000FFFF0B2B000016570000035940000000A7
:108C900000001DFA00026C1D000000003FFFDFEB2A
:108CA000003EB3B6000D227800002F3C000000000B
:108CB000001942B5000039A20000B365D90E9FC962
:108CC0001DCF4C3430000000500000003BB67AE865
:108CD0000064000000C80000000000001000000058
:108CE0001000FA921000225E000D229F0001000089
:108CF00000320000FF46000063D4000010000000B6
:108D000004D6000004CC000004CC00000000107267
:108D1000000000400000000000000000000600020B
:108D200000050007000000000064000000000000D3
:108D300000000005000500640020000000000000A5
:108D400000000000000040000000030000000032AE
:108D5000F8980000FF650000830F0000FF9BFC00F7
:108D60000000000000000000000000000000000003
:108D700000000000000000000000000000000000F3
:108D80000000000000000000000010004000000093
:108D9000000000060000B26A000200000001FB8330
:108DA0000068000000D9FC007CF1FF830000000097
:108DB00000650000006403E800640028000000254E
:108DC0000000000016A000000000100000001000CD
:108DD000002F0000000001F4000010000028000037
:108DE000FFFF4581FFFFFA72000000000000000055
:108DF000004400050005BAC6004778A20000000143
:108E00000000000000000600000000140000254DD6
:108E1000002F706D000005AE000C02D000000000B5
:108E2000000000000000000000000000001B000027
:108E300000000000000000000000000000640000CE
:108E4000000800000000000000000000000000001A
:108E50000000000000000000000000000000000012
:108E60000000000000000000000000000000000002
:108E700000000000000000000000000000000000F2
:108E800000000000000000000000000000000000E2
:108E9000000000000000000000000000001B0000B7
:108EA0000000000000000000000E000E00000AC7D5
:108EB0000004000000000032FFFFFF9C00000B2BAD
:108EC000000000020000000100000064FFE5000057
:108ED0000000000000000000000000000000000191
:108EE0000000000000010000000000000001800000
:108EF0000001800000018000002426D30000000053
:108F000000000000000600100096003C0000000079
:108F10000000000000000000000000000C0A4E6885
:108F2000CDCF770950166759C619CE8200000000D0
:108F30000000000000000000000000000000000031
:108F40000000000017D784000300000000000000AC
:108F500000000000C7938F9D1E1B1C19000000001D
:108F60000000000000000000000000000000000001
:108F7000000000000203188500004000000000030C
:108F8000000000030000000000000000400000009E
:108F900000000000000000000000000000000000D1
:108FA00000000000000000000000000000000000C1
:108FB00000000000000000000000000000000000B1
:108FC000677DDF7E72902E554CF6E688000000002B
:108FD000000000000000000000000000D8DCB4B871
:108FE000B0D8B9ABF3F8FAB3B7BB8E9EAEF132F599
:108FF0001BF1B4B8B08097F1A9DFDFDFAADFDFDFB4
:10900000F2AAC5CDC7A90CC92C97F1A98926466635
:10901000B28999A92D557DB0B08AA896365676F1B9
:10902000BAA3B4B280C0B8A89711B28398BAA3F01B
:10903000240844106418B2B9B49883F1A329557D6B
:10904000BAB5B1A38393F0002850F5B2B6AA8393C2
:1090500028547CF1B9A3829361BAA2DADEDFDB8106
:109060009AB9AEF5606870F1DABAA2DFD9BAA2FA9D
:10907000B9A38292DB31BAA2D9BAA2F8DF85A4D013
:10908000C1BBAD83C2C5C7B8A2DFDFDFBAA0DFDFD7
:10909000DFD8D8F1B8AAB38DB4980D355DB2B6BAA1
:1090A000AF8C96198F9FA70E161EB49AB8AA872C5C
:1090B000547CBAA4B08AB691325676B28494A4C8CD
:1090C00008CDD8B8B4B0F19982A82D557D98A80ED6
:1090D000161EA22C547C92A4F02C5078F184A898EF
:1090E000C4CDFCD80DDBA8FC2DF3D9BAA6F8DABAAA
:1090F000A6DED8BAB2B68696A6D0F3C841DAA6C81C
:10910000F8D8B0B4B882A892F52C548898F135D923
:10911000F418D8F1A2D0F8F9A884D9C7DFF8F883F9
:10912000C5DADF69DF83C1D8F40114F1A8824EA843
:1091300084F311D182F5D992289788F109F41C1C87
:10914000D884A8F3C0F9D1D99782F129F40DD8F3C6
:10915000F9F9D1D982F4C203D8DEDF1AD8F1A2FA24
:10916000F9A88498D9C7DFF8F8F883C7DADF69DF90
:10917000F883C3D8F40114F198A8822EA884F311BF
:10918000D182F5D992509788F109F41CD884A8F3BC
:10919000C0F8F9D1D99782F149F40DD8F3F9F9D192
:1091A000D982F4C403D8DEDFD8F1AD8898CCA80901
:1091B000F9D98292A8F57CF1883ACF944A6E98DB6F
:1091C0006931DAADF2DEF9D88795A8F221D1DAA5B6
:1091D000F9F417D9F1AE8ED0C0C3AE82C684C3A84D
:1091E0008595C8A588F2C0F1F4010EF18E9EA8C63F
:1091F0003E56F554F18872F40115F19845856EF5E7
:109200008E9E0488F142985A8E9E068869F4011C4D
:10921000F1981E1108D0F504F11E97020298362528
:10922000DBF9D985A5F3C1DA85A5F3DFD88595A843
:10923000F309DAA5FAD88292A8F578F1881A849F02
:1092400026889821DAF41DF3D8879F39D1AFD9DF6A
:10925000DFFBF9F40CF3D8FAD0F8DAF9F9D0DFD95A
:10926000F9D8F40BD8F3879F39D1AFD9DFDFF41DDC
:10927000F3D8FAFCA869F9F9AFD0DADEFAD9F88F99
:109280009FA8F1CCF398DB45D9AFDFD0F8D8F18FA8
:109290009FA8CAF38809DAAF8FCBF8D8F2AD978DC3
:1092A0000CD9A5DFF9BAA6F3FAF412F2D8950DD1CC
:1092B000D9BAA6F3FADAA5F2C1BAA6F3DFD8F1BAA1
:1092C000B2B68696A6D0CAF349DAA6CBF8D8B0B41F
:1092D000B8D8AD84F2C0DFF18FCBC3A8B2B6869602
:1092E000C8C1CBC3F3B0B48898A821DB718D9D7140
:1092F000859521D9ADF2FAD88597A828D9F408D850
:10930000F28D29DAF405D9F285A4C2F2D8A88D9499
:1093100001D1D9F411F2D88721D8F40AD8F284986F
:10932000A8C801D1D9F411D8F3A4C8BBAFD0F2DEDC
:10933000F8F8F8F8F8F8F8F8D8F1B8F6B5B9B08A4E
:1093400095A3DE3CA3D9F8D85CA3D9F8D87CA3D9DF
:10935000F8D8F8F9D1A5D9DFDAFAD8B18530F7D93C
:10936000DED8F830ADDADED8F2B48C99A32D557D75
:10937000A083DFDFDFB591A0F629D9FBD8A0FC29B7
:10938000D9FAD8A0D051D9F8D8FC51D9F9D879D97F
:10939000FBD8A0D0FC79D9FAD8A1F9F9F9F9F9A04C
:1093A000DADFDFDFD8A1F8F8F8F8F8ACDEF8ADDEE8
:1093B0008393AC2C547CF1A8DFDFDFF69D2CDAA080
:1093C000DFD9FADB2DF8D8A850DAA0D0DED9D0F852
:1093D000F8F8DB55F8D8A878DAA0D0DFD9D0FAF8B9
:1093E000F8F8F8DB7DF8D89CA88CF530DB38D9D0BC
:1093F000DEDFA0D0DEDFD8A848DB58D9DFD0DEA082
:10940000DFD0DED8A868DB70D9DFDFA0DFDFD8F1DE
:10941000A888902C547C98A8D05C38D1DAF2AE8C15
:10942000DFF9D8B087A8C1C1B188A8C6F9F9DA3682
:10943000D8A8F9DA36D8A8F9DA36D8A8F9DA36D8B9
:10944000A8F9DA36D8F78D9DADF818DAF2AEDFD884
:10945000F7ADFA30D9A4DEF9D8F2AEDEFAF983A777
:10946000D9C3C5C7F1889BA77AADF7DEDFA4F8841E
:109470009408A797F300AEF29819A488C6A394881D
:10948000F632DFF28393DB09D9F2AADFD8D8AEF83F
:10949000F9D1DAF3A4DEA7F1889B7AD8F38494AEED
:1094A00019F9DAAAF1DFD8A881C0C3C5C7A392838E
:1094B000F628ADDED9F8D8A350ADD9F8D8A378AD49
:1094C000D9F8D8F8F9D1A1DADEC3C5C7D8A18194FB
:1094D000F818F2B089ACC3C5C7F1D8B8B4B0978654
:1094E000A8319B069907AB9728889BF00C20144065
:1094F000B0B4B8F0A88A9A285078B79BA8295179B7
:10950000247059446938644831F1BBAB88002C544D
:109510007CF0B38BB8A804285078F1B088B49726B3
:10952000A85998BBABB38B02264666B0B8F08A9CAC
:10953000A82951798B2951798A2470598B20587127
:109540008A4469388B3940688A6448318B30496075
:1095500088F1AC002C547CF08CA804285078F18859
:109560009726A85998AC8C02264666F0899CA829B3
:109570005179247059446938644831A988092059BF
:1095800070AB11384069A8193148608CA83C415C27
:10959000207C00F187981986A86E767EA999882D7F
:1095A000557DD8B1B5B9A3DFDFDFAED0DFAAD0DEFD
:1095B000F2ABF8F9D9B087C4AAF1DFDFBBAFDFDFC8
:1095C000B9D8B1F1A3978E60DFB084F2C8F8F9D9A9
:1095D000DED89385F14AB183A308B5839A0810B702
:1095E0009F10D8F1B0BAAEB08AC2B2B68E9EF1FB6F
:1095F000D9F41DD8F9D90CF1D8F8F8AD61D9AEFB82
:10960000D8F40CF1D8F8F8AD19D9AEFBDFD8F416C0
:10961000F1D8F8AD8D61D9F4F4ACF59C9C8DDF2BBD
:10962000BAB6AEFAF8F40BD8F1AED0F8AD51DAAE66
:10963000FAF8F1D8B9B1B6A3839C08B9B1839AB549
:10964000AAC0FD3083B79F10B58B93F20202D1AB55
:10965000DADED8F1B080BAABC0C3B284C1C3D8B12E
:10966000B9F38BA391B609B4D9ABDEB0879CB9A38B
:10967000DDF1B38B8B8B8B8BB087A3A3A3A3B28BB2
:10968000B69BF2A3A3A3A3A3A3A3A3A3A3F1B08711
:10969000B59AA3F39BA3A3DCBAACDFB9A3A3A3A39E
:1096A000A3A3A3A3A3A3A3A3A3A3A3A3D8D8D8BBD3
:1096B000B3B7F1AAF9DAFFD9809AAA28B48098A79B
:1096C00020B79787A86688F07951F1902C870CA76E
:1096D00081976293F071716085940129517990A509
:1096E000F1284C6C870C95188578A38390284C6CD6
:1096F000886CD8F3A28200F210A8921980A2F2D945
:1097000026D8F188A84DD948D896A83980D93CD810
:109710009580A839A68698D92CDA87A72CD8A8894D
:109720009519A980D938D8A88939A980DA3CD8A850
:109730002EA83990D90CD8A8953198D90CD8A80959
:10974000D9FFD801DAFFD89539A9DA26FFD890A831
:109750000D8999A810809821DA2ED88999A831808E
:10976000DA2ED8A886963180DA2ED8A8873180DA0A
:109770002ED8A88292F34180F1D92ED8A882F3196D
:1097800080F1D92ED882ACF3C0A28022F1A62EA7F8
:109790002EA92298A829DAACDEFFD8A2F22AF1A9D4
:1097A0002E8292A8F23180A696F1D900AC8C9C0C46
:1097B00030ACDED0DEFFD88C9CACD010ACDE80921A
:1097C000A2F24C82A8F1CAF235F19688A6D900D847
:1097D000F1FF000000000000555555555555C53F97
:1097E0007D6FEB0312D6D4BF5544880E55C1C93FD7
:1097F0003B8F68B52882A4BF88B20175E0EF493F6E
:1098000009F7FD0DE13D023F4B2D8A1C273A03C0AD
:10981000C88A599CE52A004059018D1B6C06E6BF99
:1098200082922EB1C5B8B33F4FBB610567ACDD3F37
:10983000182D4454FB21E93F9BF681D20B73EF3F77
:10984000182D4454FB21F93FE2652F227F2B7A3CEF
:10985000075C143326A6813CBDCBF07A8807703CA8
:10986000075C143326A6913CC4EB98999999C9BF1B
:10987000711623FEC671BCBF6D9A74AFF2B0B3BF50
:109880009AFDDE522DDEADBF2F6C6A2C44B4A2BF10
:109890000D5555555555D53FFF8300922449C23F7C
:1098A0006E204CC5CD45B73F513DD0A0660DB13FB0
:1098B000EB0D76244B7BA93F11DA22E33AAD903FC2
:1098C000000000000000000000004054FB21F93FB0
:1098D0003163621A61B4D03D0000601A61B4D03DBA
:1098E0007370032E8A19A33B0000002E8A19A33B34
:1098F000C14920259A837B39000000000000000048
:109900006E83F9A22915444ED15727FCC0DD34F5EA
:10991000999562DB4190433CAB6351FE61C5BBDE70
:109920003A6E24B7E0D24D42EA2E49061C92D10984
:109930001CEB1DFE3EA729B1F53582E88444BB2E01
:1099400026709CE9417E5FB439D69139F43953834E
:109950008B5F849C3B28F9BDFF97F81F0F9805DEAD
:109960008B112FEF1F6D0A5ACF7E366DB709CB27AB
:10997000663F464F2DEA5F9EC7BA27757BF1E5EB40
:10998000F739073DEA92528AB15FFB6B085D8D1F84
:109990007AFE10111111C13F37D60684F464963F48
:1099A000280356C9226D6D3F0165F2F2D844433F4A
:1099B000A69237A0887E143F735360DBCB75F3BE4D
:1099C000FE41B31BBAA1AB3F93846EE9E326823F0D
:1099D0001583E0FEC8DB573F68108D1AF726303F2D
:1099E000E9A7F0320FB8123FD47ABF74702AFB3E59
:1099F00050726F64756374204944207265616420FD
:109A00006173203020696E646963617465732064DA
:109A1000657669636520697320656974686572207D
:109A2000696E636F6D70617469626C65206F72201E
:109A3000616E204D5055333035302E0A0000000045
:109A4000609A000800000020C00000002880000884
:109A5000209B0008C0000020F004000038800008AF
:109A600000A24A04000000000000000001020304FC
:109A700006070809000000000000000000000000C8
:109A800000000000000000000000000000000000D6
:109A900000000000000000000000000000000000C6
:109AA00000000000000000000000000000000000B6
:109AB00000000000000000000000000000000000A6
:109AC0000000000000000000000000000000000096
:109AD0000102030401020304060708090204060840
:109AE0008C8B0008A88B000800000000000000001C
:109AF0000000000000000000000000000000000066
:109B00000000000000000000B48B0008010000000D
:109B10000100000001000000000000000000000043
:04000005080000ED02
:00000001FF
