:020000040800F2
:10000000B80900209D5F000875010008770100080D
:100010007B0100087F010008830100080000000048
:100020000000000000000000000000008701000840
:1000300089010008000000008B0100088D01000804
:10004000B75F0008B75F0008B75F0008B75F000838
:10005000B75F0008B75F0008B75F0008B75F000828
:10006000B75F0008B75F0008B75F0008B75F000818
:10007000B75F0008B75F0008B75F0008B75F000808
:10008000B75F0008B75F0008B75F0008B75F0008F8
:10009000B75F0008B75F0008B75F0008FF150008EA
:1000A000B75F0008B75F0008B75F0008B75F0008D8
:1000B000D3200008B75F0008E9200008B75F0008F8
:1000C000B75F0008B75F0008B75F0008B75F0008B8
:1000D000B75F0008B75F0008B75F00085D0500085C
:1000E000B75F0008B75F0008B75F0008DFF810D0FF
:1000F00008F0D4FB0048004705010008AFF300807A
:10010000B809002000F034F900F09CF94FF4E13018
:1001100000F0E3F901F00FF800F094FB05F044FC67
:1001200002F046FB02F058FB01F0F0FF01F01EFF69
:1001300001F065FF02F012F802F0E8F841F61F4105
:10014000002002F08DF805F0C3FE01F014FC0CE075
:1001500001F026FC012005490870002004490870C0
:1001600000BF024800780028FBD1F1E70100002021
:1001700000000020704700BFFEE700BFFEE700BFA1
:10018000FEE700BFFEE7704770477047704700000A
:100190000CB50020019000906C48006840F480305D
:1001A0006A49086000BF6948006800F400300090A8
:1001B0000198401C0190009818B90198B0F5A06F03
:1001C000F1D16248006800F4003010B101200090C5
:1001D00001E0002000900098012843D15C480068AD
:1001E00040F010005A4908600846006820F00300FB
:1001F00008600846006840F0020008605348406804
:10020000524948600846406848600846406840F4E3
:10021000806048600846406820F47C1048600846CA
:10022000406840F4E81048600846006840F080707C
:10023000086000BF4548006800F000700028F9D051
:100240004248406820F00300404948600846406842
:1002500040F00200486000BF3C48406800F00C00DD
:100260000828F9D10CBD10B5FFF792FF10BD10B5ED
:100270003648006840F0010034490860084640688C
:10028000344908403149486008460068324908400E
:100290002E4908600846006820F48020086008465F
:1002A000406820F4FE0048604FF41F008860FFF7AC
:1002B000DAFF4FF000602949086010BD10B5002139
:1002C00000200022214B5B6803F00C0121B10429BE
:1002D00006D0082928D107E0214B224C236027E0D3
:1002E0001F4B204C236023E0184B5B6803F4701015
:1002F000164B5B6803F48032022303EB904022B973
:10030000194B4343174C23600DE0104B5B6803F41B
:10031000003323B1144B4343124C236003E0104BD2
:100320004343104C236003E00D4B0E4C236000BF91
:1003300000BF064B5B68C3F303130C4CE15C094B35
:100340001B68CB40074C236010BD0000001002402A
:10035000002002400000FFF8FFFFF6FE08ED00E07D
:1003600000127A000400002000093D00080000206F
:1003700010B56FF0040005F072FE2E4800682E499B
:10038000B0FBF1F02D4908700846007800EB400101
:10039000C1EBC0104FF6FF7101EAC0002849088088
:1003A00010BD0146254A12784A434FF0E0235A61B6
:1003B00000229A611A46126942F001021A6100BFD6
:1003C0004FF0E022106900F001021AB100F480320F
:1003D000002AF5D04FF0E022126922F001024FF01E
:1003E000E0231A6100229A6170470146144A12887C
:1003F0004A434FF0E0235A6100229A611A4612697B
:1004000042F001021A6100BF4FF0E022106900F0D3
:1004100001021AB100F48032002AF5D04FF0E02238
:10042000126922F001024FF0E0231A6100229A6162
:10043000704700000400002000127A00180000201D
:100440001A00002008B54FF4A06005F0B9FD172090
:100450008DF8000001208DF8030000208DF80100C8
:100460008DF80200684605F0B0FD27208DF80000E9
:1004700001208DF8030002208DF801008DF80200A4
:10048000684605F0A2FD08BD012080F3138800BF77
:1004900000BFBFF34F8F0748006800F4E0600649D3
:1004A0000843001D03490860BFF34F8F00BF00BF22
:1004B00000BFFDE70CED00E00000FA05014600BFBB
:1004C000704700BF604A128802F04002002AF9D04B
:1004D000C2B25D4B1B1D1A80704710B586B0044632
:1004E0000121092006F0ACFB0121880406F0B5FBD0
:1004F0004FF48060ADF8140003208DF8160018202A
:100500008DF8170005A9514806F0DEF84FF4006099
:10051000ADF8140004208DF8170005A94B4806F02B
:10052000D3F801940020ADF80800ADF80A00ADF84A
:100530000C00ADF810000C20ADF80E0001A94248E7
:1005400007F033FB012240F225513F4807F0C5FB7D
:1005500001213D4807F0B5FB06B010BD10B540F2D3
:100560002551394807F09EFC00284DD0364807F049
:1005700019FC04464CB9002035490870354908700B
:1005800035490870354908703EE0012C0AD1012038
:100590002F49087000202F4908702F4908702F49F3
:1005A000087031E0052C0BD100202949087001208A
:1005B000284908700020284908702849087023E05D
:1005C000032C0BD100202249087022490870012019
:1005D0002149087000202149087015E0072C0AD134
:1005E00000201B4908701B4908701B490870012036
:1005F0001A49087008E0002015490870154908706C
:10060000154908701549087010BD10B504462146FB
:100610000D4807F0C3FB00BF40210B4807F02CFC3E
:100620000128F9D110BD70B50446204607F0C1FC81
:1006300086B2002505E014F8010BFFF7E6FF681C01
:1006400085B2B542F7DB70BD00480040000C0140A8
:100650002100002022000020230000202400002090
:1006600010B50821F84806F0DCF80421F64806F039
:10067000D8F80421F44806F0D6F80821F24806F02C
:10068000D2F810BD10B50821EF4806F0CAF80421D1
:10069000ED4806F0C8F80421EB4806F0C2F810BD9A
:1006A00010B50821E84806F0BCF80821E64806F035
:1006B000BAF810BD2DE9F04105462C460821E24864
:1006C00006F0B1F8002619E0274607F08007802FD2
:1006D00004D10421DC4806F0A4F803E00421DA4840
:1006E00006F0A1F86006040E0821D74806F099F834
:1006F0000821D54806F097F8701CC6B2082EE3DB37
:10070000BDE8F08110B50446FFF7AAFF7820FFF797
:10071000D1FFFFF7C5FF0020FFF7CCFFFFF7C0FFB9
:100720002046FFF7C7FFFFF7BBFFFFF7ABFF10BD8A
:1007300010B50446FFF794FF7820FFF7BBFFFFF7E3
:10074000AFFF4020FFF7B6FFFFF7AAFF2046FFF7F5
:10075000B1FFFFF7A5FFFFF795FF10BD70B5044689
:100760000D461DB1E0B2FFF7E3FF02E0E0B2FFF794
:10077000C9FF70BD70B50646002418E004F1B00052
:100780000021FFF7EBFF00210846FFF7E7FF0021FC
:100790001020FFF7E3FF002505E001213046FFF7B9
:1007A000DDFF681CC5B2802DF7DB601CC4B2082CCD
:1007B000E4DB70BD06E041F6650100E0491E00295A
:1007C000FCD1401E0028F6D17047014605E000200C
:1007D00001E0421CD0B27B28FBDB0A1EA1F1010123
:1007E000F5D1704770B504460D4605F1B000002103
:1007F000FFF7B4FF102141EA14100021FFF7AEFF0C
:1008000004F00F000021FFF7A9FF70BD10B5002113
:100810008D20FFF7A3FF00211420FFF79FFF002189
:10082000AF20FFF79BFF10BD10B500218D20FFF713
:1008300095FF00211020FFF791FF0021AE20FFF768
:100840008DFF10BD70B5002418E004F1B000002148
:10085000FFF784FF00210846FFF780FF00211020EA
:10086000FFF77CFF002505E001210020FFF776FF60
:10087000681CC5B2802DF7DB601CC4B2082CE4DB19
:1008800070BD70B5002418E004F1B0000021FFF73E
:1008900065FF00210846FFF761FF00211020FFF7E8
:1008A0005DFF002505E001210846FFF757FF681CA2
:1008B000C5B2802DF7DB601CC4B2082CE4DB70BD30
:1008C0002DE9F04707460E4690469946002500243C
:1008D000A8F12000C5B27F2F02DD0027B01CC6B2F0
:1008E000B9F1100F24D131463846FFF77BFF0024C1
:1008F00008E004EB0511554A505C0121FFF72EFF7B
:10090000601CC4B2082CF4DB701CC1B23846FFF77F
:1009100069FF002409E004EB051108314B4A505CE3
:100920000121FFF71BFF601CC4B2082CF3DB12E0AF
:1009300031463846FFF756FF00240AE005EB450133
:10094000434A02EB4101085D0121FFF707FF601CEC
:10095000C4B2062CF2DBBDE8F08710B502460120D8
:1009600000E050430B1EA1F10104E1B2F9D110BD2A
:100970002DE9FF5F074691461E460E9D4FF0000A87
:10098000002435E0301B401EC1B20A20FFF7E5FF0E
:10099000B9FBF0F00A21B0FBF1F201FB1208BAF149
:1009A000000F14D1701EA04211DDB8F1000F0CD160
:1009B000AB4605EBDB71491001FB0471C8B22B4655
:1009C00020220199FFF77CFF10E04FF0010AAB46AF
:1009D00005EBDB71491001FB0471C8B208F130016D
:1009E000CAB22B460199FFF76BFF00BF601CC4B26F
:1009F000B442C7DBBDE8FF9F2DE9F04105460E4636
:100A000014461F460EE022783B4631462846FFF743
:100A100057FF05F10800C5B2782D02DD0025B01C96
:100A2000C6B2641C20780028EDD1BDE8F0812DE924
:100A3000F04180460E461546002731464046FFF7F6
:100A4000D1FE002411E0000000080140F0940008ED
:100A5000C8920008F74A02EB8511085D0121FFF7F3
:100A60007DFE781CC7B2601CC4B2102CF2DB701C77
:100A7000C1B24046FFF7B6FE00240CE06900491CF5
:100A8000EC4A02EB4111085D0121FFF767FE781C7B
:100A9000C7B2601CC4B2102CF0DBBDE8F0812DE9B8
:100AA000F05F06460F4690461C46DDF828A04FF042
:100AB000000BE11704EB5171C910A4EBC10131B96E
:100AC0002046E11704EB5171C1F3C70506E020464B
:100AD000E11704EB5171C910491CCDB23D4615E038
:100AE00029463046FFF77EFEB1460BE059460BF132
:100AF000010B1AF801000121FFF730FE09F1010096
:100B000000F0FF09C145F1DB681CC5B2A542E7DB77
:100B1000BDE8F09F2DE9FF5F86B014461D464FF0FB
:100B2000010A00200390049005904FF0010900266F
:100B300000BF8346002213462046294607F042FDA7
:100B400009D285F00040CDE900402046019907F028
:100B5000EDFC064604E02046294607F0E7FC064681
:100B6000304607F098FC22462B46CDE9000107F0FD
:100B7000A0FB074688460022AF4B3846414607F0A7
:100B80009BFBCDE9000107F0F0FC834607E009EB91
:100B900089004FEA40090AF1010000F0FF0A0A202B
:100BA00096FBF0F090FBF9F00028F0D142F21070C3
:100BB00096FBF0F00A2190FBF1F201FB1200C0B2AB
:100BC0008DF80C004FF47A7096FBF0F090FBF1F288
:100BD00001FB1200C0B28DF80D00642096FBF0F00E
:100BE00090FBF1F201FB1200C0B28DF80E000A205A
:100BF00096FBF0F090FBF1F201FB1200C0B28DF811
:100C00000F000A2096FBF0F100FB1160C0B28DF8D6
:100C100010002E208DF811004FF47A70BBFBF0F01D
:100C20000A21B0FBF1F201FB12008DF812006420E2
:100C3000BBFBF0F0B0FBF1F201FB12008DF81300EA
:100C40000A20BBFBF0F0B0FBF1F201FB12008DF8C3
:100C500014000A20BBFBF0F100FB11B08DF8150069
:100C600000211498801D03AA1154894608E003A8A6
:100C700010F80900303003A901F8090009F1010951
:100C8000B9F10A0FF3DB002213462046294607F08C
:100C900099FC08D20AF1010000F0FF0A2D20CAF1E8
:100CA000050103AA50542E208DF81100002114983C
:100CB000801D03AA1154CAF1050003A9421810238C
:100CC000DDE90610FFF798FE0AB0BDE8F09F2DE9B8
:100CD000F04F89B08246894617469846DDF84CB0F9
:100CE0000120079000200490059006900124002523
:100CF00000BF00264FEAC9604FEA106938464146F6
:100D000007F014FC0546284607F0D6FB3A46434652
:100D1000CDE9000107F0CDFACDE902010022464BF2
:100D2000DDE9020107F0C8FACDE9000107F01DFC7A
:100D3000064606E004EB840044000798401CC0B25D
:100D400007900A20B5FBF0F0B0FBF4F00028F1D1D9
:100D500042F21070B5FBF0F00A21B0FBF1F201FB9A
:100D600012008DF810004FF47A70B5FBF0F0B0FB74
:100D7000F1F201FB12008DF811006420B5FBF0F0D8
:100D8000B0FBF1F201FB12008DF812000A20B5FB56
:100D9000F0F0B0FBF1F201FB12008DF813002E20F1
:100DA0008DF815004FF47A70B6FBF0F0B0FBF1F25D
:100DB00001FB12008DF816006420B6FBF0F0B0FBCA
:100DC000F1F201FB12008DF817000A20B6FBF0F0DB
:100DD000B0FBF1F201FB12008DF818000A20B6FBFF
:100DE000F0F100FB11608DF8190000210BF10600F5
:100DF00004AA1154002405E004A8005D303004A9C1
:100E00000855641C0A2CF7DB2E208DF815000021F4
:100E10000BF1060004AA11541298C0F1050004A9B0
:100E200042180C2351464846FFF7E6FD09B0BDE8DD
:100E3000F08F0000250000200088C3402DE9F0411C
:100E400005460F46164600BF05EB45014906080E4C
:100E50003946FFF7C7FC00240BE006F1100101EB57
:100E60004101FA4A02EB4101085D0121FFF776FCDE
:100E7000641C062CF1DBBDE8F0812DE9F04105464C
:100E80000F46164600BF05EB45014906080E3946D8
:100E9000FFF7A8FC002409E006EB4601EB4A02EB51
:100EA0004101085D0121FFF759FC641C062CF3DBAE
:100EB000BDE8F0812DE9F0470546894616463446DF
:100EC000002C22DA6442642094FBF0F100FB114014
:100ED0000A2190FBF1F0C7B20A2094FBF0F100FB6D
:100EE000114000F0FF080D2249462846FFF7C5FFD4
:100EF000691CC8B23A464946FFF7A0FFA91CC8B210
:100F000042464946FFF79AFF20E0642094FBF0F147
:100F100000FB11400A2190FBF1F0C7B20A2094FBBC
:100F2000F0F100FB114000F0FF080B224946284673
:100F3000FFF7A3FF691CC8B23A464946FFF77EFF98
:100F4000A91CC8B242464946FFF778FFBDE8F087C2
:100F50002DE9F04705468A4616463446002C2DDA20
:100F600064420D2251462846FFF787FF0A2094FB72
:100F7000F0F100FB1140C7B20A2094FBF0F00A2107
:100F800090FBF1F201FB120000F0FF08642094FBDB
:100F9000F0F000F0FF09E91CC8B23A465146FFF7ED
:100FA0004DFFA91CC8B242465146FFF747FF691CD6
:100FB000C8B24A465146FFF741FF2BE00B2251468B
:100FC0002846FFF75AFF0A2094FBF0F100FB11407E
:100FD000C7B20A2094FBF0F00A2190FBF1F201FB6A
:100FE000120000F0FF08642094FBF0F000F0FF090D
:100FF000E91CC8B23A465146FFF720FFA91CC8B207
:1010000042465146FFF71AFF691CC8B24A4651468C
:10101000FFF714FFBDE8F0872DE9F05F05468B462A
:1010200016463446002C00DA64424FF47A7094FB82
:10103000F0F0C7B24FF47A7094FBF0F100FB11406E
:10104000642190FBF1F000F0FF08642094FBF0F1C4
:1010500000FB11400A2190FBF1F000F0FF090A208B
:1010600094FBF0F100FB114000F0FF0A3A465946AC
:101070002846FFF7E3FE691CC8B242465946FFF70F
:10108000DDFEA91CC8B24A465946FFF7D7FEE91C47
:10109000C8B252465946FFF7D1FEBDE8F09F2DE990
:1010A000F05F05460E46144642F21070B4FBF0F0B5
:1010B000C7B242F21070B4FBF0F100FB11404FF4E4
:1010C0007A71B0FBF1F000F0FF080846B4FBF0F1D4
:1010D00000FB11406421B0FBF1F000F0FF09642037
:1010E000B4FBF0F100FB11400A21B0FBF1FA0A2039
:1010F000B4FBF0F100FB114B3A4631462846FFF7AE
:101100009DFE691CC8B242463146FFF797FEA91CF6
:10111000C8B24A463146FFF791FEE91CC8B25246B2
:101120003146FFF78BFE291DC8B25A463146FFF7FC
:1011300085FEBDE8F09F08B50121052005F080FD82
:101140000121434805F091FB0C20ADF80000102070
:101150008DF8030003208DF8020069463D4805F034
:10116000B3FA0C213B4805F05CFB4FF44870FFF7E5
:101170003CF90021AE20FFF7F1FA00210846FFF705
:10118000EDFA00211020FFF7E9FA00214020FFF7D7
:10119000E5FA0021B020FFF7E1FA00218120FFF7F6
:1011A000DDFA0021FF20FFF7D9FA0021A120FFF787
:1011B000D5FA0021A620FFF7D1FA0021A820FFF7D9
:1011C000CDFA00213F20FFF7C9FA0021C820FFF720
:1011D000C5FA0021D320FFF7C1FA00210846FFF726
:1011E000BDFA0021D520FFF7B9FA00218020FFF7D2
:1011F000B5FA0021D820FFF7B1FA00210520FFF74A
:10120000ADFA0021D920FFF7A9FA0021F120FFF75C
:10121000A5FA0021DA20FFF7A1FA00211220FFF73A
:101220009DFA0021DB20FFF799FA00213020FFF71B
:1012300095FA00218D20FFF791FA00211420FFF785
:101240008DFA0021AF20FFF789FA08BDC892000887
:1012500000023000000801402DE9F04705460C4629
:10126000204607F00AF98246FE488169504606F09A
:101270000CFF8046284607F000F98246F94841698C
:10128000504606F002FF8146414606F0A6FE07469C
:1012900007F01FF906463046BDE8F0872DE9F05FFC
:1012A00005460E4614460021204606F0E8FE834619
:1012B000EC488168584606F0E8FE814631462846EB
:1012C00006F0E0FE8346E7484168584606F0DDFE3A
:1012D0008246494606F081FE804607F0FAF8074646
:1012E0003846BDE8F09F2DE9F84F04460D461646F6
:1012F000DD4FA819001BDD490860DD48006807F0D4
:10130000BCF88346394606F0C0FE8146D7480068DF
:1013100007F0B3F8834639464FF07E5006F0AFFE33
:101320005946009006F0B1FE8246494606F055FE49
:10133000804607F0CEF8CF49086008460068CC49DF
:101340000860CD480068CB4909680844CA4908606C
:101350000846006842F21071884201DD084608E044
:10136000C5480068C549884201DA084601E0C2481C
:101370000068C1490860C249C248006807F060F9C6
:101380000ED3C149BF48006807F050F908D3BF48E1
:10139000006840F26A41884202DBBD48007810B91B
:1013A0000020B5490860B448006807F066F8834635
:1013B000AC480169584606F068FE8246AD480068B0
:1013C00007F05BF88346A748C168584606F05DFE03
:1013D0008146514606F001FE804607F07AF8AD4995
:1013E000086008460068BDE8F88F10B5002004F0DA
:1013F00080FD044614B3012C04D0022C05D0032C2C
:101400001AD110E0FFF740F817E0A148007848B97A
:10141000A1480078032190FBF1F201FB1200401C6F
:101420009D49087009E09A48007808B9012000E059
:1014300000209749087000E000BF00BF10BD2DE9F3
:10144000F04F89B0814601F0CDFA94490860B9F1B6
:10145000010F1ED101F000FA9148006880F00040B1
:10146000884908608F49B1F90010484207F005F833
:101470008D4908608B49B1F9040006F0FEFF8B49E5
:1014800008608B49B1F9040006F0F7FF894908604C
:10149000B2E04421D02004F032FC80464321D02029
:1014A00004F02DFC08EB0027384606F0E6FF044662
:1014B0004821D02004F023FC80464721D02004F0AE
:1014C0001EFC08EB0027384606F0D7FF06463E21F3
:1014D000D02004F014FC80463D21D02004F00FFC05
:1014E00008EB0027384606F0C8FF82464021D0208E
:1014F00004F005FC80463F21D02004F000FC08EBFE
:101500000027384606F0B9FF05464FF08E412046C9
:1015100007F096F805D24FF08F41204606F0AFFD58
:1015200004464FF08E41304607F08AF805D24FF05E
:101530008F41304606F0A3FD06464FF08E415046DF
:1015400007F07EF805D24FF08F41504606F097FD28
:1015500082464FF08E41284607F072F805D24FF0D0
:101560008F41284606F08BFD05464F48046028460B
:1015700007F014F8CDE90001504607F00FF80746D0
:10158000DDE9002307F0ACFD00224B4BCDE9020161
:1015900006F092FE494A4A4BCDE9040106F0FEFEF0
:1015A000CDE9060107F026F88346204606F0F6FF4F
:1015B0004FF06632434BCDE9060106F0EFFE0746D9
:1015C00007F018F8044634480078022804D1214670
:1015D000584601F065FA07E02F480078032803D148
:1015E0002146584601F073FB3748006825490860DA
:1015F0002E4806602F48056009B0BDE8F08F2DE940
:10160000F041202004F0E6FF00286BD02F4800684E
:10161000002868D1202004F0EEFF2D480078012832
:101620000BD12C480078401CC0B22A4908700A2807
:1016300003D10020087026490870022000F029FD1F
:1016400025490860042000F024FD24490860124860
:101650000078FFF7F4FE2248007864284AD1002081
:101660001F4941E0D00400203333333FEC03002016
:10167000F8030020F4030020F0030020F0D8FFFF5F
:101680000000A042AC0300200000A0C2CC03002058
:10169000E1030020E8030020A8030020E403002069
:1016A00010040020FC030020B0030020B40300203D
:1016B00002040020B803002000806640F1D4C85323
:1016C000FB21094066663040380400201481214225
:1016D0000100002000000020BC030020C003002007
:1016E000E003002045E143E1087000F068FEFE4998
:1016F000086004E0FD480078401CFC490870FC4884
:10170000007828BBFB48007810BBFB49886A0021A1
:1017100006F096FF13D2F849886A4FF07E5106F022
:1017200085FF03D80020F44988621AE0F249886AEC
:101730004FF07E5106F0A3FCEF49886211E0EE49BC
:10174000886AEE4906F07CFF03D80020EA498862E7
:1017500007E0E949886A4FF07E5106F03EFCE64911
:101760008862E3480078012807D1E349886A4FF08E
:101770007E5106F084FCE0498862DE48007801284A
:1017800007D1DD49886A4FF07E5106F026FCDA4920
:101790008862D949886ADA4906F052FF01D2D848EE
:1017A00009E0D549886AD74906F040FF01D2D548FB
:1017B00001E0D148806AD0498862D348007820BBD4
:1017C000D248007808BBC86A002106F039FF13D25E
:1017D000C949C86A4FF07E5106F028FF03D800209F
:1017E000C549C8621AE0C449C86A4FF07E5106F084
:1017F00046FCC149C86211E0BF49C86ABF4906F04A
:101800001FFF03D80020BC49C86207E0BA49C86A74
:101810004FF07E5106F0E1FBB749C862BA48007844
:10182000012807D1B449C86A4FF07E5106F0D5FBB4
:10183000B149C862B5480078012807D1AE49C86AE5
:101840004FF07E5106F01BFCAB49C862AA49C86A3A
:10185000AF4906F0F5FE01D2AD4809E0A649C86AD5
:10186000AC4906F0E3FE01D2AA4801E0A248C06AF2
:10187000A149C862A448007828B9A448007810B9E2
:10188000A54848610AE0A0480078012803D09F4895
:101890000078012802D1002097494861FFF7A5FD93
:1018A0009549886A06F015FE05469C4802689C48E2
:1018B00001682846FFF717FD8F49086208689949B3
:1018C0000A6899490968FFF7E9FC8B49C861C86A49
:1018D00006F0FFFD05469548006806F0FAFD06464D
:1018E0002946FFF7B9FC84494862086A06F0C5FD3D
:1018F000804681484168404606F0C7FB06467E495F
:10190000C86906F0BAFD0746314606F0B8FB054641
:1019100006F0DFFD04467848406A201A84490860D2
:101920007548406A204483490860814800F02AFCD9
:1019300081497D48006806F083FE0ED37F497A48CE
:10194000006806F073FE08D36748006840F26A41F9
:10195000884202DB7A48007820B90021084600F06E
:101960003AFC05E0734801687148006800F033FCF8
:1019700000BFBDE8F0814FF07E505F4908607148BC
:101980004860714888607148C86071480861714852
:101990008861614848610020C861086248627047F8
:1019A00038B510236CA200210846FFF725F86F48D0
:1019B0000078012809D10C236DA202210020FFF735
:1019C0001BF86F484C4908601BE068480078022803
:1019D0000AD10C236BA202210020FFF70DF84FF073
:1019E0007E50454908600CE060480078032808D123
:1019F0000C2368A202210020FEF7FEFF69483E4941
:101A000008600C2368A203210020FEF7F5FF684858
:101A100000680A2190FBF1F40C20022322460321E6
:101A200000902820FEF7A4FF0C2362A2032134209B
:101A3000FEF7E2FF5E4800680A2190FBF1F201FB2D
:101A400012040C2001232246032100903B20FEF7C4
:101A50008FFF0C2358A203214720FEF7CDFF0C2354
:101A600056A204210020FEF7C7FF1F48006864212A
:101A700090FBF1F40C200223224604210090402028
:101A8000FEF776FF0C234BA204214C20FEF7B4FF97
:101A900015480068642190FBF1F201FB12040C2050
:101AA00002232246042100905320FEF761FF0C23FD
:101AB00045A204215F20FEF79FFF0C2343A20521CE
:101AC0000020FEF799FF1848006806F002FD002884
:101AD00008DB0C233FA205213220FEF78DFF1248C0
:101AE000006879E0B4E00000CC030020E0030020AF
:101AF0002100002022000020D0040020000080BF30
:101B00000000B8410000B8C12300002024000020DC
:101B10000000C8420000C8C2CDCC4CBFC0030020AA
:101B2000BC030020B0030020AC030020B40300205D
:101B3000D8030020DC0300200000A0420000A0C267
:101B4000E10300200000BEC30000C0BFB81E053F77
:101B5000C3642A3B0000F0C120202042616C616E0A
:101B6000636543617220202000000000A80300206C
:101B700046696C7465723A444D5020202000000084
:101B8000CDCC4CBE46696C7465723A4B616C6D612C
:101B90006E00000046696C7465723A487562752083
:101BA00020000000CDCCCCBD54656D703A00000023
:101BB000E40300202E00000027430000566F6C74E1
:101BC0006167653A0000000056000000416E676CD6
:101BD000653A00002B00000006F07BFC4FF47A71A0
:101BE00090FBF1F201FB1200632818DDCF4800687A
:101BF00006F06FFC4FF47A7190FBF1F201FB1204D6
:101C00000C2003232246052100903A20FEF7B0FE67
:101C10000C23C7A205214E20FEF7EEFE66E0C34866
:101C2000006806F056FC4FF47A7190FBF1F201FB6C
:101C300012040C2002232246052100903A20FEF7D0
:101C400097FE0C23BBA205214620FEF7D5FE4DE0F2
:101C50000C23B9A205213220FEF7CEFEB34800685E
:101C600006F037FC4FF47A7190FBF1F201FB1200A1
:101C700041F65831081A41F6BB3188421BDAAB48AD
:101C8000006806F026FC4FF47A7190FBF1F201FB3C
:101C9000120041F658310C1A0C200223224605216D
:101CA00000903A20FEF764FE0C23A2A205214620F4
:101CB000FEF7A2FE1AE09D48006806F00AFC4FF409
:101CC0007A7190FBF1F201FB120041F658310C1AC7
:101CD0000C2003232246052100903A20FEF748FEFF
:101CE0000C2393A205214E20FEF786FE0C2393A21F
:101CF00006210020FEF780FE93480068002844DAA1
:101D0000914800684042914908600C238AA206214C
:101D10004820FEF771FE8D48006809280FDC0C2072
:101D2000012300908948062102685020FEF720FE1A
:101D30000C2387A206215620FEF75EFE65E083484D
:101D40000068092813DD8148006863280FDC0C2037
:101D5000022300907D48062102685020FEF708FE0D
:101D60000C237BA206215C20FEF746FE4DE077485F
:101D70000068632849DD0C20032300907348062186
:101D800002685020FEF7F4FD3FE00C23AFF2BC12D6
:101D900006214820FEF730FE6B48006809280FDC5A
:101DA0000C20012300906848062102685020FEF7AD
:101DB000DFFD0C2366A206215620FEF71DFE24E05F
:101DC00061480068092813DD5F48006863280FDC5C
:101DD0000C20022300905C48062102685020FEF788
:101DE000C7FD0C235AA206215C20FEF705FE0CE07D
:101DF00055480068632808DD0C20032300905248F2
:101E0000062102685020FEF7B3FD0C2352A20721E1
:101E10000020FEF7F1FD53480068002844DA5148DD
:101E200000684042504908600C2343A207214D201E
:101E3000FEF7E2FD4C48006809280FDC0C20012366
:101E400000904948072102685520FEF791FD0C23B8
:101E50003FA207215B20FEF7CFFD65E04248006806
:101E6000092813DD4048006863280FDC0C2002239A
:101E700000903D48072102685520FEF779FD0C23AC
:101E800033A207216120FEF7B7FD4DE03648006818
:101E9000632849DD0C2003230090334807210268A2
:101EA0005520FEF765FD3FE00C23AFF2D822072155
:101EB0004D20FEF7A1FD2B48006809280FDC0C20FF
:101EC000012300902748072102685520FEF750FDA6
:101ED0000C231FA207215B20FEF78EFD24E0214882
:101EE0000068092813DD1F48006863280FDC0C20F8
:101EF000022300901B48072102685520FEF738FD99
:101F00000C2313A207216120FEF776FD0CE0154893
:101F10000068632808DD0C20032300901148072186
:101F200002685520FEF724FD38BD0000AC030020F8
:101F300027000000272020002D000000456E636F61
:101F40004C6566743A000000BC030020C403002006
:101F50002020202000000000456E636F52696768F2
:101F6000743A0000C0030020C803002000B587B009
:101F70000121042004F064FE0121084604F06DFEF6
:101F800004208DF81B000320ADF8180006A95C485A
:101F900004F09AFB03A805F0B7FA0020ADF8120090
:101FA000ADF80E004FF6FF70ADF810000020ADF850
:101FB0000C0003A94FF0804004F07AFF00231A467A
:101FC00003214FF0804005F082FB684605F0AFFA30
:101FD0000A20ADF808006946400705F0FCF9012227
:101FE0001146900705F0DBFA00214FF0804005F024
:101FF0004FFD0121880705F0B7FA07B000BD00B515
:1020000087B00121082004F01BFE0121042004F008
:1020100024FE04208DF81B00C020ADF8180006A98E
:10202000384804F051FB03A805F06EFA0020ADF823
:102030001200ADF80E004FF6FF70ADF81000002052
:10204000ADF80C0003A9304804F032FF00231A4613
:1020500003212D4805F03BFB684605F068FA0A208D
:10206000ADF808006946284805F0B5F90121264871
:1020700005F040FD01221146234805F090FA0021A9
:10208000214805F005FD01211F4805F06DFA07B054
:1020900000BD70B50546022D02D0042D14D10AE012
:1020A0004FF0804005F017FD04B200214FF0804052
:1020B00005F0EEFC0AE0144805F00DFD04B2002125
:1020C000114805F0E5FC01E0002400BF00BF2046F8
:1020D00070BD10B50121880705F00FFD18B1012171
:1020E000880705F01BFD10BD10B50121064805F05D
:1020F00004FD18B10121044805F010FD10BD0000D9
:1021000000080140000C0140000800400EB501210C
:10211000092004F095FD48208DF803002020ADF83B
:10212000000003208DF8020069460B4804F0CCFA49
:102130000521012004F0DEFB2020019001208DF814
:102140000A0000208DF808000C208DF8090001A875
:1021500004F0DAF90EBD0000000C014008B50121C1
:10216000082004F06DFD10208DF803004EF20800E9
:10217000ADF8000003208DF802006946324804F0F3
:10218000A3FA08BD314B02681B689A4202DD2F4A50
:10219000126802602E4B02681B689A4202DA2C4ACF
:1021A00012680260294B0A681B689A4202DD274ABE
:1021B00012680A60264B0A681B689A4202DA244AAF
:1021C00012680A6070470146002901DD0A4600E0F6
:1021D0004A421046704770B505460C46002D07DD93
:1021E00001201C49086000201B49C1F8BC0106E021
:1021F00000201849086001201749C1F8BC01284691
:10220000FFF7E1FF86B23146144805F045FC002C8B
:1022100008DD00200F49091F086001200E49C1F8A0
:102220008C0107E001200B49091F086000200A49C2
:10223000C1F88C012046FFF7C6FF86B23146074839
:1022400005F030FC70BD0000000C0140D003002000
:10225000D4030020B881214200802142002C01409B
:1022600030B589B004460D46012140F6050004F062
:10227000E7FC18208DF823004FF41060ADF8200023
:1022800003208DF8220008A91E4804F01DFA05A8B5
:1022900005F03AF90020ADF81A00ADF81600ADF8D7
:1022A0001850ADF8144005A9174804F001FE60204D
:1022B000ADF804000020ADF80C000120ADF80600D8
:1022C0000020ADF80A0001A90F4804F02EFE01A974
:1022D0000D4804F004FF01210B4805F051F90821D5
:1022E000094805F071FA0821074805F08CFA012128
:1022F000054805F039FA0121034805F035F909B020
:1023000030BD000000080140002C014000B587B03E
:1023100001214FF4017004F093FC4FF4004004F0ED
:10232000F3FB4020ADF8040000208DF8070001A960
:10233000364804F0C9F9364803F0B0FE0020029098
:102340008DF80C008DF80D004FF4602004900020F3
:10235000059001208DF8180002A92D4803F0C5FE54
:1023600001212B4803F0EDFE294803F00CFF00BFCC
:10237000274803F00DFF0028FAD1254803F012FF8B
:1023800000BF234803F013FF0028FAD107B000BDB7
:1023900010B504460723012221461D4803F03DFFE6
:1023A00001211B4803F00DFF00BF0221184804F073
:1023B00079F80028F9D0164803F096FF10BD2DE9F2
:1023C000F04F85B00620FFF7E3FF019006F074F8A8
:1023D0004FF066320F4BCDE9020105F06DFF8046EC
:1023E00000220D4B05F068FF064600220B4B05F05E
:1023F00063FF044600220A4B05F0D0FF824606F038
:1024000095F80490049805B0BDE8F08F00080140ED
:102410000024014066660A40000026400000594042
:102420000000B040014691F90020002A01DD0020A3
:102430001EE091F90020002A01DA042018E091F949
:102440000120002A01DD012012E091F90120002A7B
:1024500001DA05200CE091F90220002A01DD0220BA
:1024600006E091F90220002A01DA062000E00720A8
:10247000704770B505462846FFF7D4FF0446E81CB0
:10248000FFF7D0FF44EAC00084B2A81DFFF7CAFFDF
:1024900044EA801084B2204670BD70B588B002A9AD
:1024A00005A802F053F90446072C3CD101A801F01D
:1024B000C3FB059805F0E1FF0646019905F0E5FD2F
:1024C000054606F006F80590069805F0D6FF064684
:1024D000019905F0DAFD054605F0FBFF0690079827
:1024E00005F0CBFF0646019905F0CFFD054605F046
:1024F000F0FF079005A802F03AFC684601F0B9FB2E
:10250000BDF80010029848430290BDF800100398EF
:1025100048430390BDF8001004984843049002A873
:1025200002F0B8FC00BF08B070BD2DE9F0430446CE
:102530000D46DDE907670021012041E0DFF814C501
:102540003CF81080A0F1010CDFF8089529F81C80F8
:1025500009F1160C3CF81090A0F1010CDFF8F4849E
:1025600008F1160828F81C9008F1160C3CF8109099
:10257000A0F1010C08F1160828F81C9008F1160CBF
:102580003CF81090A0F1010C08F1160828F81C90F6
:1025900008F1160C3CF81090A0F1010C08F1160897
:1025A00028F81C9008F1160C3CF81090A0F1010CD2
:1025B00008F1160828F81C9000F1010C0CF0FF003F
:1025C0000A28BBDBDFF88CC4ACF81240ACF828500A
:1025D000ACF83E20ACF85430ACF86A60ACF88070CF
:1025E0000021002008E0DFF86CC43CF910C0614411
:1025F00000F1010C0CF0FF000A28F4DB4FF00A0C8C
:1026000091FBFCFC0FFA8CFCDFF84884A8F814C09E
:10261000002100200AE0DFF83CC40CF1160C3CF964
:1026200010C0614400F1010C0CF0FF000A28F2DB3D
:102630004FF00A0C91FBFCFC0FFA8CF8DFF814C485
:10264000ACF82A80002100200AE0DFF808C40CF171
:102650002C0C3CF910C0614400F1010C0CF0FF009F
:102660000A28F2DB4FF00A0C91FBFCFC0FFA8CF805
:10267000DFF8E0C3ACF84080002100200AE0DFF87A
:10268000D4C30CF1420C3CF910C0614400F1010CC0
:102690000CF0FF000A28F2DB4FF00A0C91FBFCFC67
:1026A0000FFA8CF8DFF8ACC3ACF85680002100209C
:1026B0000AE0DFF8A0C30CF1580C3CF910C06144EB
:1026C00000F1010C0CF0FF000A28F2DB4FF00A0CBD
:1026D00091FBFCFC0FFA8CF8DFF878C3ACF86C8047
:1026E000002100200AE0DFF86CC30CF16E0C3CF90D
:1026F00010C0614400F1010C0CF0FF000A28F2DB6D
:102700004FF00A0C91FBFCFC0FFA8CF8DFF844C385
:10271000ACF88280BDE8F08338B50446032302227A
:102720006B21D020009403F07DFB38BD38B5044602
:10273000022304221B21D020009403F073FB38BD38
:1027400038B50446022304221C21D020009403F053
:1027500069FB38BD10B50446234606226B21D02004
:1027600003F095FB10BD10B5BB4B01227521D020A5
:1027700003F0E8FAB848007810BD10B5FFF7F3FF92
:10278000682801D1012010BD0020FCE710B50446E7
:10279000234605226A21D02003F079FB10BD10B535
:1027A0000446234601223721D02003F070FB10BDE0
:1027B00010B50220FFF7B0FF0320FFF7B7FF00209E
:1027C000FFF7BEFF0020FFF7C5FF0020FFF7DEFF89
:1027D0000020FFF7E4FF10BD38B5002000906B46E5
:1027E00001227521682003F04FFA9DF80000682847
:1027F00011D000BFBFF34F8F9848006800F4E0602D
:1028000097490843001D95490860BFF34F8F00BFEB
:1028100000BF00BFFDE700F01CFFE0B9782000F02A
:1028200080FB782000F064FDC82000F042FE02F03A
:1028300003FA8C48FFF71DFE044602F007FA40F247
:10284000731002F044FEC82002F0BAFBFFF725FE29
:10285000012001F036FF38BD2DE9F04F8DB00AA8F8
:1028600081490BAB06AACDE900108049804802F0EF
:102870008DFF7D48008800F4807000287ED0069887
:1028800005F0FBFD04464FF09D4105F030FC794911
:102890000860079805F0F1FD04464FF09D4105F0F2
:1028A00026FC75490860089805F0E7FD04464FF0DE
:1028B0009D4105F01CFC71490860099805F0DDFD9B
:1028C00004464FF09D4105F012FC6D4908606948CF
:1028D00001684FF0804005F0D8FB0490674801681C
:1028E000049805F0D2FB8246634801684FF04040EF
:1028F00005F0CBFB049062480168049805F0C5FB25
:102900008346514605F069FB059005F047FE804679
:1029100006F09EF906464FF066325A4B05F0CCFCA5
:10292000044605F067FE58490860544801684FF0B6
:10293000804005F0AAFB019050480168019805F01D
:10294000A4FB82464C4801684FF0404005F09DFBD7
:10295000019049480168019805F097FB834651466C
:1029600005F08DFB81464FF07E5105F036FB0446A5
:1029700005F014FECDE904013E4800E02FE00168B7
:102980004FF0804005F081FB83463B480168584684
:1029900005F07BFB8146394801684FF0804005F027
:1029A00074FB834636480168584605F06EFB824644
:1029B000494605F012FB044605F0F0FDCDE90201A1
:1029C000DDE9042306F08CFB07464FF066322D4B01
:1029D00005F072FC054605F00DFE2C4908600DB0AF
:1029E000BDE8F08F2DE9F05F4221D02003F087F998
:1029F00005464121D02003F082F905EB0024204652
:102A000005F03BFD82464FF08E41504605F018FE22
:102A100005D24FF08F41504605F031FB82461C49EC
:102A2000504605F064FB834605F0B8FD8046194A20
:102A3000194B05F09AFB06460022184B05F03CFCAA
:102A4000044605F0D7FD8246504605F042FDBDE83C
:102A5000F09F00000E050020000500200CED00E0B6
:102A60000000FA05240400200804002002040020CD
:102A7000FC03002014040020180400201C04002083
:102A80002004002066A64C400C0400201004002006
:102A90000000AA43A4703D0AD743424000002440EE
:102AA0002DE9F04105460C46AA480168204605F08C
:102AB000E6FA0746A8480168384605F0E6FA0646F1
:102AC000A6480168304605F088FAA4490860A44881
:102AD0004168A448006805F0D2FA0646A04881681B
:102AE000304605F0CCFAA04908609D48C06880F0E7
:102AF000004048609A48C06880F0004088609B4869
:102B00000068C86008689449096805F0BEFA06467E
:102B100093480168304605F060FA9149086092498F
:102B200048688D49096805F0B0FA06468C48416846
:102B3000304605F052FA8A4948608B4988688649D0
:102B4000096805F0A2FA064685488168304605F016
:102B500044FA834988608449C8687F49096805F058
:102B600094FA06467E48C168304605F036FA7C493C
:102B7000C8607A480168284605F081FA7C490860F7
:102B80007C48007805F082FC0646754801683046AE
:102B900005F07BFA784908607648007805F076FC05
:102BA00006466F488168304605F06FFA7349086041
:102BB0007048007805F06AFC07466F48016838469F
:102BC00005F063FA06466E480168304605F005FADE
:102BD0006C490860084601686748006805F087FA94
:102BE00069490860674801686448006805F07FFA31
:102BF0006649086060480068654908605D4800787B
:102C000005F044FC064656484168304605F03DFA5A
:102C1000604908605E4801685B48006805F035FA65
:102C200006464F480168304605F02CFA4C490860CA
:102C3000584801685448006805F027FA0646484895
:102C40004168304605F01EFA454948605048016821
:102C50004E48006805F019FA06464148816830463A
:102C600005F010FA3E4988604A4801684748006804
:102C700005F00BFA06463A48C168304605F002FAFC
:102C80003749C8603A4801683F48006805F0FDF9D7
:102C9000064632480168304605F09FF92F49086022
:102CA000334801683948006805F0EFF906462948BD
:102CB0000168304605F091F9264908600846016828
:102CC000204605F0DCF934490860BDE8F0812DE9C3
:102CD000F04F8BB083468A46504605F05FFC804635
:102CE0002E4A2F4B05F0E8FACDE902011B48006897
:102CF00005F054FCCDE90001DDE9022305F035FAC9
:102D000004460D46274801684FF07E5005F0B7F99C
:102D1000804605F043FC064622462B4605F0CCFAD9
:102D2000CDE906011F480168584605F0AEF9044692
:102D300005F034FCCDE90401DDE9062305F015FAC0
:102D4000CDE9080105F056FC044908600BB0BDE868
:102D5000F08F0000540400204C04002038040020B0
:102D60007804002040040020940500204404002042
:102D700058040020500400205C040020600400205F
:102D80004804002064040020680400206C04002033
:102D900070040020740400203C0400207B14AE4723
:102DA000E17A743F3404002038B50446FB4890F8BB
:102DB0002400C0B114B10220009001E00020009076
:102DC000F64A1268D17BF54A526810786B460122A8
:102DD00002F0F6FE10B14FF0FF3038BD9DF8001044
:102DE000EE48417423E0ED48807A10B94FF0FF308F
:102DF000F3E724B1E948407C08B10020EDE714B1C5
:102E00000120009001E000200090E44A1268D17B8C
:102E1000E24A526810786B46012202F0D1FE10B1EE
:102E20004FF0FF30D9E79DF80010DC4841740020D6
:102E3000D3E738B5002419E0D8480068C07AA0422A
:102E400004D0D6480068407DA04200D10CE0D349B0
:102E5000496808786B460122214602F015FF10B13F
:102E60004FF0FF3038BD00BF601CC4B2CB48406893
:102E70000079A042E0DC0020F4E770B504460D467E
:102E8000C6480068C07AA04204D0C4480068407DAB
:102E9000A04202D14FF0FF3070BDC04840680079B9
:102EA000A04202DC4FF0FF30F6E7BC4949680878E1
:102EB0002B460122214602F0E7FEEDE738B5044635
:102EC000B64890F82300A04201D1002038BD14B1CB
:102ED0003020009001E000200090B048807C20B1BC
:102EE0009DF8000040F002000090AC4890F82200ED
:102EF00020B19DF8000040F080000090A74A1268C1
:102F0000117DA64A526810786B46012202F058FEE5
:102F100010B14FF0FF30D9E7A04880F823400020DF
:102F2000D4E738B5044604F0700010B101200090D9
:102F300005E014B10020009001E040200090974A85
:102F40001268917C954A526810786B46012202F013
:102F500037FE20B1002191488172481E38BD9DF88E
:102F6000000020F040018D4801730020009004F023
:102F7000400020B99DF8000040F00400009004F0EB
:102F8000200020B99DF8000040F00200009004F0FD
:102F9000100020B99DF8000040F00100009004F0FE
:102FA000080020B99DF8000040F0380000907B4AEE
:102FB0001268D17C794A526810786B46012202F07F
:102FC000FFFD20B1002175488172481EC6E724B17B
:102FD000082C02D00020FFF771FF70488472002196
:102FE00001753220FDF701FA0020B7E738B5044635
:102FF0006A48807CA04201D1002038BD002C46D018
:10300000664A12681179654A526810786B46012247
:1030100002F03AFE10B14FF0FF30EEE79DF80000ED
:1030200020F0200000905D4A126811795B4A5268D6
:1030300010786B46012202F0C3FD10B14FF0FF3053
:10304000DBE70320FDF7D1F902200090534890F808
:10305000220020B19DF8000040F0800000904F4811
:1030600090F8230020B19DF8000040F0300000905F
:103070004A4A1268117D494A526810786B4601220B
:1030800002F09EFD002851D04FF0FF30B5E7434AD3
:1030900012681179414A526810786B46012202F099
:1030A000F3FD10B14FF0FF30A7E73C48807A00F005
:1030B000010028B19DF8000040F02000009004E0DD
:1030C0009DF8000020F020000090344A1268117929
:1030D000324A526810786B46012202F071FD10B13D
:1030E0004FF0FF3089E70320FDF77FF92B4890F878
:1030F000220010B18020009001E0002000902748BD
:1031000090F8230020B19DF8000040F030000090BE
:10311000224A1268117D214A526810786B460122BA
:1031200002F04EFD10B14FF0FF3066E71B4884748B
:10313000002062E708B51948807A10B94FF0FF30D7
:1031400008BD00200090154A1268D17B134A5268CE
:1031500010786B46012202F033FD10B14FF0FF30C2
:10316000EEE70E4A126851790C4A526810786B46A5
:10317000012202F025FD10B14FF0FF30E0E7074AD1
:1031800012681179054A526810786B46012202F0E4
:1031900017FD28B14FF0FF30D2E70000880400206F
:1031A000F74890F82400002850D00C200090F44AF2
:1031B00012681179F24A526810786B46012202F0C7
:1031C000FFFC10B14FF0FF30BAE7C0200090EC4890
:1031D000807A00F0010020B19DF8000040F020004E
:1031E0000090E74A12681179E54A526810786B46F8
:1031F000012202F0E5FC10B14FF0FF30A0E7E048FB
:10320000407C10B10220009001E000200090DC4AD8
:103210001268D17BDA4A526810786B46012202F0BC
:10322000CFFC10B14FF0FF308AE700200090D44A65
:1032300012685179D24A526810786B46012202F026
:10324000BFFC002852D04FF0FF3079E704200090F7
:10325000CB4A12681179CA4A526810786B4601222B
:1032600002F0AEFC10B14FF0FF3069E7C448807C3B
:1032700020B9C348807A00F0010010B940200090C6
:1032800001E060200090BE4A12681179BC4A526881
:1032900010786B46012202F093FC10B14FF0FF3022
:1032A0004EE7B748407C10B10120009001E00020BB
:1032B0000090B34A1268D17BB14A526810786B46CD
:1032C000012202F07DFC10B14FF0FF3038E7AC4A2C
:1032D00012685179AA4A52681078A94B103301221A
:1032E00002F06EFC10B14FF0FF3029E7002027E715
:1032F00070B50446002624F00104A14890F824008B
:1033000008B1002070BD9E48807A10B94FF0FF30A0
:10331000F8E79B48057C807A204099490874084664
:10332000007CA04202D04FF0FF3600E0002614B926
:103330009348007D18B10120FFF736FD02E0002020
:10334000FFF732FD3CB1FFF7F5FE20B18C48057464
:103350004FF0FF30D6E73046D4E738B5044688480A
:10336000807A10B94FF0FF3038BDBC2C02DB012051
:10337000009015E0622C02DB0220009010E02A2C65
:1033800002DB032000900BE0142C02DB04200090F1
:1033900006E00A2C02DB0520009001E006200090E8
:1033A0007748C07A9DF80010884201D10020DBE701
:1033B000734A12689178724A526810786B460122FB
:1033C00002F0FEFB10B14FF0FF30CDE79DF800108A
:1033D0006B48C1720020C7E738B50446282C02DDCF
:1033E0004FF0FF3038BDDCB90020FFF767FD00204B
:1033F0008DF8000007208DF80100614A1268917C69
:103400005F4A526810786B46022202F0D9FB10B175
:103410004FF0FF30E6E70021594801750020E1E751
:103420000120FFF74BFD20208DF80000012C06D174
:1034300000208DF801000520FFF78FFF17E0052C15
:1034400006DC01208DF801000520FFF786FF0EE065
:10345000142C06DC02208DF801000A20FFF77DFF06
:1034600005E003208DF801001420FFF776FF9DF89A
:103470000100072101EB8010C0B28DF80100404A25
:103480001268917C3E4A526810786B46022202F024
:1034900097FB10B14FF0FF30A4E708213848817244
:1034A00000210173012101750020FFF721FF002099
:1034B00098E738B504463248807A10B94FF0FF30AB
:1034C00038BD2F4890F8240010B14FF0FF30F7E7D7
:1034D0002B48007D50B134B1282C04DCE0B2FFF75A
:1034E0007BFF0020ECE70020FFF776FF042C01DAD9
:1034F000042404E0B4F57A7F01DD4FF47A744FF4CC
:103500007A7090FBF4F0401EC0B200901C4A126822
:1035100051781B4A526810786B46012202F050FB2A
:1035200010B14FF0FF30CBE79DF80000401C4FF486
:103530007A7191FBF0F081B21148C1810146C989CD
:103540004810FFF70AFF0020BAE738B504460C48D8
:10355000807A10B94FF0FF3038BD022C06D0042C11
:1035600007D0082C08D0102C0FD10BE000200090C1
:103570000EE0082000900BE01020009008E0000012
:10358000880400201820009002E04FF0FF30E3E7AD
:1035900000BFF948407A9DF80010B0EBE10F01D16F
:1035A0000020D9E7F44A1268D179F34A52681078BA
:1035B0006B46012202F004FB10B14FF0FF30CBE765
:1035C0009DF80000C110EC4841720020C4E738B5F6
:1035D0000446E948807A10B94FF0FF3038BDFA2C24
:1035E00009D0B4F5FA7F09D0B4F57A7F09D0B4F5E3
:1035F000FA6F0CD108E0002000900BE0082000904A
:1036000008E01020009005E01820009002E04FF044
:10361000FF30E3E700BFD848007A9DF80010B0EB18
:10362000E10F01D10020D9E7D34A12689179D24A3B
:10363000526810786B46012202F0C2FA10B14FF0C6
:10364000FF30CBE79DF80000C010CB490872002086
:10365000C4E71CB580208DF80000C74A1268917C31
:10366000C54A526810786B46012202F0A9FA10B1DF
:103670004FF0FF301CBD6420FCF7B7FE00208DF832
:103680000000BD4A1268917CBB4A526810786B46B4
:10369000012202F095FA10B14FF0FF30EAE7B64A86
:1036A0001268917DB44A526810786B46062202F087
:1036B000EBFA10B14FF0FF30DCE79DF80500C007D2
:1036C000400F9DF8031001F0010140EA41009DF810
:1036D000011001F0010140EA010494B1012C03D171
:1036E0000121A548C17431E0022C03D10021A24878
:1036F000C1742BE02146A1A005F05EF94FF0FF3028
:10370000B8E79D4A1268D1789B4A526810786B4698
:10371000012202F0B9FA10B14FF0FF30AAE79DF88C
:10372000000000F00F042CB99E4805F045F94FF059
:10373000FF309FE7042C06D19BA005F03DF9012145
:103740008D48C17402E000218B48C174FF218A4872
:103750008172FF2088490872FF2187484172C17237
:103760004FF6FF71C181FF21017481740121017342
:1037700080F82210002180F8231041750175163061
:10378000016041608160163880F8241080F82510AF
:10379000C1844FF4FA60FFF71AFF10B14FF0FF3009
:1037A00068E70220FFF7D1FE10B14FF0FF3061E76C
:1037B0002A20FFF7D2FD10B14FF0FF305AE7322038
:1037C000FFF777FE10B14FF0FF3053E70020FFF70F
:1037D0008FFD10B14FF0FF304CE70020FFF706FCE3
:1037E00010B14FF0FF3045E70020FFF79AFB0020B3
:1037F00040E770477CB504460D465F48807A00F08C
:10380000700010B94FF0FF307CBD5B4A1268117B2D
:10381000594A526810786B46062202F035FA10B108
:103820004FF0FF30F0E79DF801009DF8001040EAEE
:10383000012000B220809DF803009DF8021040EAAC
:10384000012000B260809DF805009DF8041040EA58
:10385000012000B2A08015B12846FFF7CAFF002062
:10386000D2E77CB504460D464348807A00F0080054
:1038700010B94FF0FF307CBD3F4A1268517B3E4A81
:10388000526810786B46062202F0FEF910B14FF034
:10389000FF30F0E79DF801009DF8001040EA01209C
:1038A00000B220809DF803009DF8021040EA01203C
:1038B00000B260809DF805009DF8041040EA0120E8
:1038C00000B2A08015B12846FFF793FF0020D2E791
:1038D0002DE9FE4F05460C462748807A18B94FF06F
:1038E000FF30BDE8FE8F244A1268917B224A52685D
:1038F000107802AB022202F0C7F910B14FF0FF308E
:10390000EFE79DF809009DF8081040EA012006B293
:1039100014B12046FFF76DFF17494968C88804F0C5
:10392000B5FD154901904968B1F9080004F0A5FDFD
:103930008346304604F0A1FD5946009004F09FFBF9
:103940008246019904F0D3FB81461F4904F045FBF0
:1039500080464FF08F4104F098FB074604F0B9FD14
:1039600028600020BDE710B588B004461CB94FF0B0
:10397000FF3008B010BD29E088040020556E737533
:1039800070706F7274656420736F667477617265AE
:103990002070726F64756374207265762025642EC2
:1039A0000A00000018A8000848616C662073656E64
:1039B0007369746976697479207061727420666FB6
:1039C000756E642E0D0A000000000C42206830B9AC
:1039D000606820B9A06810B9002008B010BDFA498D
:1039E0004968087806AB0322114602F04DF910B180
:1039F0004FF0FF30F1E79DF81800082101EB20108F
:103A000000F00F00ADF800009DF8190001EB201048
:103A100000F00F00ADF802009DF81A0001EB201035
:103A200000F00F00ADF8040020684100BDF900006F
:103A3000403091FBF0F000B2ADF81000606841003A
:103A4000BDF90200403091FBF0F000B2ADF8120079
:103A5000A0684100BDF90400403091FBF0F000B2D5
:103A6000ADF81400D8494968087806AB062211461B
:103A700002F00AF910B14FF0FF30AEE79DF81900DF
:103A80009DF8181040EA012000B2ADF808009DF83A
:103A90001B009DF81A1040EA012000B2ADF80A00A0
:103AA0009DF81D009DF81C1040EA012000B2ADF801
:103AB0000C00BDF81000BDF80810084400B2ADF8C5
:103AC0001000BDF81200BDF80A10084400B2ADF8AD
:103AD0001200BDF81400BDF80C10084400B2ADF897
:103AE0001400BDF81000000A8DF81800BDF8100091
:103AF000C0B28DF81900BDF81200000A8DF81A0046
:103B0000BDF81200C0B28DF81B00BDF81400000A09
:103B10008DF81C00BDF81400C0B28DF81D00AA4934
:103B20004968087806AB0622114602F049F810B140
:103B30004FF0FF3051E700204FE70146A248007ADE
:103B400030B1012807D0022809D003280FD10AE09C
:103B5000FA2008800EE04FF4FA7008800AE04FF473
:103B60007A70088006E04FF4FA60088002E00020D6
:103B7000088000BF00BF0020704701469248407A8D
:103B800030B1012807D0022808D003280CD108E062
:103B9000022008700BE00420087008E0082008707C
:103BA00005E01020087002E04FF0FF30704700BFC2
:103BB0008548C07C18B108784006000E08700020C7
:103BC000F4E701468048C07A082817D2DFE800F001
:103BD0001704070A0D101318BC20088013E0622098
:103BE000088010E02A2008800DE0142008800AE0F8
:103BF0000A20088007E00520088004E000BF00BF1D
:103C00000020088000BF00BF0020704701466E48BA
:103C100090F8240010B14FF0FF3070476A48C08917
:103C200008800020F9E7014600200880401E704708
:103C300001464FF0FF30704701466348007A30B1CB
:103C4000012807D0022808D003280CD108E05F48DB
:103C500008600BE05E48086008E05E48086005E028
:103C60005D48086002E04FF0FF30704700BF002061
:103C7000FBE701465448407A30B1012808D00228B9
:103C80000AD0032810D10BE04FF4804008800EE0EA
:103C900041F69C7008800AE04FF48050088006E0EE
:103CA0004FF40060088002E04FF0FF30704700BF23
:103CB0004548C07C10B10888401008800020F5E716
:103CC00001464148007C08700020704701463E488C
:103CD000807A10B10120087001E0002008700020F7
:103CE000704738B504463848807A10B94FF0FF3035
:103CF00038BD354A1268117C334A526810786B46D9
:103D0000022201F0C1FF10B14FF0FF30F0E79DF843
:103D100001009DF8001040EA012000B22080002040
:103D2000E6E72DE9FE4F0746884692461D46DDF838
:103D300030B000260024244890F8240010B1601E02
:103D4000BDE8FE8F002028701F48807A10B94FF020
:103D5000FF30F5E71C48007C10B94FF0FF30EFE76B
:103D60001948007C00F0400008B1B01CC6B21648EB
:103D7000007C00F0200008B1B01CC6B21248007CE4
:103D800000F0100008B1B01CC6B20F48007C00F073
:103D9000080008B1B01DC6B20B4A1268917A0A4AEF
:103DA000526810786B46022201F06EFF10B14FF09E
:103DB000FF30C5E79DF801009DF8001040EA012999
:103DC000B1450BDA0020BBE7880400200000034364
:103DD000000083423333034233338341FC4840685D
:103DE0004088B9EB600F17DDF94A1268517CF84A38
:103DF000526810786B46012201F046FF10B14FF077
:103E0000FF309DE79DF8000000F0100020B1FFF7A3
:103E100091F96FF0010093E75046FFF7EAFCEC4A96
:103E20001268D17AEA4A526810786B46324601F03D
:103E30002BFF10B14FF0FF3082E799FBF6F0401EE8
:103E40008BF8000000202870B4422AD0E048007CA3
:103E500000F0080028B3601C1DF800001DF80410D5
:103E600040EA012000B2A8F80000E01C1DF8001094
:103E7000A01C1DF8000041EA002000B2A8F80200D2
:103E8000601D1DF80010201D1DF8000041EA0020F3
:103E900000B2A8F80400287840F008002870A01D9F
:103EA00084B2B44213D0CA48007C00F0400070B124
:103EB000601C1DF800001DF8041040EA012000B24B
:103EC0003880287840F040002870A01C84B2B442AA
:103ED00013D0BF48007C00F0200070B1601C1DF8BA
:103EE00000001DF8041040EA012000B27880287814
:103EF00040F020002870A01C84B2B44213D0B44813
:103F0000007C00F0100070B1601C1DF800001DF86E
:103F1000041040EA012000B2B880287840F0100078
:103F20002870A01C84B200200AE7F8B504460F46AA
:103F30001646A74890F8240010B94FF0FF30F8BD9E
:103F4000A348807A10B94FF0FF30F8E7A04A126812
:103F5000917A9F4A526810786B46022201F094FED3
:103F600010B14FF0FF30EAE79DF801009DF8001016
:103F700040EA0125A54203DA00203070401EDEE74A
:103F8000934840684088B5EB600F17DD904A12688F
:103F9000517C8F4A526810786B46012201F074FE02
:103FA00010B14FF0FF30CAE79DF8000000F010009C
:103FB00020B1FFF7BFF86FF00100C0E7E2B2844B19
:103FC0001B68D97A824B5B6818783B4601F05CFE2F
:103FD00010B14FF0FF30B2E795FBF4F0401E3070A7
:103FE0000020ACE701467A4880F822100020704794
:103FF0007CB5054676494968087801AB04220D2155
:1040000001F042FE08B107207CBD9DF80700C0F317
:1040100001109DF8041001F0E00140EAE1008DF884
:1040200000009DF80700C0F381009DF8051001F025
:10403000E00140EAE1008DF801009DF8070000F082
:1040400003009DF8061001F0E00140EAE1008DF860
:10405000020000241CE01DF8040018B9002045F8F7
:10406000240013E05B4845F8240006E055F82400DE
:10407000594904F00AF845F824001DF80400401ED0
:10408000C0B20DF804000028F0D100BF601CC4B21B
:10409000032CE0DB0020B7E72DE9FE4F06460F4674
:1040A00000256846FFF7A4FF002442E056F82400EC
:1040B00057F82410A0EB010ABAF1000F01DB5146BA
:1040C00001E0CAF10001084604F0D7F983464FF039
:1040D0008F4104F00CF880465DF82400002104F0C4
:1040E000A5FA16D05DF82410404604F000F8824688
:1040F0004FF07E5103F0C3FF814629F0004A374854
:10410000416A504604F09CFA12D20120A0400543B7
:104110000EE03248C169404604F088FA05D32F48C2
:10412000016A404604F08CFA02D20120A040054307
:10413000641C032CBADB2846BDE8FE8F2DE9FC5F2A
:1041400006460F46002522494968087801AB03223C
:104150000D2101F099FD10B10720BDE8FC9F9DF8ED
:10416000040000F01F008DF804009DF8050000F029
:104170001F008DF805009DF8060000F01F008DF867
:104180000600002462E056F8240057F82410A0EB43
:10419000010BBBF1000F01DB594601E0CBF100013F
:1041A000084604F06AF94FF08F41009003F09FFF3A
:1041B000814601A8005DC0B30849086804F066F9AB
:1041C00083465946064803F092FF80460FE0000000
:1041D000880400207B14AE3E1D5A843F089B0008D3
:1041E00000B04C45FE49404603F04FFF804601A811
:1041F000005D401EC0B201A908550028F2D1414619
:10420000484603F074FF83464FF07E5103F037FFBA
:1042100082462AF0004BF3488169584604F010FAB0
:1042200013D20120A04005430FE0FFE7ED480169EC
:10423000484604F0FBF905D3EA484169484604F0D2
:10424000FFF902D20120A0400543641C032C9ADB35
:10425000284682E72DE9F04F87B005460C46914687
:1042600001208DF8100000208DF81100DE4A126840
:10427000917CDD4A5268107804AB022201F0A0FC68
:1042800020B14FF0FF3007B0BDE8F08FC820FCF739
:10429000ACF800208DF81000D34A1268D17BD24AC6
:1042A0005268107804AB012201F08AFC10B14FF083
:1042B000FF30E8E7CC4A12685179CB4A526810784F
:1042C00004AB012201F07CFC10B14FF0FF30DAE7C3
:1042D000C54A1268917CC44A5268107804AB012226
:1042E00001F06EFC10B14FF0FF30CCE7BE4A12680F
:1042F000D17DBD4A5268107804AB012201F060FC08
:1043000010B14FF0FF30BEE7B74A12681179B64AD4
:104310005268107804AB012201F052FC10B14FF04A
:10432000FF30B0E70C208DF81000AF4A1268117909
:10433000AD4A5268107804AB012201F041FC10B183
:104340004FF0FF309FE70F20FCF74FF8A648806A38
:10435000407A8DF81000A44A12689178A24A5268F7
:10436000107804AB012201F02BFC10B14FF0FF30AC
:1043700089E79D48806A007A8DF810009A4A126891
:104380005178994A5268107804AB012201F018FC68
:1043900010B14FF0FF3076E7B9F1000F07D0924827
:1043A000806A807A40F0E0008DF8100004E08E48CA
:1043B000806A807A8DF810008B4A126891798A4A57
:1043C0005268107804AB012201F0FAFB10B14FF0F3
:1043D000FF3058E7B9F1000F07D08348806AC07AF0
:1043E00040F0E0008DF8100003E07E48C07A8DF8C0
:1043F00010007D4A1268D1797B4A5268107804AB6C
:10440000012201F0DDFB10B14FF0FF303BE7B9F1C5
:10441000000F02D0C820FBF7E8FF40208DF8100005
:10442000714A12681179704A5268107804AB0122FF
:1044300001F0C6FB10B14FF0FF3024E778208DF873
:104440001000694A12685179674A5268107804ABC3
:10445000012201F0B5FB10B14FF0FF3013E76149C5
:104460008889FBF7C2FF00208DF810005E4A1268B1
:1044700051795D4A5268107804AB012201F0A0FB2B
:1044800010B14FF0FF30FEE6574A1268917A564A53
:104490005268107804AB022201F0F6FB10B14FF025
:1044A000FF30F0E69DF811009DF8101040EA012B56
:1044B0000C209BFBF0F0C6B20020A860686028606A
:1044C000A06060602060824665E0474A1268D17A49
:1044D000454A5268107804AB0C2201F0D5FB10B1AC
:1044E0004FF0FF30CFE69DF811009DF8101040EA24
:1044F000012000B2ADF808009DF813009DF81210DD
:1045000040EA012000B2ADF80A009DF815009DF8C0
:10451000141040EA012000B2ADF80C00BDF90810FB
:10452000206808442060BDF90A1060680844606093
:10453000BDF90C10A0680844A0609DF817009DF814
:10454000161040EA012000B2ADF800009DF81900F5
:104550009DF8181040EA012000B2ADF802009DF865
:104560001B009DF81A1040EA012000B2ADF80400CB
:10457000BDF90010286808442860BDF90210686879
:1045800008446860BDF90410A8680844A8600AF1EE
:10459000010000F0FF0AB24597DB1248D0F800C0D6
:1045A0002868C117090441EA104107046246002344
:1045B000384603F0BBFC32460023CDE9020103F08C
:1045C000B5FC28600748D0F800C06868C117090426
:1045D00041EA1041070462460023384606E0000025
:1045E00054E3853F089B00088804002003F09EFCEC
:1045F00032460023CDE9020103F098FC6860FE48D2
:10460000D0F800C0A868C117090441EA10410704A6
:1046100062460023384603F089FC32460023CDE988
:10462000020103F083FCA860F348D0F804C02068BE
:10463000C117090441EA10410704624600233846C5
:1046400003F074FC32460023CDE9020103F06EFC56
:104650002060E948D0F804C06068C117090441EA45
:104660001041070462460023384603F05FFC3246DF
:104670000023CDE9020103F059FC6060DE48D0F868
:1046800004C0A068C117090441EA1041070462464A
:104690000023384603F04AFC32460023CDE90201EC
:1046A00003F044FCA060A068002804DDA068A0F529
:1046B0008030A06003E0A06800F58030A06000209A
:1046C000E1E538B50446CD4890F82400A04201D178
:1046D000002038BD24B3C94890F8250010B94FF028
:1046E000FF30F6E70020FEF75FFB0020FEF77EFCC0
:1046F000C249C88CFEF7DDFE00200090BF49496822
:1047000008786B460122232101F05AFA0121BB48A7
:1047100080F824100120FEF747FBFEF70BFD13E0A5
:104720000020FEF741FBB548007C0090B349496882
:1047300008786B460122232101F042FA0021AF489C
:1047400080F82410FEF7F6FC0020C2E72DE9F04FB8
:104750008DB083460F4602200C90A84890F82400A4
:1047600020B10020FFF7ADFF012600E0002603A8DE
:10477000FFF7E3F905A8FFF700FA01A8FFF721FA10
:1047800002A8FFF743FA9D4890F80AA004A8FFF793
:1047900097FA002407E0002239465846FFF75AFDF1
:1047A00000B902E0641C022CF5DB00BF022C01D131
:1047B000002528E0002407E0012206A909A8FFF748
:1047C00049FD00B902E0641C022CF5DB00BF022C9D
:1047D00001D1002517E006A93846FFF75DFC00F07F
:1047E000FF0809A95846FFF7A9FC00F0FF090025BA
:1047F000B9F1000F01D145F00105B8F1000F01D169
:1048000045F0020500BFFF207C490872FF217B486C
:104810004172C1724FF6FF71C181FF218172017433
:1048200001210173BDF80C00FEF7D1FE9DF81400C4
:10483000FEF78BFEBDF80400FEF78FFDBDF8080003
:10484000FEF737FE5046FEF76CFB9DF81000FEF7B2
:104850004FFD16B10120FFF734FF28460DB0BDE82B
:10486000F08FF8B504460D46164616B94FF0FF30E6
:10487000F8BD6248807A10B94FF0FF30F8E7201297
:104880008DF80000E0B28DF801009DF80100284489
:104890005A4949684989884202DD4FF0FF30E7E70D
:1048A000564A1268117E554A526810786B460222A9
:1048B00001F086F910B14FF0FF30D9E7EAB24F4B63
:1048C0001B68597D4D4B5B681878334601F078F9C9
:1048D00010B14FF0FF30CBE70020C9E7F8B5044630
:1048E0000D46164616B94FF0FF30F8BD4348807AA2
:1048F00010B94FF0FF30F8E720128DF80000E0B259
:104900008DF801009DF8010028443C494968498917
:10491000884202DD4FF0FF30E7E7384A1268117E27
:10492000364A526810786B46022201F049F910B1FC
:104930004FF0FF30D9E7EAB2304B1B68597D2F4B5F
:104940005B681878334601F09FF910B14FF0FF30E3
:10495000CBE70020C9E72DE9F04385B005460E46B8
:1049600090469946254890F8250020B14FF0FF3039
:1049700005B0BDE8F08316B94FF0FF30F8E700242A
:1049800023E0281B102801DD102000E0281B87B23F
:10499000321939462046FFF764FF10B14FF0FF305F
:1049A000E6E701AA39462046FFF798FF10B14FF01D
:1049B000FF30DDE730193A4601A903F001FB10B1E1
:1049C0006FF00100D4E7E01984B2AC42D9DB4FEAC2
:1049D00028208DF8000008F0FF008DF80100074A3C
:1049E0001268917E054A526810786B46022201F0E7
:1049F000E7F840B104E00000089B000888040020AC
:104A00004FF0FF30B4E701218A4880F82510A0F864
:104A100026900020ACE70146864890F824000870F4
:104A20000020704702464FF0FF30704701464FF0BC
:104A3000FF307047F8B505460F461446002C70D07D
:104A4000B5F5FF5F01DDFF2605E0202D01DA012627
:104A500001E0C5F3471607B90127282C02DD4FF006
:104A6000FF30F8BD7348407D28BB724890F82400A1
:104A700038B10020FFF725FE01216E4880F8201094
:104A800003E000216B4880F820106A481630FFF7D9
:104A900054F868481830FFF770F866481A30FFF786
:104AA00090F864481C30FFF7B1F86248817A81774A
:104AB0001F30FFF705F90020FEF776F90020FEF71A
:104AC0008BFC00208DF800005A4A12689178594AF0
:104AD000526810786B46012201F072F810B14FF065
:104AE000FF30BEE740208DF80000524A1268D17BAB
:104AF000504A526810786B46012201F061F800B10B
:104B000065E08DF800608DF801704A4A1268117AEC
:104B1000484A526810786B46022201F051F808B1F9
:104B200055E047E00520FBF760FC4248407A07214A
:104B300001EBC000C0B28DF800003E4A1268D17986
:104B40003C4A526810786B46012201F039F800B1F6
:104B50003DE020208DF80000012C03D100208DF8CD
:104B600001000EE0052C03DC01208DF8010008E0B7
:104B7000142C03DC02208DF8010002E003208DF8E4
:104B800001009DF80100072101EB8010C0B28DF8F3
:104B90000100284A1268917C264A526810786B46B8
:104BA000022201F00DF800B111E001212148417508
:104BB000002056E71F4A1632002103E0505C00B186
:104BC00005E0491C0C29F9D34FF0FF3049E7FF20DD
:104BD00018490872FF2117484172C1724FF6FF71E0
:104BE000C181FF2181720174012101730146887F17
:104BF000FEF797F90F49C88AFEF7E9FC0D49087ED0
:104C0000FEF7A3FC0B49488BFEF7A7FB0949888BED
:104C1000FEF74FFC0749C87FFEF76AFB054890F88E
:104C2000200010B10120FFF74CFD00210148417523
:104C3000002016E78804002010B5C8234FF48062D6
:104C4000F74940F6F630FFF786FE10BD10B586B086
:104C50000446F4A000680390F3A000680290F3A05B
:104C600000680190F2A00068009004F0030003A91E
:104C7000085C8DF8140003A8C4F3C101405C8DF8F2
:104C8000150003A8C4F38111405C8DF8160004F0F0
:104C9000030002A9085C8DF8100002A8C4F3C1014A
:104CA000405C8DF8110002A8C4F38111405C8DF8BE
:104CB000120005AA032140F22640FFF7D2FD18B1E9
:104CC0004FF0FF3006B010BD04AA032140F22A4085
:104CD000FFF7C7FD10B14FF0FF30F3E701980590E3
:104CE0000098049004F0040058B19DF8140040F0BE
:104CF00001008DF814009DF8100040F001008DF8BF
:104D0000100004F0200058B19DF8150040F001009B
:104D10008DF815009DF8110040F001008DF811008C
:104D200004F4807058B19DF8160040F001008DF831
:104D300016009DF8120040F001008DF8120005AA3F
:104D400003214FF48860FFF78CFD10B14FF0FF3066
:104D5000B8E704AA032140F23140FFF782FD10B109
:104D60004FF0FF30AEE7B34804810020AAE71FB53B
:104D70000446B048007A00F0030054F82000019087
:104D8000AC48007A00F0040010B101984042019054
:104D9000A848007AC0F3C10054F820000290A5484A
:104DA000007A00F0200010B1029840420290A14821
:104DB000007AC0F3811054F8200003909D480089C8
:104DC00000F4807010B10398404203909A49019812
:104DD00080FB0101800F40EA810001909649029812
:104DE00080FB0110820042EA917002909249039880
:104DF00080FB0110820042EA917003900198000E3E
:104E00008DF800000198000C8DF801000198000A4F
:104E10008DF802000198C0B28DF803006A460421A3
:104E20004FF47470FFF71DFD18B14FF0FF3004B060
:104E300010BD0298000E8DF800000298000C8DF84D
:104E400001000298000A8DF802000298C0B28DF8A5
:104E500003006A4604214FF47570FFF702FD10B19C
:104E60004FF0FF30E3E70398000E8DF80000039841
:104E7000000C8DF801000398000A8DF802000398D9
:104E8000C0B28DF803006A4604214FF47670FFF734
:104E9000E8FCCCE770B588B0064601A8FEF7E9FE4D
:104EA000BDF804000021C90341EA5045C40361482C
:104EB000007A00F0030056F8200005905D48007A63
:104EC00000F0040010B10598404205905948007A5E
:104ED000C0F3C10056F8200006905648007A00F052
:104EE000200010B10698404206905248007AC0F364
:104EF000811056F8200007904E48008900F4807019
:104F000010B10798404207900598C117A0FB0423F1
:104F100001FB043100FB0510810041EA927005900D
:104F20000698C117A0FB042301FB043100FB051008
:104F3000810041EA927006900798C117A0FB0423F4
:104F400001FB043100FB0510810041EA92700790DB
:104F50000598000E8DF808000598000C8DF80900E2
:104F60000598000A8DF80A000598C0B28DF80B006C
:104F70000698000E8DF80C000698000C8DF80D00B8
:104F80000698000A8DF80E000698C0B28DF80F0042
:104F90000798000E8DF810000798000C8DF811008E
:104FA0000798000A8DF812000798C0B28DF8130018
:104FB00002AA0C214FF42570FFF753FC08B070BD16
:104FC00030B585B004461DA207CA02AB07C3C82C82
:104FD00003DD4FF0FF3005B030BDC82090FBF4F08A
:104FE000401E85B2280A8DF80000E8B28DF8010055
:104FF0006A46022140F21620FFF733FC10B14FF051
:10500000FF30E8E702AA0C2140F6C120FFF729FC97
:1050100010B14FF0FF30DEE7064884810020DAE768
:10502000309B00084CCD6C000CC92C003656760025
:1050300026466600A405002009E3CA02FEF2ABC4BE
:10504000AAF1DFDFBBAFDFDF0146FC4880890880C3
:10505000002070472DE9FC4706460F4606F0070082
:1050600010B1B7F5C86F03DD4FF0FF30BDE8FC8726
:10507000384603F00BFA8146F14903F038F88046D0
:105080006846FEF77AFD9DF80000022806D0042845
:1050900016D0082826D0102848D135E04FF08D4191
:1050A000404602F0F2FF814603F02CFA84B2E54953
:1050B000404602F0EAFF814603F024FA85B238E068
:1050C0004FF08C41404602F0E0FF814603F01AFAAF
:1050D00084B2DD49404602F0D8FF814603F012FA5F
:1050E00085B226E04FF08B41404602F0CEFF81466C
:1050F00003F008FA84B2D549404602F0C6FF814663
:1051000003F000FA85B214E04FF08A41404602F005
:10511000BCFF814603F0F6F984B2CD49404602F067
:10512000B4FF814603F0EEF985B202E04FF0FF30A4
:105130009CE700BF20128DF80400E0B28DF8050056
:1051400028128DF80600E8B28DF8070006F001007D
:10515000A0B101AA02214FF4EA70FFF782FB10B15F
:105160004FF0FF3082E70DF1060202214FF49270FA
:10517000FFF777FB10B14FF0FF3077E706F0020042
:10518000A0B101AA02214FF4EC70FFF76AFB10B145
:105190004FF0FF306AE70DF1060202214FF49470E0
:1051A000FFF75FFB10B14FF0FF305FE706F0040040
:1051B000A0B101AA02214FF4EE70FFF752FB10B12B
:1051C0004FF0FF3052E70DF1060202214FF49670C6
:1051D000FFF747FB10B14FF0FF3047E7002045E7EE
:1051E00038B504460020009004F0010020B19DF87D
:1051F000000040F03000009004F0020020B19DF863
:10520000000040F00C00009004F0040020B19DF874
:10521000000040F0030000906A4601214FF4A470A2
:10522000FFF71FFB38BD38B50446012C01DA012415
:1052300002E0042C00DD0424601EC0B200906A4627
:10524000012140F24F10FFF70CFB38BD38B5044682
:10525000052094FBF0F085B228128DF80000E8B22A
:105260008DF801006A4602214FF4EF70FFF7F9FA5A
:1052700038BD38B50446052094FBF0F085B22812FD
:105280008DF80000E8B28DF801006A4602214FF463
:10529000ED70FFF7E6FA38BDF8B505460E464FF457
:1052A0007A7095FBF0F000FB06F4200E8DF80000FC
:1052B000200C8DF80100200A8DF80200E0B28DF874
:1052C00003006A4604214FF4AE70FFF7CAFAF8BD36
:1052D00038B50446052094FBF0F084B220128DF816
:1052E0000000E0B28DF801006A4602214FF4AD7073
:1052F000FFF7B7FA38BD38B50446052094FBF0F047
:1053000084B220128DF80000E0B28DF801006A46E8
:1053100002214FF4AC70FFF7A4FA38BD38B504464B
:1053200014B94FF0FF3038BD6A4604214FF458706D
:10533000FFF7D4FA10B14FF0FF30F4E79DF800000A
:1053400000069DF8011040EA01409DF8021040EA75
:1053500001209DF80310084320600020E3E738B5E2
:105360000446200E8DF80000200C8DF80100200A64
:105370008DF80200E0B28DF803006A4604214FF474
:105380005870FFF76EFA38BD38B5044614B94FF0BF
:10539000FF3038BD6A4604214FF47170FFF79EFA62
:1053A00010B14FF0FF30F4E79DF8000000069DF8C3
:1053B000011040EA01409DF8021040EA01209DF8EA
:1053C0000310084300EB8000800020600020E0E72D
:1053D00038B504461420B4FBF0F4200E8DF800001C
:1053E000200C8DF80100200A8DF80200E0B28DF843
:1053F00003006A4604214FF47170FFF732FA38BD9A
:1054000038B5044664B120208DF8000028208DF8BE
:10541000010030208DF8020038208DF8030004E0F0
:10542000A3220421684602F0B2FD6A46042140F638
:105430009E20FFF716FAFDF77DFE38BDA40500207B
:1054400000004843000040460000C04500004045C1
:105450000000C04438B5044664B1C0208DF8000097
:10546000C2208DF80100C4208DF80200C6208DF8FE
:10547000030004E08B220421684602F088FD6A469E
:10548000042140F69820FFF7ECF9FDF753FE38BDF4
:105490003EB504466CB1FDA1D1E900208968CDE993
:1054A000002002916A4609214FF49760FFF7D9F96D
:1054B0003EBDF9A2D2E900109268CDE90102009147
:1054C0006A4609214FF49760FFF7CBF9F0E73EB544
:1054D000044602208DF80000CA208DF80100E32068
:1054E0008DF8020009208DF803006A460421682027
:1054F000FFF7B7F9A3208DF8000004F0400048B191
:10550000C0208DF80100C8208DF80200C2208DF85F
:10551000030006E0A3208DF801008DF802008DF84D
:10552000030004F4C07048B1C4208DF80400CC20FE
:105530008DF80500C6208DF8060006E0A3208DF842
:1055400004008DF805008DF80600A3208DF80700F3
:105550008DF808008DF809006A460A2140F6A72058
:10556000FFF77FF904F0030018B120208DF8000048
:1055700002E0D8208DF800006A46012140F6B620EE
:10558000FFF76FF904F0200018B10120FFF780FF4A
:1055900002E00020FFF77CFF04F4C07008B304F4BD
:1055A000807060B1B2208DF800008B208DF8010072
:1055B000B6208DF802009B208DF803000BE0B02090
:1055C0008DF8000080208DF80100B4208DF80200D5
:1055D00090208DF803006A46042140F6A220FFF7D0
:1055E00040F904F0010020B3F8208DF800006A466D
:1055F00001214FF40B60FFF734F9FA210720FFF780
:1056000029FD0720FFF7ECFD0120FFF70CFE6420C9
:10561000FFF71CFE4FF4FA70FFF72BFEC821A148DC
:10562000FFF73AFE2820FFF753FE0A20FFF763FE3C
:1056300008E0D8208DF800006A4601214FF40B6085
:10564000FFF70FF904F0020018B1D9208DF800001F
:1056500002E0D8208DF800006A46012140F23D703A
:10566000FFF7FFF804F0040018B10120FFF7F2FE85
:1056700002E00020FFF7EEFE04F0100018B1012058
:10568000FFF7BEFE02E00020FFF7BAFE44F008007C
:1056900085494881FDF74EFD00208349887304F059
:1056A000400018B10846807B801D887304F4C070E8
:1056B00020B17D48807B801D7B49887304F01400F5
:1056C00020B17948807B10307749887304F003005B
:1056D00020B17548807B001D7349887300203EBD52
:1056E0000146714840890880002070472DE9F0414B
:1056F0000446E07800F0C006E07800F03F056078EE
:1057000000F0010098B1EF102846E91705EB517140
:10571000C910A5EBC101491C01F0FF0862480068EF
:1057200020B16148414602683846904700BF607822
:1057300000F0080030B15C48406818B1B0115A4A16
:10574000516888470020BDE8F08110B586B0044656
:1057500056A207CA03AB07C357A207CA8DE80700C2
:10576000012C09D0022C0ED103AA0B2140F6822075
:10577000FFF777F806B010BD6A460B2140F682208D
:10578000FFF76FF8F6E74FF0FF30F3E72DE9F04F42
:105790008DB00746884615469946DDE9166B00240C
:1057A000002030804049887B5A4605A9FEF7BDFBA2
:1057B00018B1601E0DB0BDE8F08F3B48807A00F054
:1057C0001400002861D09DF8140000069DF8151003
:1057D00040EA01409DF8161040EA01209DF817109C
:1057E000084328609DF8180000069DF8191040EA4B
:1057F00001409DF81A1040EA01209DF81B10084353
:1058000068609DF81C0000069DF81D1040EA0140EC
:105810009DF81E1040EA01209DF81F100843A86063
:105820009DF8200000069DF8211040EA01409DF8F7
:10583000221040EA01209DF823100843E86004F19B
:105840001000C4B228680014019068680014029027
:10585000A86800140390E86800140490019840437D
:10586000029901FB0100039901FB0100049901FB6E
:10587000010ABAF1706F02DBBAF1885F22DDFDF731
:1058800059FC00203080401E94E721E0B8AAB38D77
:10589000B4980D355D000000B8AAAAAAB088C3C5A7
:1058A000C700000009E3CA02A4050020D8B1B9F37B
:1058B0008BA391B609B4D900DAB1B9F38BA391B631
:1058C000DAB4DA00B6F9000040F48070308000BF2E
:1058D0003448807A00F0400020B305A9601C085CC1
:1058E000095D40EA012000B2A8F8000005A9E01C0B
:1058F000095C05AAA01C105C41EA002000B2A8F8CF
:10590000020005A9601D095C201D105C41EA002011
:1059100000B2A8F80400A01DC4B2B6F9000040F01F
:10592000080030801F48408900F4C07008B305A902
:10593000601C085C095D40EA012000B2388005A9BE
:10594000E01C095C05AAA01C105C41EA002000B222
:10595000788005A9601D095C201D105C41EA0020CB
:1059600000B2B880A01DC4B2B6F9000040F07000CB
:1059700030800C48807A00F0030018B105A908199E
:10598000FFF7B4FE4846FDF734FF002012E701465A
:105990000448016000207047014602484160002031
:1059A00070470000A405002008B50121082001F07F
:1059B00047F94FF44070ADF8000010208DF8030057
:1059C00003208DF802006946F74800F07DFE08BD0F
:1059D00010B5F548001D006820F0F000F249091DDF
:1059E00008600846006840F0300008600120EF4978
:1059F0000860EF48D0F8240108B9002010BD01204C
:105A0000EA49091F0860FAF7CCFC0020E849C1F810
:105A1000A401E6488038006808B10020EEE70120C4
:105A2000FAF7BFFC0020E149091F08600120E5E703
:105A300010B5DD48001D006820F0F000DA49091DAE
:105A400008600846006840F0300008600020D74930
:105A5000091F0860D649C1F8A4010120FAF7A1FC8A
:105A60000120D249091F0860D149C1F8A401FAF701
:105A700098FC10BD10B50024CB48001D006820F034
:105A8000F000C949091D08600846006840F0800020
:105A900008600120C5490860FAF783FC0120C44969
:105AA000C1F8A001FAF77DFC0AE0601CC4B2322CF8
:105AB00003DDFFF7BDFF002010BD0120FAF771FCE8
:105AC000BA48803800680028EFD1B849091F08603B
:105AD0000120F1E710B50020B449091F0860B24861
:105AE000001D006820F0F000AF49091D086008465D
:105AF000006840F0300008600020AD49C1F8A40102
:105B00000120FAF74EFC0120A849091F0860FAF7A6
:105B100048FC0020A649C1F8A00110BD10B5002026
:105B2000A249091F0860A048001D006820F0F0008D
:105B30009D49091D08600846006840F03000086073
:105B400001209B49C1F8A401FAF72BFC01209749D9
:105B5000091F0860FAF725FC00209549C1F8A0014B
:105B600010BD70B504469048001D006820F0F0009C
:105B70008D49091D08600846006840F03000086043
:105B800000208A49091F0860002516E0E0098749BE
:105B900008606006040E0120FAF703FC0120844926
:105BA000C1F8A001FAF7FDFB00208049091F086039
:105BB0000120FAF7F6FB681CC5B2082DE6DB70BDC4
:105BC0002DE9F04105460E4617469846FFF700FFBF
:105BD00010B90120BDE8F0816906080EFFF7C1FF8A
:105BE000FFF748FF18B9FFF723FF0120F2E730461F
:105BF000FFF7B7FFFFF73EFF00240BE018F80400A3
:105C0000FFF7AFFFFFF736FF18B9FFF711FF0020CE
:105C1000E0E7641CBC42F1DBFFF70AFF0020D9E794
:105C200070B5054600246048001D006820F0F000B3
:105C30005D49091D08600846006840F08000086062
:105C4000002617E000205949091F08600220FAF7D2
:105C5000A8FB01205649C1F8A0016006040E534874
:105C60008038006808B1601CC4B20220FAF799FBC2
:105C7000701CC6B2082EE5DB15B1FFF72BFF01E063
:105C8000FFF74CFF204670BD2DE9F04106460F4658
:105C900014461D46FFF79CFE10B90120BDE8F081B7
:105CA0007106080EFFF75DFFFFF7E4FE18B9FFF776
:105CB000BFFE0120F2E73846FFF753FFFFF7DAFE99
:105CC000FFF786FE012101EB4601C8B2FFF749FF4D
:105CD000FFF7D0FE0DE0012C04D10020FFF7A0FF5C
:105CE000287003E00120FFF79BFF28706D1C601EE9
:105CF000C4B2002CEFD1FFF79BFE0020CEE770B5B9
:105D000005460E460024FFF763FE2846FFF729FFED
:105D1000641CFFF7AFFE3046FFF723FF641CFFF75C
:105D2000A9FEFFF755FE691CC8B2FFF71AFF641CF5
:105D3000FFF7A0FE0020FFF773FF0446FFF778FE91
:105D4000204670BD2DE9F0410746884615461E469F
:105D50000024FFF73DFE3846FFF703FFFFF78AFEFA
:105D60004046FFF7FEFEFFF785FEFFF731FE791C88
:105D7000C8B2FFF7F6FEFFF77DFE00BF0DE0681E1C
:105D8000A04204D00120FFF74BFF305503E0002074
:105D9000FFF746FF3055601CC4B2AC42EFDBFFF7A3
:105DA00047FE2046BDE8F081000C0140A48121425D
:105DB000008021422DE9F04180460D4616461F46DF
:105DC0000024FFF705FE4046FFF7CBFEFFF752FE2B
:105DD0002846FFF7C6FEFFF74DFE00BF06E0385D20
:105DE000FFF7BFFEFFF746FE601CC4B2B442F6DB0D
:105DF000FFF71EFE0120BDE8F08170B505460E4696
:105E0000144631462846FFF77AFF2070012070BD06
:105E100037B504460D4602AB012229462046FFF75E
:105E2000C9FF3EBD2DE9F8430746884614461D4686
:105E3000089E6A4641463846FFF7DFFF28B3601CDC
:105E4000FF2101FA00F0C4F108012944491EFF2294
:105E50000A41104300F0FF09C5F1080006FA00F0FE
:105E6000C6B2C4F1070006419DF8000000EA09002F
:105E700000909DF80000304300909DF800204146BE
:105E80003846FFF7C5FFBDE8F8830020FBE7F8B50B
:105E900006460F4614461D466A4639463046FFF709
:105EA000ACFF2DB10120A0409DF80010084305E093
:105EB0000120A0409DF8001021EA0000C0B200902F
:105EC0009DF8002039463046FFF7A2FFF8BD0000DC
:105ED00008B50121042000F0B3FE4FF40640ADF8F0
:105EE000000048208DF8030069462A4800F0ECFBCA
:105EF00008BD10B5044614B1012027490870264892
:105F0000007878B34FF40071224800F070FC58B16B
:105F10004FF480611F4800F06AFC28B14FF4004143
:105F20001C4800F064FCE8B90A20FAF75EFA002089
:105F3000194908704FF40071164800F058FC08B970
:105F4000012010BD4FF48061124800F050FC08B9E8
:105F50000220F6E74FF400410E4800F048FCB8B9C3
:105F60000320EEE7FFE74FF400710A4800F03FFC22
:105F700001280DD18102074800F039FC012807D122
:105F8000C103044800F033FC012801D10249087024
:105F90000020D6E700080140B404002006488047EE
:105FA00006480047FEE7FEE7FEE7FEE7FEE7FEE7FE
:105FB000FEE7FEE7FEE7FEE76F020008ED000008DF
:105FC00031490143314A1160704770B50021002307
:105FD0000F22C47804B32D4C246804F4E064C4F5A3
:105FE000E064210AC1F10403CA40447804FA03F1D1
:105FF0008478144021430901254C0678A155047882
:1060000004F01F050124AC4005786D11AD0005F1C9
:10601000E025C5F8004109E0047804F01F050124DB
:10602000AC401C4D0678761145F8264070BD1A4AE2
:106030000A400243154B1B1F1A60704739B1134ABF
:10604000121D12680243114B1B1D1A6006E00F4A15
:10605000121D126882430D4B1B1D1A6070470428E5
:1060600008D14FF0E021096941F004014FF0E0222E
:10607000116107E04FF0E021096921F004014FF0C0
:10608000E0221161704700000000FA050CED00E00D
:1060900000E400E080E100E080FFFF1F10B504464F
:1060A000FA48844208D10121401500F0E3FD0021A7
:1060B000601500F0DFFD17E0F548844208D10121AA
:1060C000001500F0D7FD0021201500F0D3FD0BE0F6
:1060D000F048844208D10121C80300F0CBFD002123
:1060E0004FF4004000F0C6FD10BD30B50246002060
:1060F00000235068E84C20400D790C6844EA0524E0
:10610000204350609068E54C2040D1E902542C4374
:106110004D7944EA450420439060D06A20F4700031
:106120000C7C641EE4B2234340EA0350D06230BDCD
:1061300000210160017141718160C1600121017420
:10614000704721B1826842F00102826003E08268F8
:1061500022F001028260704721B1826842F48072AD
:10616000826003E0826822F480728260704710B51A
:106170000023CBB21AB144681C43446002E0446877
:106180009C43446010BD816841F008018160704704
:10619000014600208A6802F008020AB1012000E0EE
:1061A00000207047816841F004018160704701461A
:1061B00000208A6802F004020AB1012000E00020F9
:1061C000704721B1826842F4A002826003E08268D5
:1061D00022F4A00282607047014600208A6802F41F
:1061E00080020AB1012000E00020704710B50A4685
:1061F00000210023416821F46041531E41EA4331EC
:10620000416010BD21B1426842F40062426003E087
:10621000426822F4006242607047F0B504460D46C1
:1062200000200021092D11DDE068A5F10A0606EB2A
:106230004607072606FA07F18843A5F10A0606EB8A
:10624000460603FA06F10843E0600CE0206905EB1E
:106250004507072606FA07F1884305EB450603FACA
:1062600006F108432061072A0FDA606B561E06EB21
:1062700086071F2606FA07F18843561E06EB860698
:1062800005FA06F10843606322E00D2A0FDA206B5D
:10629000D61F06EB86071F2606FA07F18843D61F8E
:1062A00006EB860605FA06F10843206310E0E06A73
:1062B000A2F10D0606EB86071F2606FA07F18843B2
:1062C000A2F10D0606EB860605FA06F10843E06228
:1062D000F0BD21B1826842F48012826003E08268DE
:1062E00022F48012826070470146C86C80B2704709
:1062F00066484C300068704721B1426842F48062C1
:10630000426003E0426822F480624260704721B13B
:10631000426842F48052426003E0426822F48052B4
:10632000426070470A460021816821F4E041114330
:106330008160704721B1826842F40042826003E0CC
:10634000826822F400428260704721B1826842F480
:106350000212826003E0826822F4021282607047B7
:10636000014600208A6802F400120AB1012000E010
:1063700000207047F0B50446154600200022002694
:10638000092911DDE068A1F10A0707EB470C07278F
:1063900007FA0CF29043A1F10A0707EB470703FA4B
:1063A00007F21043E0600CE0206901EB410C072785
:1063B00007FA0CF2904301EB410703FA07F210438E
:1063C0002061A06BC0F30156EF1C06F1010CA7EB96
:1063D0000C0707EB870C1F2707FA0CF29043EF1C02
:1063E00006F1010CA7EB0C0707EB870701FA07F290
:1063F0001043A063F0BD10B50A4600210023816B55
:1064000021F44011531E41EA0351816310BD08B5C8
:10641000002300930090009B0B440093009B1A60A4
:1064200008BD08B5024600200090009201F1280046
:10643000009B184400900098006880B208BD0A468E
:1064400000214168164B1940114341607047416279
:10645000826270470A460021416821F01F01114302
:106460004160704740B109490831096841F40001B1
:10647000064A0832116007E004490831096821F42E
:106480000001024A083211607047000000240140F8
:1064900000280140003C0140FFFEF0FFFDF7F1FF46
:1064A000FFFD3FFF0246002013680B400BB10120A7
:1064B00000E000207047CA430260704770B5024692
:1064C0000020002300240B125568CEB205EA060412
:1064D00015681D4015B10CB1012000E0002070BD11
:1064E00000220A12D3430360704700000020444991
:1064F0000860091D0860091D0860091D0860414801
:106500003F4914310860704700213D498279002AD3
:106510003AD00A46126803689A430B461A600A1D6D
:10652000126803689A430B1D1A60027911440A68C5
:1065300003681A430A60324A0832126803689A43B1
:106540002F4B08331A601A1D126803689A432C4BAC
:106550000C331A604279102A0ED11A1F1268036890
:106560001A43274B08331A601A1D126803681A432E
:10657000234B0C331A600DE02149427911440A681B
:1065800003681A430A6005E0027911440A68036847
:106590009A430A6070470021016001710C2141712A
:1065A0000021817170471649103109680143144A6E
:1065B00010321160704701460020114A14321268EF
:1065C0000A400AB1012000E0002070470C49143154
:1065D00008607047014600200022094B1B6803EA4F
:1065E0000102074B14331B680B4013B10AB10120A1
:1065F00000E0002070470249143108607047000035
:1066000000040140FFFF0F0010B50446CC4884424F
:1066100008D10121042000F02DFB0021042000F00E
:1066200029FB46E0C748844208D10121082000F038
:1066300021FB0021082000F01DFB3AE0C248844203
:1066400008D10121102000F015FB0021102000F0DE
:1066500011FB2EE0BD48844208D10121202000F02A
:1066600009FB0021202000F005FB22E0B84884420D
:1066700008D10121402000F0FDFA0021402000F067
:10668000F9FA16E0B348844208D10121802000F0D5
:10669000F1FA0021802000F0EDFA0AE0AE488442D1
:1066A00007D10121801500F0E5FA0021A01500F0C6
:1066B000E1FA10BD10B50121084600F0DBFA002117
:1066C000012000F0D7FA10BD2DE9F0410246002567
:1066D0000026002000230024002791F803C00CF0BE
:1066E0000F0591F803C00CF0100CBCF1000F03D0A3
:1066F00091F802C04CEA050591F800C0BCF1000F0A
:1067000031D0146800202BE04FF0010C0CFA00F39C
:10671000B1F800C00CEA03069E4220D183004FF07E
:106720000F0C0CFA03F7BC4305FA03FC4CEA040413
:1067300091F803C0BCF1280F06D14FF0010C0CFA00
:1067400000FCC2F814C00AE091F803C0BCF1480F85
:1067500005D14FF0010C0CFA00FCC2F810C0401C2F
:106760000828D1D31460B1F800C0BCF1FF0F34DDAC
:10677000546800202EE000F1080C4FF0010808FAE0
:106780000CF3B1F800C00CEA03069E4221D183004D
:106790004FF00F0C0CFA03F7BC4305FA03FC4CEA6C
:1067A000040491F803C0BCF1280F05D100F1080CD6
:1067B00008FA0CF8C2F8148091F803C0BCF1480F35
:1067C00007D100F1080C4FF0010808FA0CF8C2F8E4
:1067D0001080401C0828CED35460BDE8F0814FF6ED
:1067E000FF710180022181700421C170704702464F
:1067F000002093680B400BB1012000E0002070479F
:106800000146886880B2704702460020D3680B407A
:106810000BB1012000E0002070470146C86880B23B
:10682000704701617047416170470AB1016100E042
:1068300041617047C16070474FF480320A43826102
:106840008161826182698269704702460020434B00
:1068500018684FF68073184040EA021008433F4B17
:10686000186070473E49C8617047F0B50A4600237A
:1068700000240021002500F00046B6F1004F02D1AF
:10688000364EF16901E0354E7168C0F3034583B2BD
:1068900000F44016B6F5401F08D121F070612F4E6C
:1068A000766826F070662D4F7E6012E000F4801648
:1068B000B6F5801F06D1032606FA05F4A14341F080
:1068C000706106E0460D360103FA06F6B14341F069
:1068D000706122B1460D360103FA06F6314300F02D
:1068E0000046B6F1004F02D11C4EF16101E01B4E93
:1068F0007160F0BD30B500228B071C0F0F2303FA27
:1069000004F2164B08338C1053F824309343134C85
:1069100008348D1044F8253023468C1053F8243069
:106920008C07240F00FA04F423430C4C08348D1018
:1069300044F8253030BD0A49DC310860704700005A
:1069400000080140000C014000100140001401400B
:1069500000180140001C01400020014000000140DF
:1069600000002042DF48006840F00100DD49086077
:1069700008464068DC490840DA4948600846006833
:10698000DA490840D74908600846006820F48020AA
:1069900008600846406820F4FE0048604FF41F007D
:1069A00088607047CF49096821F48031CD4A116071
:1069B0001146096821F480211160B0F5803F03D0B1
:1069C000B0F5802F0ED106E0C649096841F4803148
:1069D000C44A116007E0C349096841F4A021C14AD3
:1069E000116000E000BF00BF704710B501460022F3
:1069F000002300204A11012A02D1BA4C236806E084
:106A0000022A02D1B74C236A01E0B64C636A01F056
:106A10001F02012494401C400CB1012000E0002022
:106A200010BD38B5002000900024002500BF3120A3
:106A3000FFF7DBFF05460098401C00900098B0F57A
:106A4000A06F01D0002DF2D03120FFF7CEFF08B1AA
:106A5000012400E00024204638BD01460020A14A60
:106A6000106820F0F80040EAC10010607047A049AB
:106A700008607047024600209A4B586820F47C104A
:106A800042EA01031843974B5860704798490866DB
:106A9000704701460020934A506820F003000843E5
:106AA000506070478F48406800F00C007047014606
:106AB00000208C4A506820F0F00008435060704776
:106AC00001460020874A506820F4E0600843506087
:106AD000704701460020834A506820F4605040EA25
:106AE000C1005060704729B17E4A527A02437D4B03
:106AF0005A7204E07B4A527A82437A4B5A72704748
:106B00007B49D8310860704701460020754A5068BB
:106B100020F440400843506070470021714A203201
:106B20001170704A82F82010012802D004280AD17E
:106B300004E001216B4A2032117005E00521694A09
:106B40002032117000E000BF00BF70476949086043
:106B500070476449096A0143624A11627047654996
:106B600044390860704730B500210022002400231A
:106B70005C4D6D6805F00C0121B1042905D0082990
:106B800023D105E05C4D056022E05B4D05601FE010
:106B9000544D6D6805F47012524D6D6805F48034E3
:106BA000022505EB92421CB9544D554305600BE09C
:106BB0004C4D6D6805F400351DB1504D55430560D1
:106BC00002E04D4D5543056002E04B4D056000BFAE
:106BD00000BF444D6D6805F0F0010909484D6B5C3C
:106BE0000568DD4045603F4D6D6805F4E061090AC8
:106BF000434D6B5C4568DD4085603A4D6D6805F43A
:106C00006051C90A3E4D6B5C4568DD40C560354D3D
:106C10006D6805F44041890B3A4D6B5CC568B5FB66
:106C2000F3F5056130BD29B12E4A526902432D4B5F
:106C30005A6104E02B4A526982432A4B5A617047D9
:106C400029B1284A92690243264B9A6104E0254AF9
:106C500092698243234B9A61704729B1214AD269D4
:106C60000243204BDA6104E01E4AD26982431D4B85
:106C7000DA61704729B11B4AD2680243194BDA60C6
:106C800004E0184AD2688243164BDA60704729B193
:106C9000144A12690243134B1A6104E0114A126943
:106CA0008243104B1A61704712494039086070479F
:106CB0000F49C86470470B49C87170470948406A5A
:106CC00040F0807007494862704701460020054A3D
:106CD00092680A400AB1012000E000207047014993
:106CE00088727047001002400000FFF8FFFFF6FEB8
:106CF000000042428004424200127A0000093D0036
:106D0000B5040020C504002010B50446FE488442A6
:106D100008D10121C014FFF7ADFF0021E014FFF7F7
:106D2000A9FFC4E0B4F1804F08D101210846FFF764
:106D3000AEFF00210120FFF7AAFFB8E0F34884422C
:106D400008D101210220FFF7A2FF00210220FFF756
:106D50009EFFACE0EE48844208D101210420FFF7F9
:106D600096FF00210420FFF792FFA0E0E94884424B
:106D700008D101210820FFF78AFF00210820FFF732
:106D800086FF94E0E448844208D101211020FFF7F7
:106D90007EFF00211020FFF77AFF88E0DF48844261
:106DA00008D101212020FFF772FF00212020FFF7EA
:106DB0006EFF7CE0DA48844208D101214014FFF7DD
:106DC00059FF00216014FFF755FF70E0D548844259
:106DD00009D10121C804FFF74DFF00214FF4002025
:106DE000FFF748FF63E0D048844209D1012108053C
:106DF000FFF740FF00214FF48010FFF73BFF56E004
:106E0000CA48844209D101214805FFF733FF002118
:106E10004FF40010FFF72EFF49E0C548844208D127
:106E200001214020FFF733FF00214020FFF72FFF13
:106E30003DE0C048844208D101218020FFF727FFB0
:106E400000218020FFF723FF31E0BB48844208D1B6
:106E500001218015FFF71BFF0021A015FFF717FF89
:106E600025E0B648844209D101210804FFF702FF5A
:106E700000214FF48030FFF7FDFE18E0B048844257
:106E800009D101214804FFF7F5FE00214FF400303D
:106E9000FFF7F0FE0BE0AB48844208D101218804E3
:106EA000FFF7E8FE00214FF48020FFF7E3FE10BD5E
:106EB00000220288944B98420ED0994B98420BD0F6
:106EC000B0F1804F08D0914B984205D0904B98423A
:106ED00002D0904B984204D14FF68F731A404B88E2
:106EE0001A438D4B984207D08C4B984204D04FF6F2
:106EF000FF431A40CB881A4302808B8883850B8816
:106F00000385814B98420BD0854B984208D08B4B20
:106F1000984205D08A4B984202D08A4B984201D1C0
:106F20000B7A038601238382704770B50024002208
:106F30000023058C4FF6FE7635400584028C83884D
:106F4000048B4FF68F752C40B51E2C400D882C43BA
:106F5000751E2A400D892A434D882A436A4DA8424E
:106F60000BD06F4DA84208D0744DA84205D0744D87
:106F7000A84202D0734DA84213D14FF6F7752A40AC
:106F80004D892A434FF6FB752A408D882A434FF6D8
:106F9000FF652B404FF6FF552B408D892B43CD8944
:106FA0002B4383800483CD888586028470BD70B5B1
:106FB000002400220023058C4FF6EF76354005842F
:106FC000028C8388048B48F6FF752C404FF6FF45F2
:106FD0002C400D884FF6FF7606EA05252C434FF628
:106FE000DF752A400D8906EA05152A434D8806EA11
:106FF00005152A43444DA84202D0494DA8421DD14F
:107000004FF67F752A404D894FF6FF7606EA051543
:107010002A434FF6BF752A408D8806EA05152A4394
:107020004FF6FF352B404FF2FF752B408D8906EA56
:1070300085052B43CD8906EA85052B438380048390
:10704000CD880587028470BD70B50024002200231E
:10705000058C4FF6FF6635400584028C8388848B4F
:107060004FF68F752C404FF6FC752C400D882C4345
:107070004FF6FF552A400D894FF6FF7606EA0525A3
:107080002A434D8806EA05252A431F4DA84202D00F
:10709000234DA8421DD14FF2FF752A404D894FF66E
:1070A000FF7606EA05252A434FF6FF352A408D88EC
:1070B00006EA05252A434EF6FF752B404DF6FF756F
:1070C0002B408D8906EA05152B43CD8906EA051567
:1070D0002B4383808483CD888587028470BD70B5FF
:1070E000002200230024058C4EF6FF7635400584EF
:1070F000038C8488828B48F6FF752A404FF6FF4543
:107100002A400D8820E00000002C014000040040CF
:1071100000080040000C0040001000400014004037
:1071200000340140004C0140005001400054014037
:1071300000180040001C00400020004000400140BA
:1071400000440140004801404FF6FF7606EA05255D
:107150002A434DF6FF752B400D8906EA05352B4372
:107160004D8806EA05352B43FA4DA84202D0FA4D68
:10717000A84208D14BF6FF752C408D894FF6FF765B
:1071800006EA85152C4384808283CD88A0F8405080
:10719000038470BD828B4FF2FF331A408283828B4F
:1071A0004FF6FF7303EA01231A4382837047F0B559
:1071B0000C461546002200210026078C4EF6FF7C67
:1071C00007EA0C070784828B018C4FF6FF7707EAEA
:1071D000043640F6FF473A404FF6FF7707EA0527A7
:1071E0003A434FF6FF7707EA03373A43D94FB8429D
:1071F0000ED0D94FB8420BD0B0F1804F08D0D74F46
:10720000B84205D0D64FB84202D0D64FB84206D1C8
:107210004DF6FF77394046F48057394305E047F68D
:10722000FF57394044F48057394382830184F0BDCD
:10723000828B4FF6F3731A408283828B0A438283D8
:107240007047F0B50C461546002200210026078C39
:107250004FF6FF6C07EA0C070784828B018C4FF610
:10726000FF7707EA04264FF60C773A404FF6FF7790
:1072700007EA03172F433A43B64FB8420ED0B64F32
:10728000B8420BD0B0F1804F08D0B44FB84205D00F
:10729000B34FB84202D0B34FB84206D14FF6FF57B2
:1072A000394046F48077394305E04FF2FF573940C3
:1072B00044F48077394382830184F0BD028B4FF21E
:1072C000FF331A400283028B4FF6FF7303EA012358
:1072D0001A4302837047F0B50C4615460022002180
:1072E0000026078C4FF6EF7C07EA0C070784028B19
:1072F000018C4FF6FF7707EA041640F6FF473A4045
:107300004FF6FF7707EA03373A434FF6FF7707EA6E
:1073100005273A438F4FB8420ED08F4FB8420BD05B
:10732000B0F1804F08D08D4FB84205D08C4FB84295
:1073300002D08C4FB84206D14FF6DF77394046F085
:107340001007394305E04FF65F77394044F01007E6
:10735000394302830184F0BD028B4FF6F3731A4068
:107360000283028B0A4302837047F0B50C46154630
:1073700000220021068C4FF6FE773E400684028BE9
:10738000018C4FF60C7632407E1C06EA03162E4323
:107390003243704EB0420ED06F4EB0420BD0B0F1BF
:1073A000804F08D06D4EB04205D06D4EB04202D035
:1073B0006C4EB04206D14FF6FD76314044F00106E6
:1073C000314305E04FF6F576314044F00106314394
:1073D00002830184F0BD70B505460C465D488542C8
:1073E0000ED05D4885420BD0B5F1804F08D05B4888
:1073F000854205D05A48854202D05A48854200D17C
:1074000000E000BF208850B92389A28861882846FF
:10741000FFF7ABFFE1882846FFF79EFF25E02088B5
:1074200004280AD12389A28861882846FFF753FFE0
:10743000E1882846FFF742FF17E0208808280AD194
:107440002389A28861882846FFF7FBFEE188284649
:10745000FFF7EEFE09E02389A28861882846FFF73E
:10746000A6FEE1882846FFF795FE70BD2DE9F041A4
:1074700005460C4600260127608808B9022600E070
:107480000026A088012801D1022700E001272088DA
:10749000A0B92389A28861882846FFF766FFE188A2
:1074A0002846FFF759FF23893A4631462846FFF719
:1074B00012FFE1882846FFF701FF13E02389A28825
:1074C00061882846FFF707FFE1882846FFF7F6FEA8
:1074D00023893A4631462846FFF747FFE188284688
:1074E000FFF73AFFBDE8F0810A884B881A438B8882
:1074F0001A43CB881A430B891A434B891A438B8949
:107500001A43A0F8442070474FF6FF718180002194
:107510000180C1804180017270470021018041805B
:107520008180C180018141818181C18170470021B9
:1075300001804180012181800021C180018170474B
:107540000021018041808180C18001814181818150
:1075500070470000002C014000340140000400404E
:1075600000080040000C004021B1028842F00102F6
:10757000028004E002884FF6FE731A4002807047D2
:1075800031B1B0F8442042F40042A0F8442005E0B4
:10759000B0F84420C2F30E02A0F8442070471AB19C
:1075A00083890B43838102E083898B438381704706
:1075B0008182704741EA0203A0F8483070471AB14F
:1075C00083890B43838102E083898B4383817047E6
:1075D00001894FF6F8721140018170470A46002177
:1075E00001894FF68F73194011430181704730B5FF
:1075F00004460D4629462046FFF7F0FF208940F05B
:107600000700208130BD2DE9F04104460D461646A5
:107610001F46602D06D13B46012231462046FFF72A
:107620005AFE05E03B46012231462046FFF79DFE0B
:1076300029462046FFF7D2FF208940F0070020812D
:10764000BDE8F08130B50C4600210189C9B24FF682
:10765000FF7505EA0325154325432943018130BD04
:107660002DE9F04105460E4617469846002443464C
:107670003A4631462846FFF7E5FF2C894FF6F87069
:10768000044044F007044FF68F70044044F0700447
:107690002C81BDE8F081F0B504460D4616461F4624
:1076A0003B46324629462046FFF7CCFF208940F46E
:1076B00080402081F0BD0185828270470A4600210A
:1076C00001884FF68F731940114301807047F0B560
:1076D0000C4615461E460021002200230189028B1C
:1076E000038C4FF6F877394021434FF6FC473A4078
:1076F00040F201173A434FF6DD773B404FF6FF77F4
:1077000007EA06172F433B43018102830384F0BD40
:107710000A460021018B4FF68F73194011430183F4
:1077200070470A460021018B48F6FF7319404FF657
:10773000FF7303EA02231943018370470A460021BD
:10774000818B4FF68F7319401143818370470A462E
:107750000021818B48F6FF7319404FF6FF7303EA4F
:10776000022319438183704721B1028842F08002CD
:10777000028004E002884FF67F731A40028070474F
:1077800021B1828842F00402828004E082884FF6B0
:10779000FB731A408280704721B1828842F0080250
:1077A000828004E082884FF6F7731A408280704727
:1077B00021B1828842F00102828004E082884FF683
:1077C000FE731A40828070470A460021018B4FF6F3
:1077D000F77319401143018370470A460021018B5A
:1077E0004FF2FF7319404FF6FF7303EA0223194368
:1077F000018370470A460021818B4FF6F7731940C9
:107800001143818370470A460021818B4FF2FF7339
:1078100019404FF6FF7303EA02231943818370472F
:107820000A460021018B4FF6FB7319401143018377
:1078300070470A460021018B4FF6FF3319404FF67F
:10784000FF7303EA02231943018370470A460021AC
:10785000818B4FF6FB7319401143818370470A46B1
:107860000021818B4FF6FF3319404FF6FF7303EA77
:1078700002231943818370470A460021018B4FF68A
:107880007F7319401143018370470A460021018B21
:10789000C1F30E014FF6FF7303EA0223194301837C
:1078A00070470A460021818B4FF67F7319401143C0
:1078B000818370470A460021818BC1F30E014FF688
:1078C000FF7303EA02231943818370470A460021AC
:1078D000018C4FF6FD7319401143018470470A462D
:1078E0000021018C4FF6F773194011430184704752
:1078F0000A460021018C4FF6DF7319404FF6FF73E3
:1079000003EA02131943018470470A460021018CDF
:107910004FF67F7319404FF6FF7303EA02131943C2
:10792000018470470A460021018C4FF6FF5319402D
:107930004FF6FF7303EA02231943018470470A4696
:107940000021018C4FF2FF7319404FF6FF7303EAD9
:1079500002231943018470470A460021018C4DF629
:10796000FF7319404FF6FF7303EA02331943018492
:10797000704730B5002301248C40A3B2048C9C4393
:107980000484048C02FA01F5ADB22C43048430BDAA
:1079900030B5002304248C40A3B2048C9C4304849F
:1079A000048C02FA01F5ADB22C43048430BD70B5ED
:1079B0000346002000241846183001258D40ACB243
:1079C0001D8CA5431D8409B1082909D100EB610074
:1079D000056825F0700505600568154305600EE033
:1079E0000D1FC5F34E052844056825F4E0450560E4
:1079F00005684FF6FF7606EA02263543056070BD3E
:107A000021B1028842F00202028004E002884FF6AF
:107A1000FD731A400280704721B1028842F00402CF
:107A2000028004E002884FF6FB731A400280704720
:107A300021B1828842F08002828004E082884FF681
:107A40007F731A408280704702884FF6F7731A409E
:107A5000028002880A430280704782884FF68F7343
:107A60001A40828082880A438280704702894FF6DA
:107A7000F8731A40028102890A4302817047028921
:107A80004FF67F731A40028102890A4302817047D0
:107A90008184704781857047818670470187704770
:107AA00081877047A0F84010704702884FF6FF4367
:107AB0001A40028002880A43028070470146888E7D
:107AC00070470146088F70470146888F704701460E
:107AD000B1F8400070470146888C70470146088D18
:107AE000704702460020138A0B400BB1012000E0D2
:107AF00000207047CA430282704730B5024600201A
:107B000000230024158A05EA0103958905EA01048A
:107B100013B10CB1012000E0002030BDCA43028245
:107B20007047000010B50446FB48844209D101218A
:107B30008803FFF79FF800214FF48040FFF79AF881
:107B400032E0F648844209D101214804FFF79FF84A
:107B500000214FF40030FFF79AF825E0F048844206
:107B600009D101218804FFF792F800214FF4802009
:107B7000FFF78DF818E0EB48844209D10121C804D1
:107B8000FFF785F800214FF40020FFF780F80BE0A5
:107B9000E548844208D101210805FFF778F8002163
:107BA0004FF48010FFF773F810BD2DE9F04786B051
:107BB00005460E460024A24600BFA1460027B08914
:107BC00000B100BF2F462C8A4CF6FF700440F088AD
:107BD00004432C82AC894EF6F3100440B0883189FE
:107BE0000843718908430443AC81AC8A4FF6FF40D7
:107BF0000440B0890443AC8201A8FEF7B4FFC64834
:107C0000874202D1DDF810A001E0DDF80CA0A889C0
:107C100000F4004040B10AEBCA0000EB0A103168E2
:107C20004900B0FBF1F807E00AEBCA0000EB0A10CC
:107C300031688900B0FBF1F86420B8FBF0F0040172
:107C40002009642101FB1089A88900F4004040B19B
:107C5000322000EBC900B0FBF1F000F00700044354
:107C600008E0322000EB09106421B0FBF1F000F0D5
:107C70000F0004432C8106B0BDE8F0874FF4165185
:107C8000016000218180C18001810C21418100219E
:107C90008181704710B502460020108A4FF2FF0321
:107CA00018400B884C8823438C882343CC8823437B
:107CB0001843108210BD0021018041808180C18065
:107CC000704721B1828942F40052828104E08289A6
:107CD0004DF6FF731A4082817047F0B503460024C9
:107CE00000260025002040F66A17B94200D100BFE7
:107CF0001846C1F3421401F01F06012707FA06F5E2
:107D0000012C01D10C3004E0022C01D1103000E034
:107D100014301AB107682F43076002E00768AF43C9
:107D20000760F0BD1AB1838A0B43838202E0838A25
:107D30008B4383827047028A4FF6F0731A400282A7
:107D4000028A0A430282704782894FF2FF731A4007
:107D5000828182890A438281704721B1828942F0FF
:107D60000202828104E082894FF6FD731A4082810B
:107D70007047028A4FF6DF731A400282028A0A4372
:107D80000282704721B1028A42F48042028204E0FA
:107D9000028A4BF6FF731A4002827047C1F3080251
:107DA0008280704701468888C0F308007047818947
:107DB00041F0010181817047028BD2B20283028BB4
:107DC00042EA012202837047028B02F47F4202835F
:107DD000028B0A430283704721B1828A42F020025B
:107DE000828204E0828A4FF6DF731A4082827047F3
:107DF00021B1828A42F01002828204E0828A4FF628
:107E0000EF731A408282704721B1828A42F00802E1
:107E1000828204E0828A4FF6F7731A4082827047AA
:107E200021B1828942F40042828103E08289C2F357
:107E30000E028281704721B1828A42F400628282FE
:107E400004E0828A4FF2FF731A4082827047828A6E
:107E50004FF6FB731A408282828A0A4382827047FD
:107E600021B1828A42F00202828204E0828A4FF6C5
:107E7000FD731A408282704702460020B1F5007FF0
:107E800000D100BF13880B400BB1012000E000209F
:107E9000704701F40072B2F5007F00D100BFCA4301
:107EA0000280704770B502460024002300250020A0
:107EB00040F66A16B14200D100BFC1F3421501F08D
:107EC0001F03012606FA03F3012D02D196893340E0
:107ED00006E0022D02D1168A334001E0968A334033
:107EE0000C12012606FA04F41688344013B10CB1C2
:107EF000012000E0002070BD10B50022002340F6F4
:107F00006A14A14200D100BF0A1201249440A3B216
:107F1000DC43048010BD00000038014000440040F4
:107F200000480040004C0040005000402DE9F04166
:107F30000024061B254671F1000605DA01240027FE
:107F4000D0EB070067EB0101161E73F1000605DA9E
:107F50000027D2EB0702012567EB030300F090FB3B
:107F600086460E4617469C46AC4204D00025D0EB10
:107F7000050E65EB010624B10020D2EB000760EB93
:107F8000030C704631463A466346BDE8F081D2B2F2
:107F900001E000F8012B491EFBD270470022F6E7F2
:107FA00010B513460A4604461946FFF7F0FF20466F
:107FB00010BD421C10F8011B0029FBD1801A70472C
:107FC00030B504460020034600E05B1C934203D218
:107FD000E05CCD5C401BF8D030BDF0B480EA01021B
:107FE000D40F4200B2EB410F02D2024608461146BE
:107FF0004A0042D0C30DDDB2C1F3C752AD1A202DE5
:1080000035DAC1F3160141F4000204B15242C5F160
:10801000200602FA06F12A411044B3EBD05F23D0C8
:10802000C4B1012DA0EBC35009DCF0BC4FF00042FD
:1080300002EAC352DBB200F5000000F08CBB400046
:1080400000F1807000EBC350A0F1807040EAD17065
:10805000490009E0490841EAC071A0EBC35000F5AE
:108060000000400800EBC350F0BC00F06BBB614265
:10807000012202EB4101001BF6E7F0BC704781F0E2
:108080000041AAE780F00040A7E780EA010210B5AE
:1080900002F00043400022D04A001FD0010E01EB45
:1080A0001261C0F35600C2F3560240F4000042F4DD
:1080B0000002A0FB022000047F39140400D0401C01
:1080C00050EA124001D44000491EC2B20C0604EB33
:1080D000D010401C4008802A02D003E0002010BDD0
:1080E00020F00100002900DA0020184310BD30B450
:1080F00080EA010202F0004530F0004221F0004029
:1081000013D090B1C30DD40DC2F31601C0F3160005
:10811000E41A41F4000140F400027D34914201D39D
:10812000641C00E04900002C02DA30BC00207047DB
:108130004FF400000023914201D3891A0343400801
:108140004FEA4101F7D151B1914202D14FF00041C4
:1081500005E002D24FF0010101E06FF0010103EBF5
:10816000C450284430BC00F0EDBA2DE9FE4F8046E3
:1081700081EA0300C00F0C46009021F0004123F07B
:108180000045B8EB0200A94105D240462146904681
:108190001C460B46024623F00040104347D0270DF3
:1081A000C7F30A00C3F30A510290401A0190402815
:1081B0006BDAC3F3130040F4801B0098924620B1A1
:1081C0000023D2EB030A63EB0B0B01985946C0F175
:1081D0004002504600F085FA06460D465046594684
:1081E000019A00F09DFA10EB08006141002487EA33
:1081F000115284EAE7731A4340D0009A62B3019A9D
:10820000012A4FEA075215DC001B61EB02014FF017
:10821000004202EA0752CDE90042001C41F58011FC
:1082200032462B4600F0D4FA03B0BDE8F08F40464A
:108230002146F9E7001B61EB0201001C41F58013A8
:1082400000185B412018A2F5001747EB030140EA34
:10825000D570B6196D4111E06D084FEA360645EA52
:10826000C0754FEA0752001B61EB0201001C41F58B
:10827000801149084FEA30000019514132462B461F
:1082800003B0BDE8F04F00F094BA0098012240001E
:108290000023D0EB020263EBE073009821464FEA23
:1082A000E074B8EB000061EB0401E9E783F0004300
:1082B0005BE781F0004158E72DE9FE4F81EA0304B6
:1082C00004F0004421F0004100944FF0000B23F033
:1082D000004350EA01045ED052EA03045BD0C3F3CA
:1082E0000A54C1F30A552C44A4F2F3340194A0FBC0
:1082F0000254C1F3130141F48011C3F3130343F497
:10830000801301FB024400FB034E840A970A44EAEF
:10831000815447EA8357A4FB076802958D0A05FB41
:1083200007854FEA932C04FB0C542705029D4FEA66
:10833000065847EA1637B5EB08056EEB070C870EB3
:10834000920E47EA811742EA8312A7FB0201B6EBBD
:108350000B0164EB00042B0D43EA0C335E1844EB75
:108360001C50DA465146E7FB0201C5F313044FEAFD
:108370000B3343EA14534FEA0432019C43EA0603E9
:10838000A4F10C040294009CCDE900B400F020FAA2
:1083900003B0BDE8F08F00200146F9E72DE9F04D6C
:1083A00081EA030404F0004B21F0004514464FF02D
:1083B000000A23F0004150EA050220D054EA0102ED
:1083C0001DD0C5F30A570246C5F31303C1F31300CA
:1083D000C1F30A5640F4801543F48013A7EB060856
:1083E000101BD64608F2FD3873EB050002D308F1E6
:1083F000010801E092185B41B8F1000F03DA002098
:108400000146BDE8F08D00204FF4801106468446F9
:108410000EE0171B73EB050705D3121B63EB050377
:1084200006434CEA010C49084FEA300092185B41C0
:1084300050EA0107EDD152EA030012D082EA0400AB
:1084400083EA0501084305D0101BAB4106D2012287
:10845000002306E000224FF0004302E06FF001022B
:1084600053101AEB06004CEB085110EB0A0041EBDD
:108470000B01BDE8F04D00F09CB9C10F80EAE0703F
:108480000844CA079623002100F065B9962300220C
:10849000114600F060B90EB5C10F80EAE0700844E3
:1084A000CA07002140F233438DE80E000A460B460E
:1084B00000F08EF903B000BD0EB540F233410291D9
:1084C0000021CDE900110A460B4600F081F903B006
:1084D00000BD00F0004220F00040C10DC0F31600C6
:1084E00040F400007F2901DA00207047962903DC60
:1084F000C1F19601C84001E096398840002AF4D0C5
:108500004042704720F00040C10DC0F3160040F417
:1085100000007F2901DA00207047962903DCC1F1B1
:108520009601C840704796398840704770B5C1F3CE
:108530000A5201F000450024C1F3130140F2FF3359
:1085400041F480119A4201DA002070BD40F23343B9
:108550009A42A2F2334203DC524200F0D1F800E02A
:1085600090402C43F1D0404270BDC1F30A5210B587
:10857000C1F3130140F2FF3341F480119A4201DA52
:10858000002010BD40F233439A42A2F2334203DC92
:10859000524200F0B5F810BD904010BD00F000420E
:1085A00030F000400AD0C10D01F56071C0F3160033
:1085B00042EA0151C20840071143704700200146BA
:1085C0007047000030B5041E71F1000404DB4FF069
:1085D0000044404264EB0101141E73F1000405DB0A
:1085E0001C464FF00043524263EB04038B4208BF2A
:1085F000824230BD01F0004330B421F0004150EA26
:10860000010206D00A0DA2F56072C1F31301002A1F
:1086100002DC30BC00207047440F44EAC104C100B2
:10862000E01830BC00EBC25000F08CB8002801DB31
:10863000C0F10040002901DBC1F1004181427047D7
:10864000002801DBC0F10040002901DBC1F100413D
:108650008842704730B50B46014600202022012495
:1086600009E021FA02F59D4205D303FA02F5491B00
:1086700004FA02F52844151EA2F10102F1DC30BD16
:108680002DE9F05F0546002092469B468846064647
:10869000814640241BE0284641464746224600F0DA
:1086A0002FF853465A46C01A914110D31146184626
:1086B000224600F016F82D1A67EB01084F462246B5
:1086C0000120002100F00DF817EB00094E41201E9B
:1086D000A4F10104DFDC484631462A464346BDE8A2
:1086E000F09F202A04DB203A00FA02F100207047B4
:1086F0009140C2F1200320FA03F3194390407047E0
:10870000202A04DB203A21FA02F00021704721FAE6
:1087100002F3D040C2F1200291400843194670474D
:10872000202A06DBCB17203A41FA02F043EAE07335
:1087300006E041FA02F3D040C2F120029140084322
:10874000194670470029A8BF7047401C490008BF60
:1087500020F00100704710B4B0FA80FC00FA0CF071
:1087600050EA010404BF10BC704749B1CCF12004A9
:1087700021FA04F411FA0CF118BF01212143084336
:10878000A3EB0C01CB1D4FEA00614FEA102042BF62
:10879000002010BC704700EBC35010440029A4BF58
:1087A00010BC7047401C490008BF20F0010010BCFD
:1087B000704710B5141E73F1000408DA401C41F133
:1087C000000192185B411A4301D120F0010010BD55
:1087D0002DE9F04D92469B4611B1B1FA81F202E0CB
:1087E000B0FA80F220329046FFF77BFF04460F4636
:1087F00040EA0A0041EA0B0153465A46084313D0A7
:10880000114653EA010019D0C8F140025046FFF763
:1088100077FF05460E46504659464246FFF761FF30
:10882000084305D0012004E020463946BDE8F08D1C
:108830000020054346EAE0762C4337430A98630557
:10884000E40AA0EB08000022FD0A44EA47540A307B
:1088500002D500200146E9E7010510196941DDE96B
:10886000084500196941BDE8F04DA2E770B521F057
:10887000004303430CD0C1F30A550024D5EB040593
:1088800064EB0403D617AD1AB34102DB00200146A6
:1088900070BD201841EB025170BD0000064C074D21
:1088A00006E0E06840F0010394E8070098471034C0
:1088B000AC42F6D3F7F71EFC68A8000888A80008A9
:1088C0002DE9F04D00231A461B1A8A4103DB0020D4
:1088D0000146BDE8F08DC1F30A52C1F3130141F422
:1088E00080154FF0000BD10702D100186D41521EC8
:1088F0000027044640F2FF11384601EB620A3E466B
:108900008046024600204FF48011FFF7F9FEC2199D
:108910007141BB1846EB0100B4EB030C75EB000C86
:1089200004D3E41A65EB000517460E46241908F136
:1089300001006D4180463428E3DDF91946EB06005D
:10894000091BA84103D24FF0FF32134601E0002279
:1089500013461BEB070046EB0A51BDE8F04DFFF74D
:1089600028BF70B58C1810F8015B15F0070301D112
:1089700010F8013B2A1106D110F8012B03E010F882
:10898000016B01F8016B5B1EF9D12B0705D40023A5
:10899000521E0DD401F8013BFAE710F8013BCB1A47
:1089A000921C03E013F8015B01F8015B521EF9D53C
:1089B000A142D8D3002070BD0FB4054B10B503A958
:1089C000044A029800F09AF810BC5DF814FB00000D
:1089D000C30400081C000020490050EAC12018BF51
:1089E00004204A0D18BF40F0010040F2FF72B2EBC4
:1089F000515F08BF40F00200012808BF0520704702
:108A00002DE9F0414F1E00EBC7010446D1E90001FA
:108A100015461E4637F006020DD02A463346FFF7AC
:108A20004BFC7F1E04EBC703D3E90023FFF79DFB3C
:108A300037F00602F1D1022F25D0042F13D0062FD4
:108A400018BFBDE8F0812A463346FFF735FCD4E96C
:108A50000A23FFF78AFB2A463346FFF72DFCD4E9A9
:108A60000823FFF782FB2A463346FFF725FCD4E9AB
:108A70000623FFF77AFB2A463346FFF71DFCD4E9AD
:108A80000423FFF772FB2A463346FFF715FCD4E9AF
:108A90000223FFF76AFB2A463346FFF70DFCD4E9B1
:108AA0000023BDE8F041FFF760BB0122FFF7DEBE07
:108AB000FFF75BBB0022134610461146FFF76EBC62
:108AC000024A00201107FFF7D1BE000001FDFFFFA1
:108AD00002E008C8121F08C1002AFAD17047704787
:108AE000002001E001C1121F002AFBD170470000E5
:108AF0000149086070470000CC0400202DE9FF4FB9
:108B000089B09B460446002506E025280BD05A462E
:108B10000B999047641C6D1C20780028F5D10DB08E
:108B20002846BDE8F08F0027B8460122474900E0FB
:108B3000074314F8013F203B02FA03F00842F7D143
:108B400020782E2819D114F8010F47F004072A289D
:108B50000ED06FF02F022078A0F1300109290CD837
:108B600008EB880102EB410100EB0108641CF2E70D
:108B70000A98641C50F8048B0A9020780028CED004
:108B8000642808D0692806D075281ED05A460B994B
:108B900090476D1C58E00A994FF00A0901C90A91E3
:108BA000002802DA40422D2102E0390504D52B21AC
:108BB0008DF82010012103E0F90704D02021F7E708
:108BC0008A4608AE0DE00021FAE70A994FF00A093B
:108BD00001C90A91F7E74946FFF73CFD303106F835
:108BE000011D0028F7D1ADEB060000F12009780740
:108BF00001D44FF00108C84502DDA8EB090000E0F0
:108C000000208046002706E008A85A46C05D0B9960
:108C100090476D1C7F1C5745F6DB04E030205A4618
:108C20000B9990476D1CB8F10001A8F10108F5DC23
:108C300005E016F8010B5A460B9990476D1CB9F1E7
:108C40000001A9F10109F4DC641C65E709280100B1
:108C50002DE9F04D8D4F21F0004A86B005460C46B7
:108C6000BA452ADBAAEB070028430AD08848824588
:108C700001DC1AD1CDB106B02846BDE8F04DFFF7B2
:108C800014BF844A844B2846FFF716FB07460E465E
:108C9000824A834B28462146FFF70EFB06B03A4630
:108CA0003346BDE8F04DFFF760BA0120FFF720FF23
:108CB00006B0BDE8F04DFFF7FDBE7A48824542DAC6
:108CC000BAF1795F0BDA2846FFF786FE042808BF61
:108CD000FFF7F6FE284606B02146BDE8F08D2A468D
:108CE0000B461046FFF7E8FA834602466E480E46EA
:108CF0000B4606217844FFF783FE5A463346FFF7BA
:108D0000DBFA804669488A465A463346042178444D
:108D1000FFF776FE5A463346FFF7CEFA00223B466F
:108D2000FFF723FA02460B4640465146FFF736FB53
:108D30002A462346FFF7C0FA06B02A462346BDE876
:108D4000F04DFFF712BA284624F0004100223D46BC
:108D50003B46FFF7AEFA4FF0FF32FFF787FD0646BE
:108D6000024653480F460B4606217844FFF748FE5B
:108D700032463B46FFF7A0FACDE900014D483246A6
:108D80003B4604217844FFF73BFE32463B46FFF763
:108D900093FA00222B46FFF7E8F98346029130460A
:108DA000394600F06BFA804643480D46504517DCC3
:108DB000DDE900015A46029BFFF7F0FA42462B46D6
:108DC000FFF77AFA42462B46FFF7CFF90122FFF769
:108DD0004DFD304A304BFFF769FA304A304B4CE0DA
:108DE0004FF0000A52460B464046FFF7BEF9CDE968
:108DF000031052462B4610461946FFF75DFA3246DD
:108E00003B46FFF756FADDE90332FFF7C7FA06469D
:108E10000F46DDE900015A46029BFFF7BFFA834681
:108E20000091012230463946FFF720FD194A1A4BBE
:108E3000FFF73FFA06460F46012240462946FFF754
:108E400015FD5A46009BFFF737FA32463B46FFF7BF
:108E50002DFA06460F46012250462946FFF706FD29
:108E60000E4DDFF858802A464346FFF722FA324675
:108E70003B46FFF71EFA2A464346FFF71AFA002C34
:108E8000D8BF81F0004106B0BDE8F08D0000F03F92
:108E90000000F07F075C143326A6913C182D445443
:108EA000FB21F93F0000E03F301A0000461A0000A5
:108EB000BA190000D01900003333EF3FFB21E93F1E
:108EC0002DE9F84F04460D4621F00040009173490A
:108ED000814211DC7249884201DC06D12CB1204666
:108EE0002946BDE8F84FFFF7E0BD6E48002DCCBF26
:108EF0006D496E49BDE8F88F6D49814211DD6D49BC
:108F00008142D8BF4FF0FF366DDD20462946FFF77E
:108F100063FD042808BFFFF7D3FD20462946BDE8BE
:108F2000F88F6549654F25F00045814233DD64497E
:108F3000814219DD002632464FF080432046294603
:108F4000FFF713F980468A46012220462946FFF79B
:108F50008DFC00223B46FFF7A9F942465346FFF736
:108F60001DFA04460D463EE001260022BA463B4665
:108F700020462946FFF7F9F880460F46002253465F
:108F800020462946FFF792F942463B46FFF706FA8C
:108F900004460D4627E04B4981421BDDDFF828A13E
:108FA00002260022534620462946FFF785F9002273
:108FB0003B46FFF7DAF880460F460022534620462C
:108FC0002946FFF773F942463B46FFF7E7F90446A7
:108FD0000D4608E0032622462B4600203B49FFF7BA
:108FE000DDF904460D4622462B4610461946FFF78A
:108FF00063F98B46824602460B46FFF75DF907464A
:109000000246334888460B4606217844FFF7F8FCB1
:1090100052465B46FFF750F982462E488B463A4649
:10902000434605217844FFF7EBFC3A464346FFF7F9
:1090300043F902460B46002E504659460CDAFFF71C
:1090400094F822462B46FFF737F901B022462B460B
:10905000BDE8F04FFFF72DB9FFF787F822462B4602
:10906000FFF72AF91C4A7A4402EBC603D3E900232E
:10907000FFF71CF922462B46FFF718F9174A7A44E6
:1090800002EBC603D3E90023FFF713F9009A002A85
:10909000B8BF81F00041BDE8F88F00000000104427
:1090A0000000F07F182D4454FB21F93FFB21F9BF4C
:1090B0000000DC3F0000203E0000F33F0000F03FD6
:1090C0000000E63F008003400000F83F0000F0BFD2
:1090D000D2170000901700002E170000F6160000AF
:1090E0002DE9F04D9446CCF1000423F000464CEA03
:1090F0000404594F46EAD4749A46884621F0004247
:10910000BC4206D8454240EA050442EAD474BC4257
:1091100004D9BDE8F04D6246FFF7CABCAAF140553C
:10912000A5F17F6555EA0C040BD0022404EAAA7469
:109130004A4DDFF82CE144EAD87452EA000B04D01F
:109140000CE0BDE8F04DFFF7BBBE002C14BF012CB6
:10915000BDE8F08D022C30D0032C32D056EA0C0B37
:109160000AD0BE4220D1BA4209D126F0804622F070
:1091700080423346114617E000291ADB25E0DFF86C
:10918000E4B0FB44002C04BFDBE90001BDE8F08D36
:10919000012C02BFDBE9000181F00041BDE8F08D48
:1091A000022C0AD0032C0CD0BA4212D1B8F1000F15
:1091B0000BDA2A482C49BDE8F08D28462B49BDE83A
:1091C000F08D28467146BDE8F08D24482849BDE859
:1091D000F08D921B12153C2AC4BF204F244E10DC88
:1091E000BAF1000FBEBF12F13C0F00273E4608DB6C
:1091F0006246FFF7D3F821F00041FFF761FE074612
:109200000E4694B1012C08BF86F000460DD0194AD5
:10921000194B022C3846314615D0FFF747F82A463D
:10922000BDE8F04D114BFFF741B800221346384618
:109230003146FFF7C7F904BF0220FFF759FC384653
:109240003146BDE8F08DFFF731F82A46BDE8F04D14
:10925000064BFFF72EB800000000F07F182D445495
:10926000FB2109C08A160000FB21F9BFFB21094040
:10927000FB21F93F075C143326A6A13C2DE9F04100
:1092800006460F46FFF71CFB041E0D4618BF0120C3
:10929000284320F00040C0F17F6000F1E040C00FA3
:1092A0000ED0301C18BF0120384320F00040C0F120
:1092B0007F6000F1E040C00F04BF0120FFF718FC01
:1092C00020462946BDE8F0810000000000000000B3
:1092D000002F000000000700070000147F147F1417
:1092E00000242A7F2A12006264081323003649559D
:1092F000225000000503000000001C224100000075
:1093000041221C000014083E08140008083E08080A
:10931000000000A060000008080808080000606065
:109320000000002010080402003E5149453E0000A4
:10933000427F4000004261514946002141454B3186
:10934000001814127F10002745454539003C4A4952
:1093500049300001710905030036494949360006C4
:109360004949291E0000363600000000563600002C
:1093700000081422410000141414141400004122A7
:10938000140800020151090600324959513E007C7F
:109390001211127C007F49494936003E4141412269
:1093A000007F4141221C007F49494941007F090952
:1093B0000901003E4149497A007F0808087F000002
:1093C000417F4100002040413F01007F08142241BD
:1093D000007F40404040007F020C027F007F040875
:1093E000107F003E4141413E007F09090906003ED1
:1093F0004151215E007F09192946004649494931FA
:109400000001017F0101003F4040403F001F20401C
:10941000201F003F4038403F0063140814630007DA
:109420000870080700615149454300007F41410031
:1094300000552A552A55000041417F0000040201D1
:1094400002040040404040400000010204000020AF
:1094500054545478007F48444438003844444420ED
:1094600000384444487F00385454541800087E099A
:1094700001020018A4A4A47C007F08040478000062
:10948000447D4000004080847D00007F102844001F
:109490000000417F4000007C04180478007C080430
:1094A000047800384444443800FC2424241800186C
:1094B000242418FC007C0804040800485454542058
:1094C00000043F444020003C4040207C001C2040E1
:1094D000201C003C4030403C004428102844001C24
:1094E000A0A0A07C004464544C441414141414141C
:1094F000000000000000000000000000000000006C
:10950000000000F800000000000000333000000000
:1095100000100C06100C0600000000000000000007
:1095200040C07840C0784000043F04043F04040079
:10953000007088FC08300000001820FF211E000089
:10954000F008F000E018000000211C031E211E009E
:1095500000F00888700000001E2123241927211024
:1095600010160E00000000000000000000000000C7
:10957000000000E01804020000000007182040006E
:1095800000020418E000000000402018070000005E
:10959000404080F0804040000202010F01020200C2
:1095A000000000F0000000000101011F01010100A6
:1095B000000000000000000080B07000000000000B
:1095C0000000000000000000000101010101010194
:1095D000000000000000000000303000000000002B
:1095E0000000000080601804006018060100000000
:1095F00000E010080810E000000F102020100F00FD
:10960000001010F8000000000020203F2020000083
:1096100000700808088870000030282422213000DB
:1096200000300888884830000018202020110E00E3
:109630000000C02010F8000000070424243F24008C
:1096400000F80888880808000019212020110E0061
:1096500000E0108888180000000F112020110E0073
:1096600000380808C83808000000003F000000006B
:109670000070880808887000001C222121221C002C
:1096800000E010080810E0000000312222110F0055
:10969000000000C0C00000000000003030000000EA
:1096A000000000800000000000008060000000005A
:1096B0000000804020100800000102040810200073
:1096C00040404040404040000404040404040400BE
:1096D0000008102040800000002010080402010053
:1096E000007048080808F000000000303601000053
:1096F000C030C828E810E0000718272423140B0006
:109700000000C038E0000000203C2302022738207F
:1097100008F8888888700000203F202020110E0063
:10972000C03008080808380007182020201008005A
:1097300008F808080810E000203F202020100F0043
:1097400008F88888E8081000203F2020232018000F
:1097500008F88888E8081000203F20000300000077
:10976000C03008080838000007182020221E020018
:1097700008F808000008F808203F210101213F20D7
:10978000000808F8080800000020203F2020000002
:1097900000000808F8080800C08080807F000000F2
:1097A00008F888C028180800203F2001263820002B
:1097B00008F8080000000000203F20202020300092
:1097C00008F8F800F8F80800203F003F003F2000AC
:1097D00008F830C00008F808203F200007183F00B4
:1097E000E01008080810E0000F10202020100F00E3
:1097F00008F808080808F000203F210101010000D6
:10980000E01008080810E0000F18242438504F001A
:1098100008F8888888887000203F2000030C3020DA
:1098200000708808080838000038202121221C0018
:10983000180808F8080818000000203F2000000061
:1098400008F808000008F808001F202020201F004A
:109850000878880000C83808000007380E010000AA
:10986000F80800F80008F800033C0700073C030074
:10987000081868808068180820302C03032C3020DA
:109880000838C800C83808000000203F2000000049
:1098900010080808C83808002038262120201800A1
:1098A000000000FE020202000000007F4040400075
:1098B000000C30C000000000000000010638C000AD
:1098C00000020202FE000000004040407F00000055
:1098D000000004020202040000000000000000007A
:1098E0000000000000000000808080808080808078
:1098F0000002020400000000000000000000000060
:1099000000008080808000000019242222223F2055
:1099100008F8008080000000003F112020110E0098
:109920000000008080800000000E11202020110027
:10993000000000808088F800000E112020103F20D9
:109940000000808080800000001F2222222213005D
:10995000008080F0888888180020203F20200000A8
:109960000000808080808000006B9494949360005D
:1099700008F8008080800000203F210000203F2068
:1099800000809898000000000020203F2020000068
:10999000000000809898000000C08080807F000058
:1099A00008F8000080808000203F24022D30200035
:1099B000000808F8000000000020203F20200000E0
:1099C0008080808080808000203F20003F20003FFA
:1099D0008080008080800000203F210000203F2008
:1099E0000000808080800000001F202020201F00B9
:1099F000808000808000000080FFA12020110E00E8
:109A00000000008080808000000E112020A0FF80D8
:109A1000808080008080800020203F212000010085
:109A200000008080808080000033242424241900DA
:109A3000008080E0808000000000001F20200000E7
:109A40008080000000808000001F202020103F2028
:109A5000808080000080808000010E3008060100B8
:109A600080800080008080800F300C030C300F005D
:109A700000808000808080000020312E0E31200088
:109A8000808080000080808080818E7018060100B8
:109A900000808080808080000021302C22213000D6
:109AA00000000000807C020200000000003F4040F7
:109AB00000000000FF00000000000000FF000000A8
:109AC0000002027C800000000040403F00000000D7
:109AD0000006010102020404000000000000000072
:109AE0006800000476005401F7FD000175191A0C96
:109AF0006A231B1C1F207274433B4138393A6B6C3C
:109B0000376F06246D6E70008300000000080000AF
:109B10000001001832000500000020410000D24280
:109B2000295C0F3E9A99993E3333733F295C0F3E6F
:109B3000000070000000002400000002000300008C
:109B400000650054FFEF0000FA80000B1282000154
:109B5000030C30C30E8C8CE914D5400213710F8EA8
:109B60003883F8833000F883258EF8833000F8833B
:109B7000FFFFFFFF0FFEA9D6240004001A8279A17F
:109B80000000003CFFFF00000010000038836FA2BF
:109B9000003E03304000000002CAE3093E8000009E
:109BA00020000000000000004000000060000000F5
:109BB000000C0000000C186E000006920A16C0DFB0
:109BC000FFFF0256FD8CD377FFE1C496E0C5BEAA25
:109BD00000000000FFFF0B2B000016570000035988
:109BE0004000000000001DFA00026C1D0000000093
:109BF0003FFFDFEB003EB3B6000D227800002F3CA4
:109C000000000000001942B5000039A20000B36551
:109C1000D90E9FC91DCF4C34300000005000000009
:109C20003BB67AE80064000000C8000000000000B5
:109C3000100000001000FA921000225E000D229F1A
:109C40000001000000320000FF46000063D4000065
:109C50001000000004D6000004CC000004CC00007A
:109C60000000107200000040000000000000000032
:109C7000000600020005000700000000006400006C
:109C80000000000000000005000500640020000046
:109C90000000000000000000000040000000030081
:109CA00000000032F8980000FF650000830F0000FC
:109CB000FF9BFC000000000000000000000000000E
:109CC0000000000000000000000000000000000094
:109CD0000000000000000000000000000000100074
:109CE00040000000000000060000B26A0002000010
:109CF0000001FB830068000000D9FC007CF1FF83B9
:109D00000000000000650000006403E80064002813
:109D1000000000250000000016A000000000100058
:109D200000001000002F0000000001F400001000EF
:109D300000280000FFFF4581FFFFFA7200000000CD
:109D400000000000004400050005BAC6004778A2E4
:109D500000000001000000000000060000000014E8
:109D60000000254D002F706D000005AE000C02D0E4
:109D700000000000000000000000000000000000E3
:109D8000001B0000000000000000000000000000B8
:109D90000064000000080000000000000000000057
:109DA00000000000000000000000000000000000B3
:109DB00000000000000000000000000000000000A3
:109DC0000000000000000000000000000000000093
:109DD0000000000000000000000000000000000083
:109DE0000000000000000000000000000000000073
:109DF000001B00000000000000000000000E000E2C
:109E000000000AC70004000000000032FFFFFF9CB2
:109E100000000B2B000000020000000100000064A5
:109E2000FFE500000000000000000000000000004E
:109E30000000000100000000000100000000000020
:109E4000000180000001800000018000002426D372
:109E50000000000000000000000600100096003C1A
:109E600000000000000000000000000000000000F2
:109E70000C0A4E68CDCF770950166759C619CE82A5
:109E800000000000000000000000000000000000D2
:109E9000000000000000000017D78400030000004D
:109EA0000000000000000000C7938F9D1E1B1C19BE
:109EB00000000000000000000000000000000000A2
:109EC00000000000000000000203188500004000B0
:109ED000000000030000000300000000000000007C
:109EE0004000000000000000000000000000000032
:109EF0000000000000000000000000000000000062
:109F00000000000000000000000000000000000051
:109F100000000000677DDF7E72902E554CF6E688CB
:109F20000000000000000000000000000000000031
:109F3000D8DCB4B8B0D8B9ABF3F8FAB3B7BB8E9EDF
:109F4000AEF132F51BF1B4B8B08097F1A9DFDFDFD5
:109F5000AADFDFDFF2AAC5CDC7A90CC92C97F1A9EA
:109F600089264666B28999A92D557DB0B08AA896F2
:109F7000365676F1BAA3B4B280C0B8A89711B283AE
:109F800098BAA3F0240844106418B2B9B49883F1C5
:109F9000A329557DBAB5B1A38393F0002850F5B23B
:109FA000B6AA839328547CF1B9A3829361BAA2DA4A
:109FB000DEDFDB819AB9AEF5606870F1DABAA2DF54
:109FC000D9BAA2FAB9A38292DB31BAA2D9BAA2F85D
:109FD000DF85A4D0C1BBAD83C2C5C7B8A2DFDFDFB8
:109FE000BAA0DFDFDFD8D8F1B8AAB38DB4980D35A9
:109FF0005DB2B6BAAF8C96198F9FA70E161EB49A93
:10A00000B8AA872C547CBAA4B08AB691325676B2DC
:10A010008494A4C808CDD8B8B4B0F19982A82D55BD
:10A020007D98A80E161EA22C547C92A4F02C507879
:10A03000F184A898C4CDFCD80DDBA8FC2DF3D9BAC7
:10A04000A6F8DABAA6DED8BAB2B68696A6D0F3C813
:10A0500041DAA6C8F8D8B0B4B882A892F52C5488D2
:10A0600098F135D9F418D8F1A2D0F8F9A884D9C755
:10A07000DFF8F883C5DADF69DF83C1D8F40114F1B2
:10A08000A8824EA884F311D182F5D992289788F13D
:10A0900009F41C1CD884A8F3C0F9D1D99782F129FE
:10A0A000F40DD8F3F9F9D1D982F4C203D8DEDF1A5E
:10A0B000D8F1A2FAF9A88498D9C7DFF8F8F883C7CD
:10A0C000DADF69DFF883C3D8F40114F198A8822E8F
:10A0D000A884F311D182F5D992509788F109F41C24
:10A0E000D884A8F3C0F8F9D1D99782F149F40DD8F2
:10A0F000F3F9F9D1D982F4C403D8DEDFD8F1AD8801
:10A1000098CCA809F9D98292A8F57CF1883ACF9425
:10A110004A6E98DB6931DAADF2DEF9D88795A8F29C
:10A1200021D1DAA5F9F417D9F1AE8ED0C0C3AE8231
:10A13000C684C3A88595C8A588F2C0F1F4010EF1C4
:10A140008E9EA8C63E56F554F18872F40115F1981A
:10A1500045856EF58E9E0488F142985A8E9E06883B
:10A1600069F4011CF1981E1108D0F504F11E970244
:10A1700002983625DBF9D985A5F3C1DA85A5F3DF89
:10A18000D88595A8F309DAA5FAD88292A8F578F1CE
:10A19000881A849F26889821DAF41DF3D8879F397E
:10A1A000D1AFD9DFDFFBF9F40CF3D8FAD0F8DAF944
:10A1B000F9D0DFD9F9D8F40BD8F3879F39D1AFD9CB
:10A1C000DFDFF41DF3D8FAFCA869F9F9AFD0DADEC5
:10A1D000FAD9F88F9FA8F1CCF398DB45D9AFDFD03F
:10A1E000F8D8F18F9FA8CAF38809DAAF8FCBF8D8D7
:10A1F000F2AD978D0CD9A5DFF9BAA6F3FAF412F2F5
:10A20000D8950DD1D9BAA6F3FADAA5F2C1BAA6F358
:10A21000DFD8F1BAB2B68696A6D0CAF349DAA6CB91
:10A22000F8D8B0B4B8D8AD84F2C0DFF18FCBC3A8F2
:10A23000B2B68696C8C1CBC3F3B0B48898A821DB68
:10A24000718D9D71859521D9ADF2FAD88597A82891
:10A25000D9F408D8F28D29DAF405D9F285A4C2F22E
:10A26000D8A88D9401D1D9F411F2D88721D8F40A55
:10A27000D8F28498A8C801D1D9F411D8F3A4C8BBE6
:10A28000AFD0F2DEF8F8F8F8F8F8F8F8D8F1B8F648
:10A29000B5B9B08A95A3DE3CA3D9F8D85CA3D9F8A8
:10A2A000D87CA3D9F8D8F8F9D1A5D9DFDAFAD8B192
:10A2B0008530F7D9DED8F830ADDADED8F2B48C9933
:10A2C000A32D557DA083DFDFDFB591A0F629D9FB53
:10A2D000D8A0FC29D9FAD8A0D051D9F8D8FC51D9A6
:10A2E000F9D879D9FBD8A0D0FC79D9FAD8A1F9F955
:10A2F000F9F9F9A0DADFDFDFD8A1F8F8F8F8F8AC5F
:10A30000DEF8ADDE8393AC2C547CF1A8DFDFDFF602
:10A310009D2CDAA0DFD9FADB2DF8D8A850DAA0D02E
:10A32000DED9D0F8F8F8DB55F8D8A878DAA0D0DF75
:10A33000D9D0FAF8F8F8F8DB7DF8D89CA88CF5307D
:10A34000DB38D9D0DEDFA0D0DEDFD8A848DB58D993
:10A35000DFD0DEA0DFD0DED8A868DB70D9DFDFA0D9
:10A36000DFDFD8F1A888902C547C98A8D05C38D135
:10A37000DAF2AE8CDFF9D8B087A8C1C1B188A8C61F
:10A38000F9F9DA36D8A8F9DA36D8A8F9DA36D8A839
:10A39000F9DA36D8A8F9DA36D8F78D9DADF818DA9B
:10A3A000F2AEDFD8F7ADFA30D9A4DEF9D8F2AEDEDE
:10A3B000FAF983A7D9C3C5C7F1889BA77AADF7DEA1
:10A3C000DFA4F8849408A797F300AEF29819A48844
:10A3D000C6A39488F632DFF28393DB09D9F2AADFB1
:10A3E000D8D8AEF8F9D1DAF3A4DEA7F1889B7AD8F1
:10A3F000F38494AE19F9DAAAF1DFD8A881C0C3C5F5
:10A40000C7A39283F628ADDED9F8D8A350ADD9F80A
:10A41000D8A378ADD9F8D8F8F9D1A1DADEC3C5C789
:10A42000D8A18194F818F2B089ACC3C5C7F1D8B8E7
:10A43000B4B09786A8319B069907AB9728889BF004
:10A440000C201440B0B4B8F0A88A9A285078B79B72
:10A45000A8295179247059446938644831F1BBAB5B
:10A4600088002C547CF0B38BB8A804285078F1B045
:10A4700088B49726A85998BBABB38B02264666B022
:10A48000B8F08A9CA82951798B2951798A2470596E
:10A490008B2058718A4469388B3940688A64483106
:10A4A0008B30496088F1AC002C547CF08CA80428D7
:10A4B0005078F1889726A85998AC8C02264666F009
:10A4C000899CA8295179247059446938644831A974
:10A4D0008809205970AB11384069A8193148608C3F
:10A4E000A83C415C207C00F187981986A86E767E96
:10A4F000A999882D557DD8B1B5B9A3DFDFDFAED0DE
:10A50000DFAAD0DEF2ABF8F9D9B087C4AAF1DFDF59
:10A51000BBAFDFDFB9D8B1F1A3978E60DFB084F2B3
:10A52000C8F8F9D9DED89385F14AB183A308B58379
:10A530009A0810B79F10D8F1B0BAAEB08AC2B2B6BE
:10A540008E9EF1FBD9F41DD8F9D90CF1D8F8F8ADED
:10A5500061D9AEFBD8F40CF1D8F8F8AD19D9AEFB3F
:10A56000DFD8F416F1D8F8AD8D61D9F4F4ACF59CD0
:10A570009C8DDF2BBAB6AEFAF8F40BD8F1AED0F85A
:10A58000AD51DAAEFAF8F1D8B9B1B6A3839C08B9E7
:10A59000B1839AB5AAC0FD3083B79F10B58B93F2F3
:10A5A0000202D1ABDADED8F1B080BAABC0C3B2845C
:10A5B000C1C3D8B1B9F38BA391B609B4D9ABDEB09E
:10A5C000879CB9A3DDF1B38B8B8B8B8BB087A3A357
:10A5D000A3A3B28BB69BF2A3A3A3A3A3A3A3A3A3FA
:10A5E000A3F1B087B59AA3F39BA3A3DCBAACDFB900
:10A5F000A3A3A3A3A3A3A3A3A3A3A3A3A3A3A3A32B
:10A60000D8D8D8BBB3B7F1AAF9DAFFD9809AAA286B
:10A61000B48098A720B79787A86688F07951F19001
:10A620002C870CA781976293F07171608594012942
:10A63000517990A5F1284C6C870C95188578A383E7
:10A6400090284C6C886CD8F3A28200F210A8921962
:10A6500080A2F2D926D8F188A84DD948D896A83931
:10A6600080D93CD89580A839A68698D92CDA87A7B6
:10A670002CD8A8899519A980D938D8A88939A98052
:10A68000DA3CD8A82EA83990D90CD8A8953198D9F9
:10A690000CD8A809D9FFD801DAFFD89539A9DA264C
:10A6A000FFD890A80D8999A810809821DA2ED88912
:10A6B00099A83180DA2ED8A886963180DA2ED8A8CB
:10A6C000873180DA2ED8A88292F34180F1D92ED832
:10A6D000A882F31980F1D92ED882ACF3C0A28022CF
:10A6E000F1A62EA72EA92298A829DAACDEFFD8A2BF
:10A6F000F22AF1A92E8292A8F23180A696F1D90011
:10A70000AC8C9C0C30ACDED0DEFFD88C9CACD01076
:10A71000ACDE8092A2F24C82A8F1CAF235F19688A2
:10A72000A6D900D8F1FF0000555555555555C53FE0
:10A730007D6FEB0312D6D4BF5544880E55C1C93F77
:10A740003B8F68B52882A4BF88B20175E0EF493F0E
:10A7500009F7FD0DE13D023F4B2D8A1C273A03C04E
:10A76000C88A599CE52A004059018D1B6C06E6BF3A
:10A7700082922EB1C5B8B33F4FBB610567ACDD3FD8
:10A78000182D4454FB21E93F9BF681D20B73EF3F18
:10A79000182D4454FB21F93FE2652F227F2B7A3C90
:10A7A000075C143326A6813CBDCBF07A8807703C49
:10A7B000075C143326A6913CC4EB98999999C9BFBC
:10A7C000711623FEC671BCBF6D9A74AFF2B0B3BFF1
:10A7D0009AFDDE522DDEADBF2F6C6A2C44B4A2BFB1
:10A7E0000D5555555555D53FFF8300922449C23F1D
:10A7F0006E204CC5CD45B73F513DD0A0660DB13F51
:10A80000EB0D76244B7BA93F11DA22E33AAD903F62
:10A81000000000000000000050726F647563742037
:10A8200049442072656164206173203020696E6440
:10A830006963617465732064657669636520697313
:10A840002065697468657220696E636F6D706174EC
:10A8500069626C65206F7220616E204D50553330F7
:10A8600035302E0D0A00000088A8000800000020E6
:10A87000D00400006289000850AA0008D00400201B
:10A88000E8040000E08A00085184A24A04F00901AB
:10A89000020304060708091BF010012AFF05021530
:10A8A000F01B0F04012AFF0502130F180940404056
:10A8B0005F55555575041A5F0C091121080C1120BC
:10A8C0000F094989790909090F201F112FFE02423A
:10A8D0004ACA4A0304134202FE000E14FF40504CC1
:10A8E0004340404F50505C40FF1BF888012AFF0551
:10A8F0000215F81B1F08012A7F200B109F80E23BE6
:10A90000808201000916E2A2928A86828080041861
:10A9100040807F172424A4FEA3221B22CCAA01146A
:10A9200015080601FF2B0104010511FF0202025860
:10A9300008101010FF109008C3021108080F10042F
:10A9400044827F01808040432C10284681A0180952
:10A950004040484848C8784F0605154848404000E0
:10A9600009150312122222528A063C106080BA197D
:10A97000040B11C030FB1E404043407F061C7F4249
:10A980004106094FC02941080B1110D030FF30D0CB
:10A99000121C10101F3D080402019E0D110102043B
:10A9A00008211116FE222222FE0712FE828292A2A6
:10A9B0009E100880601F0242827F0F11FF402F10FF
:10A9C0002C438011000B1490884C57A42454548CB1
:10A9D00084180801018042221A07441D423E0101E9
:10A9E0008AF9E1000D14E4242CB4252624B42C2487
:10A9F000E404180AFF02011E1212121E41860115FC
:10AA0000091155011523201C053EE0E3FFFFBB8023
:10AA10003F9D59046984850AD7A33C30096F12838E
:10AA20003AA69B443B1A3F180A263BA8C9641580E6
:10AA30003FEC9A1B08E004012013089B3A08642DA0
:10AA40000102030404680806070809020406390025
:04000005080000ED02
:00000001FF
